{
  "transactions": [
    {
      "hash": "0x924417fa823a527bfdd4456f874d3dc34ff8ce6895d6460ab002788e1acce3c9",
      "transactionType": "CALL",
      "contractName": "TestToken",
      "contractAddress": "0x159eA9B02bF05D87DDA0E064558897ef7392Aa13",
      "function": "setMinDstGas(uint16,uint16,uint256)",
      "arguments": [
        "10121",
        "0",
        "2000000"
      ],
      "transaction": {
        "type": "0x02",
        "from": "0x2bf003ec9b7e2a5a8663d6b0475370738fa39825",
        "to": "0x159ea9b02bf05d87dda0e064558897ef7392aa13",
        "gas": "0xa6f1",
        "value": "0x0",
        "data": "0xdf2a5b3b0000000000000000000000000000000000000000000000000000000000002789000000000000000000000000000000000000000000000000000000000000000000000000000000000000000000000000000000000000000000000000001e8480",
        "nonce": "0xd",
        "accessList": []
      },
      "additionalContracts": [],
      "isFixedGasLimit": false
    }
  ],
  "receipts": [],
  "libraries": [],
  "pending": [
    "0x924417fa823a527bfdd4456f874d3dc34ff8ce6895d6460ab002788e1acce3c9"
  ],
  "returns": {},
  "timestamp": 1705499828,
  "chain": 11155111,
  "multi": false,
  "commit": "735668bb"
}