{
  "transactions": [
    {
      "hash": "0x6d121167a86cd5a9a5d53e46b5e5c5a9a14a7feb3267ef94ff7dc897f6170c13",
      "transactionType": "CALL",
      "contractName": "TestToken",
      "contractAddress": "0x0959c593bB41A340Dcd9CA6c090c2F919000B28d",
      "function": "sendFrom(address,uint16,bytes32,uint256,(address,address,bytes))",
      "arguments": [
        "0x2BF003ec9B7e2a5A8663d6B0475370738FA39825",
        "10121",
        "0x0000000000000000000000002bf003ec9b7e2a5a8663d6b0475370738fa39825",
        "1000000000000000000",
        "(0x2BF003ec9B7e2a5A8663d6B0475370738FA39825, 0x0000000000000000000000000000000000000000, 0x00010000000000000000000000000000000000000000000000000000000000030d40)"
      ],
      "transaction": {
        "type": "0x02",
        "from": "0x2bf003ec9b7e2a5a8663d6b0475370738fa39825",
        "to": "0x0959c593bb41a340dcd9ca6c090c2f919000b28d",
        "gas": "0x5681f",
        "value": "0xd90bea098c70",
        "data": "0x695ef6bf0000000000000000000000002bf003ec9b7e2a5a8663d6b0475370738fa3982500000000000000000000000000000000000000000000000000000000000027890000000000000000000000002bf003ec9b7e2a5a8663d6b0475370738fa398250000000000000000000000000000000000000000000000000de0b6b3a764000000000000000000000000000000000000000000000000000000000000000000a00000000000000000000000002bf003ec9b7e2a5a8663d6b0475370738fa3982500000000000000000000000000000000000000000000000000000000000000000000000000000000000000000000000000000000000000000000000000000060000000000000000000000000000000000000000000000000000000000000002200010000000000000000000000000000000000000000000000000000000000030d40000000000000000000000000000000000000000000000000000000000000",
        "nonce": "0x19",
        "accessList": []
      },
      "additionalContracts": [],
      "isFixedGasLimit": false
    }
  ],
  "receipts": [],
  "libraries": [],
  "pending": [
    "0x6d121167a86cd5a9a5d53e46b5e5c5a9a14a7feb3267ef94ff7dc897f6170c13"
  ],
  "returns": {},
  "timestamp": 1705544171,
  "chain": 11155111,
  "multi": false,
  "commit": "735668bb"
}