{
  "transactions": [
    {
      "hash": "0x6479b1857ee1ff53227d2132846b354e861c9f9958e191d1e6b61affbfc2173d",
      "transactionType": "CALL",
      "contractName": "TestToken",
      "contractAddress": "0x159eA9B02bF05D87DDA0E064558897ef7392Aa13",
      "function": "setMinDstGas(uint16,uint16,uint256)",
      "arguments": [
        "10121",
        "0",
        "400000"
      ],
      "transaction": {
        "type": "0x02",
        "from": "0x2bf003ec9b7e2a5a8663d6b0475370738fa39825",
        "to": "0x159ea9b02bf05d87dda0e064558897ef7392aa13",
        "gas": "0xa6f1",
        "value": "0x0",
        "data": "0xdf2a5b3b000000000000000000000000000000000000000000000000000000000000278900000000000000000000000000000000000000000000000000000000000000000000000000000000000000000000000000000000000000000000000000061a80",
        "nonce": "0xc",
        "accessList": []
      },
      "additionalContracts": [],
      "isFixedGasLimit": false
    }
  ],
  "receipts": [],
  "libraries": [],
  "pending": [
    "0x6479b1857ee1ff53227d2132846b354e861c9f9958e191d1e6b61affbfc2173d"
  ],
  "returns": {},
  "timestamp": 1705499753,
  "chain": 11155111,
  "multi": false,
  "commit": "735668bb"
}