{
  "transactions": [
    {
      "hash": "0xa833120e27b15b300e2efa211e2e1b5584ddc52aaee85adf49cfd0f9d53027bb",
      "transactionType": "CALL",
      "contractName": "TestToken",
      "contractAddress": "0x159eA9B02bF05D87DDA0E064558897ef7392Aa13",
      "function": "setTrustedRemote(uint16,bytes)",
      "arguments": [
        "10121",
        "0x0adafb8574b3a59cf3176e1bd278c951c445d94d159ea9b02bf05d87dda0e064558897ef7392aa13"
      ],
      "transaction": {
        "type": "0x02",
        "from": "0x2bf003ec9b7e2a5a8663d6b0475370738fa39825",
        "to": "0x159ea9b02bf05d87dda0e064558897ef7392aa13",
        "gas": "0x21aaa",
        "value": "0x0",
        "data": "0xeb8d72b70000000000000000000000000000000000000000000000000000000000002789000000000000000000000000000000000000000000000000000000000000004000000000000000000000000000000000000000000000000000000000000000280adafb8574b3a59cf3176e1bd278c951c445d94d159ea9b02bf05d87dda0e064558897ef7392aa13000000000000000000000000000000000000000000000000",
        "nonce": "0xa",
        "accessList": []
      },
      "additionalContracts": [],
      "isFixedGasLimit": false
    }
  ],
  "receipts": [],
  "libraries": [],
  "pending": [
    "0xa833120e27b15b300e2efa211e2e1b5584ddc52aaee85adf49cfd0f9d53027bb"
  ],
  "returns": {},
  "timestamp": 1705499477,
  "chain": 11155111,
  "multi": false,
  "commit": "735668bb"
}