{
  "transactions": [
    {
      "hash": "0xe454b148c1d757d129a86595949bd870e1afe9d63123953fff9202291e3ddcc3",
      "transactionType": "CALL",
      "contractName": "TestToken",
      "contractAddress": "0x0959c593bB41A340Dcd9CA6c090c2F919000B28d",
      "function": "setTrustedRemote(uint16,bytes)",
      "arguments": [
        "10121",
        "0x0adafb8574b3a59cf3176e1bd278c951c445d94d0959c593bb41a340dcd9ca6c090c2f919000b28d"
      ],
      "transaction": {
        "type": "0x02",
        "from": "0x2bf003ec9b7e2a5a8663d6b0475370738fa39825",
        "to": "0x0959c593bb41a340dcd9ca6c090c2f919000b28d",
        "gas": "0x1fcad",
        "value": "0x0",
        "data": "0xeb8d72b70000000000000000000000000000000000000000000000000000000000002789000000000000000000000000000000000000000000000000000000000000004000000000000000000000000000000000000000000000000000000000000000280adafb8574b3a59cf3176e1bd278c951c445d94d0959c593bb41a340dcd9ca6c090c2f919000b28d000000000000000000000000000000000000000000000000",
        "nonce": "0x14",
        "accessList": []
      },
      "additionalContracts": [],
      "isFixedGasLimit": false
    }
  ],
  "receipts": [
    {
      "transactionHash": "0xe454b148c1d757d129a86595949bd870e1afe9d63123953fff9202291e3ddcc3",
      "transactionIndex": "0x35",
      "blockHash": "0x2a2dfee91480fac06453bdf8d403a12da535fdeb516286b1b16deadcd7cb2892",
      "blockNumber": "0x4de76d",
      "from": "0x2BF003ec9B7e2a5A8663d6B0475370738FA39825",
      "to": "0x0959c593bB41A340Dcd9CA6c090c2F919000B28d",
      "cumulativeGasUsed": "0x1f32a0",
      "gasUsed": "0x17046",
      "contractAddress": null,
      "logs": [
        {
          "address": "0x0959c593bB41A340Dcd9CA6c090c2F919000B28d",
          "topics": [
            "0xfa41487ad5d6728f0b19276fa1eddc16558578f5109fc39d2dc33c3230470dab"
          ],
          "data": "0x0000000000000000000000000000000000000000000000000000000000002789000000000000000000000000000000000000000000000000000000000000004000000000000000000000000000000000000000000000000000000000000000280adafb8574b3a59cf3176e1bd278c951c445d94d0959c593bb41a340dcd9ca6c090c2f919000b28d000000000000000000000000000000000000000000000000",
          "blockHash": "0x2a2dfee91480fac06453bdf8d403a12da535fdeb516286b1b16deadcd7cb2892",
          "blockNumber": "0x4de76d",
          "transactionHash": "0xe454b148c1d757d129a86595949bd870e1afe9d63123953fff9202291e3ddcc3",
          "transactionIndex": "0x35",
          "logIndex": "0x10",
          "removed": false
        }
      ],
      "status": "0x1",
      "logsBloom": "0x00000000000000000000000000800000000000000000000000000000000000000000000000000000000000000000000000000800000000000000000000000000000008000000000000000000000000000000000000000000000000000008000000000000000000000000000000000000000000000000000080000000000000000000000200000000000000000000000000000000000000000000000000000000000000000000000000000000000000000000000000000000000000000000000000000000000000000000000000000000000000000000000000000000000000000000000000000000000000000000000000000000000000000000000000000000",
      "type": "0x2",
      "effectiveGasPrice": "0xb9eddd88"
    }
  ],
  "libraries": [],
  "pending": [],
  "returns": {},
  "timestamp": 1705543262,
  "chain": 11155111,
  "multi": false,
  "commit": "735668bb"
}