{
  "transactions": [
    {
      "hash": "0x9bb2e58ccff4fcd604cfd2148ab4599f1c9fc4946b04a604b00e4ef6c9585478",
      "transactionType": "CALL",
      "contractName": "TestToken",
      "contractAddress": "0x0959c593bB41A340Dcd9CA6c090c2F919000B28d",
      "function": "setMinDstGas(uint16,uint16,uint256)",
      "arguments": [
        "10121",
        "0",
        "200000"
      ],
      "transaction": {
        "type": "0x02",
        "from": "0x2bf003ec9b7e2a5a8663d6b0475370738fa39825",
        "to": "0x0959c593bb41a340dcd9ca6c090c2f919000b28d",
        "gas": "0x11275",
        "value": "0x0",
        "data": "0xdf2a5b3b000000000000000000000000000000000000000000000000000000000000278900000000000000000000000000000000000000000000000000000000000000000000000000000000000000000000000000000000000000000000000000030d40",
        "nonce": "0x15",
        "accessList": []
      },
      "additionalContracts": [],
      "isFixedGasLimit": false
    }
  ],
  "receipts": [
    {
      "transactionHash": "0x9bb2e58ccff4fcd604cfd2148ab4599f1c9fc4946b04a604b00e4ef6c9585478",
      "transactionIndex": "0x10",
      "blockHash": "0x028d5f2f8ac16f127b25254f0376330e406f56e1ed5b0b73d451d6fe75720b71",
      "blockNumber": "0x4de776",
      "from": "0x2BF003ec9B7e2a5A8663d6B0475370738FA39825",
      "to": "0x0959c593bB41A340Dcd9CA6c090c2F919000B28d",
      "cumulativeGasUsed": "0xb4416",
      "gasUsed": "0xbbaa",
      "contractAddress": null,
      "logs": [
        {
          "address": "0x0959c593bB41A340Dcd9CA6c090c2F919000B28d",
          "topics": [
            "0x9d5c7c0b934da8fefa9c7760c98383778a12dfbfc0c3b3106518f43fb9508ac0"
          ],
          "data": "0x000000000000000000000000000000000000000000000000000000000000278900000000000000000000000000000000000000000000000000000000000000000000000000000000000000000000000000000000000000000000000000030d40",
          "blockHash": "0x028d5f2f8ac16f127b25254f0376330e406f56e1ed5b0b73d451d6fe75720b71",
          "blockNumber": "0x4de776",
          "transactionHash": "0x9bb2e58ccff4fcd604cfd2148ab4599f1c9fc4946b04a604b00e4ef6c9585478",
          "transactionIndex": "0x10",
          "logIndex": "0x8",
          "removed": false
        }
      ],
      "status": "0x1",
      "logsBloom": "0x00000000000000000000000000800000000000000000000000000000000000000000000000000000000000000000000000000800000000000000000000000000000008000000000000000000000000000000000000000000000000000000000000000000000000000000000000000000000000000000000000000000000000200000000000000000000000000000000000000000000000000000000000000000000000000000000000000000000000000000000000000000008020000000000000000000000000000000000000000000000000000000000000000000000000000000000000000000000000000000000000000000000000000000000000000000",
      "type": "0x2",
      "effectiveGasPrice": "0xb9c98e58"
    }
  ],
  "libraries": [],
  "pending": [],
  "returns": {},
  "timestamp": 1705543399,
  "chain": 11155111,
  "multi": false,
  "commit": "735668bb"
}