{
  "transactions": [
    {
      "hash": "0xee1202088f27129069fcf463e2f20ec20297ec55a8c7bb9027c15fdfc71b8867",
      "transactionType": "CALL",
      "contractName": "TestTokenElsewhere",
      "contractAddress": "0xEA90Be941518ae1f5c102b3F5282Ab31760000D4",
      "function": "setMinDstGas(uint16,uint16,uint256)",
      "arguments": [
        "10109",
        "0",
        "200000"
      ],
      "transaction": {
        "type": "0x02",
        "from": "0x2bf003ec9b7e2a5a8663d6b0475370738fa39825",
        "to": "0xea90be941518ae1f5c102b3f5282ab31760000d4",
        "gas": "0x11275",
        "value": "0x0",
        "data": "0xdf2a5b3b000000000000000000000000000000000000000000000000000000000000277d00000000000000000000000000000000000000000000000000000000000000000000000000000000000000000000000000000000000000000000000000030d40",
        "nonce": "0x2",
        "accessList": []
      },
      "additionalContracts": [],
      "isFixedGasLimit": false
    }
  ],
  "receipts": [],
  "libraries": [],
  "pending": [
    "0xee1202088f27129069fcf463e2f20ec20297ec55a8c7bb9027c15fdfc71b8867"
  ],
  "returns": {},
  "timestamp": 1705492102,
  "chain": 11155111,
  "multi": false,
  "commit": "735668bb"
}