{
  "transactions": [
    {
      "hash": "0xabaa9c7e6f9a68b007a051447ad12623aac460d0e4aeee95a13fac3b3be7e0d2",
      "transactionType": "CALL",
      "contractName": "TestToken",
      "contractAddress": "0x159eA9B02bF05D87DDA0E064558897ef7392Aa13",
      "function": "setMinDstGas(uint16,uint16,uint256)",
      "arguments": [
        "10161",
        "0",
        "200000"
      ],
      "transaction": {
        "type": "0x02",
        "from": "0x2bf003ec9b7e2a5a8663d6b0475370738fa39825",
        "to": "0x159ea9b02bf05d87dda0e064558897ef7392aa13",
        "gas": "0x11275",
        "value": "0x0",
        "data": "0xdf2a5b3b00000000000000000000000000000000000000000000000000000000000027b100000000000000000000000000000000000000000000000000000000000000000000000000000000000000000000000000000000000000000000000000030d40",
        "nonce": "0x8",
        "accessList": []
      },
      "additionalContracts": [],
      "isFixedGasLimit": false
    }
  ],
  "receipts": [
    {
      "transactionHash": "0xabaa9c7e6f9a68b007a051447ad12623aac460d0e4aeee95a13fac3b3be7e0d2",
      "transactionIndex": "0x1e",
      "blockHash": "0xd7c89b7ae5028352cff51d3f164ab8105673ecfbd75106b4175a9fc36b1ab83d",
      "blockNumber": "0x4ddb22",
      "from": "0x2BF003ec9B7e2a5A8663d6B0475370738FA39825",
      "to": "0x159eA9B02bF05D87DDA0E064558897ef7392Aa13",
      "cumulativeGasUsed": "0x29acb8",
      "gasUsed": "0xbbaa",
      "contractAddress": null,
      "logs": [
        {
          "address": "0x159eA9B02bF05D87DDA0E064558897ef7392Aa13",
          "topics": [
            "0x9d5c7c0b934da8fefa9c7760c98383778a12dfbfc0c3b3106518f43fb9508ac0"
          ],
          "data": "0x00000000000000000000000000000000000000000000000000000000000027b100000000000000000000000000000000000000000000000000000000000000000000000000000000000000000000000000000000000000000000000000030d40",
          "blockHash": "0xd7c89b7ae5028352cff51d3f164ab8105673ecfbd75106b4175a9fc36b1ab83d",
          "blockNumber": "0x4ddb22",
          "transactionHash": "0xabaa9c7e6f9a68b007a051447ad12623aac460d0e4aeee95a13fac3b3be7e0d2",
          "transactionIndex": "0x1e",
          "logIndex": "0x2a",
          "removed": false
        }
      ],
      "status": "0x1",
      "logsBloom": "0x00000000000000000000000000000000000000000000000000000000000000000000000000000000000000000000000000000000000000000000000000000000000000000000000000000000000000000000000000000000000000000000000000200000000000000000000000000000000000000000000000000000000000200000000000000000000000000000000000000000000000000000000000000000000000000000000000000000000000000000000000000000008020000000000000000000000000000000000000000000000000000000000000000000000000000000000000000000000000000000000000000000000000000000000000080020",
      "type": "0x2",
      "effectiveGasPrice": "0x1096e2b438"
    }
  ],
  "libraries": [],
  "pending": [],
  "returns": {},
  "timestamp": 1705497313,
  "chain": 11155111,
  "multi": false,
  "commit": "735668bb"
}