{
  "transactions": [
    {
      "hash": "0x6d121167a86cd5a9a5d53e46b5e5c5a9a14a7feb3267ef94ff7dc897f6170c13",
      "transactionType": "CALL",
      "contractName": "TestToken",
      "contractAddress": "0x0959c593bB41A340Dcd9CA6c090c2F919000B28d",
      "function": "sendFrom(address,uint16,bytes32,uint256,(address,address,bytes))",
      "arguments": [
        "0x2BF003ec9B7e2a5A8663d6B0475370738FA39825",
        "10121",
        "0x0000000000000000000000002bf003ec9b7e2a5a8663d6b0475370738fa39825",
        "1000000000000000000",
        "(0x2BF003ec9B7e2a5A8663d6B0475370738FA39825, 0x0000000000000000000000000000000000000000, 0x00010000000000000000000000000000000000000000000000000000000000030d40)"
      ],
      "transaction": {
        "type": "0x02",
        "from": "0x2bf003ec9b7e2a5a8663d6b0475370738fa39825",
        "to": "0x0959c593bb41a340dcd9ca6c090c2f919000b28d",
        "gas": "0x5681f",
        "value": "0xd90bea098c70",
        "data": "0x695ef6bf0000000000000000000000002bf003ec9b7e2a5a8663d6b0475370738fa3982500000000000000000000000000000000000000000000000000000000000027890000000000000000000000002bf003ec9b7e2a5a8663d6b0475370738fa398250000000000000000000000000000000000000000000000000de0b6b3a764000000000000000000000000000000000000000000000000000000000000000000a00000000000000000000000002bf003ec9b7e2a5a8663d6b0475370738fa3982500000000000000000000000000000000000000000000000000000000000000000000000000000000000000000000000000000000000000000000000000000060000000000000000000000000000000000000000000000000000000000000002200010000000000000000000000000000000000000000000000000000000000030d40000000000000000000000000000000000000000000000000000000000000",
        "nonce": "0x19",
        "accessList": []
      },
      "additionalContracts": [],
      "isFixedGasLimit": false
    }
  ],
  "receipts": [
    {
      "transactionHash": "0x6d121167a86cd5a9a5d53e46b5e5c5a9a14a7feb3267ef94ff7dc897f6170c13",
      "transactionIndex": "0x3a",
      "blockHash": "0x69378e311f947f83063d9efdeadbb0fab940865a40ae02f9cb7265283c402b3f",
      "blockNumber": "0x4de7a7",
      "from": "0x2BF003ec9B7e2a5A8663d6B0475370738FA39825",
      "to": "0x0959c593bB41A340Dcd9CA6c090c2F919000B28d",
      "cumulativeGasUsed": "0x6d3493",
      "gasUsed": "0x3ea15",
      "contractAddress": null,
      "logs": [
        {
          "address": "0x0959c593bB41A340Dcd9CA6c090c2F919000B28d",
          "topics": [
            "0xddf252ad1be2c89b69c2b068fc378daa952ba7f163c4a11628f55a4df523b3ef",
            "0x0000000000000000000000002bf003ec9b7e2a5a8663d6b0475370738fa39825",
            "0x0000000000000000000000000000000000000000000000000000000000000000"
          ],
          "data": "0x0000000000000000000000000000000000000000000000000de0b6b3a7640000",
          "blockHash": "0x69378e311f947f83063d9efdeadbb0fab940865a40ae02f9cb7265283c402b3f",
          "blockNumber": "0x4de7a7",
          "transactionHash": "0x6d121167a86cd5a9a5d53e46b5e5c5a9a14a7feb3267ef94ff7dc897f6170c13",
          "transactionIndex": "0x3a",
          "logIndex": "0x21",
          "removed": false
        },
        {
          "address": "0x6Ac7bdc07A0583A362F1497252872AE6c0A5F5B8",
          "topics": [
            "0xdf21c415b78ed2552cc9971249e32a053abce6087a0ae0fbf3f78db5174a3493"
          ],
          "data": "0x00000000000000000000000000000000000000000000000000003403c6a628f4",
          "blockHash": "0x69378e311f947f83063d9efdeadbb0fab940865a40ae02f9cb7265283c402b3f",
          "blockNumber": "0x4de7a7",
          "transactionHash": "0x6d121167a86cd5a9a5d53e46b5e5c5a9a14a7feb3267ef94ff7dc897f6170c13",
          "transactionIndex": "0x3a",
          "logIndex": "0x22",
          "removed": false
        },
        {
          "address": "0x3aCAAf60502791D199a5a5F0B173D78229eBFe32",
          "topics": [
            "0xb0c632f55f1e1b3b2c3d82f41ee4716bb4c00f0f5d84cdafc141581bb8757a4f"
          ],
          "data": "0x00000000000000000000000000000000000000000000000000000000000000400000000000000000000000000000000000000000000000000000000000000002000000000000000000000000000000000000000000000000000000000000002200010000000000000000000000000000000000000000000000000000000000030d40000000000000000000000000000000000000000000000000000000000000",
          "blockHash": "0x69378e311f947f83063d9efdeadbb0fab940865a40ae02f9cb7265283c402b3f",
          "blockNumber": "0x4de7a7",
          "transactionHash": "0x6d121167a86cd5a9a5d53e46b5e5c5a9a14a7feb3267ef94ff7dc897f6170c13",
          "transactionIndex": "0x3a",
          "logIndex": "0x23",
          "removed": false
        },
        {
          "address": "0x00C5C0B8e0f75aB862CbAaeCfff499dB555FBDD2",
          "topics": [
            "0x4e41ee13e03cd5e0446487b524fdc48af6acf26c074dacdbdfb6b574b42c8146"
          ],
          "data": "0x0000000000000000000000000000000000000000000000000000000000002789000000000000000000000000000000000000000000000000000000000000000200000000000000000000000000000000000000000000000000000000000000020000000000000000000000000959c593bb41a340dcd9ca6c090c2f919000b28d0000000000000000000000000000000000000000000000000000000008b0fad9",
          "blockHash": "0x69378e311f947f83063d9efdeadbb0fab940865a40ae02f9cb7265283c402b3f",
          "blockNumber": "0x4de7a7",
          "transactionHash": "0x6d121167a86cd5a9a5d53e46b5e5c5a9a14a7feb3267ef94ff7dc897f6170c13",
          "transactionIndex": "0x3a",
          "logIndex": "0x24",
          "removed": false
        },
        {
          "address": "0x3aCAAf60502791D199a5a5F0B173D78229eBFe32",
          "topics": [
            "0xe9bded5f24a4168e4f3bf44e00298c993b22376aad8c58c7dda9718a54cbea82"
          ],
          "data": "0x0000000000000000000000000000000000000000000000000000000000000020000000000000000000000000000000000000000000000000000000000000005d000000000000000127b10959c593bb41a340dcd9ca6c090c2f919000b28d27890adafb8574b3a59cf3176e1bd278c951c445d94d000000000000000000000000002bf003ec9b7e2a5a8663d6b0475370738fa398250000000005f5e100000000",
          "blockHash": "0x69378e311f947f83063d9efdeadbb0fab940865a40ae02f9cb7265283c402b3f",
          "blockNumber": "0x4de7a7",
          "transactionHash": "0x6d121167a86cd5a9a5d53e46b5e5c5a9a14a7feb3267ef94ff7dc897f6170c13",
          "transactionIndex": "0x3a",
          "logIndex": "0x25",
          "removed": false
        },
        {
          "address": "0x0959c593bB41A340Dcd9CA6c090c2F919000B28d",
          "topics": [
            "0xd81fc9b8523134ed613870ed029d6170cbb73aa6a6bc311b9a642689fb9df59a",
            "0x0000000000000000000000000000000000000000000000000000000000002789",
            "0x0000000000000000000000002bf003ec9b7e2a5a8663d6b0475370738fa39825",
            "0x0000000000000000000000002bf003ec9b7e2a5a8663d6b0475370738fa39825"
          ],
          "data": "0x0000000000000000000000000000000000000000000000000de0b6b3a7640000",
          "blockHash": "0x69378e311f947f83063d9efdeadbb0fab940865a40ae02f9cb7265283c402b3f",
          "blockNumber": "0x4de7a7",
          "transactionHash": "0x6d121167a86cd5a9a5d53e46b5e5c5a9a14a7feb3267ef94ff7dc897f6170c13",
          "transactionIndex": "0x3a",
          "logIndex": "0x26",
          "removed": false
        }
      ],
      "status": "0x1",
      "logsBloom": "0x00000000000000000000000000800000000050000000000000000000000000100000000020000000400000000000000000000800000000000000000000000000004008000000000000000008000000001000000000000000000000000000000000040000020000000000000000000a00000000000080000000000010000000000040000400000000000000000000000000001200288000000000000000000000000000004000020000000000000000000000000000000000000000000000000000041002000008000000800001000000000000020000040000000000004120001000000000000000000000000000000000000000000000000000000000080000",
      "type": "0x2",
      "effectiveGasPrice": "0xd23458aa"
    }
  ],
  "libraries": [],
  "pending": [],
  "returns": {},
  "timestamp": 1705544190,
  "chain": 11155111,
  "multi": false,
  "commit": "735668bb"
}