{
  "transactions": [
    {
      "hash": "0x6479b1857ee1ff53227d2132846b354e861c9f9958e191d1e6b61affbfc2173d",
      "transactionType": "CALL",
      "contractName": "TestToken",
      "contractAddress": "0x159eA9B02bF05D87DDA0E064558897ef7392Aa13",
      "function": "setMinDstGas(uint16,uint16,uint256)",
      "arguments": [
        "10121",
        "0",
        "400000"
      ],
      "transaction": {
        "type": "0x02",
        "from": "0x2bf003ec9b7e2a5a8663d6b0475370738fa39825",
        "to": "0x159ea9b02bf05d87dda0e064558897ef7392aa13",
        "gas": "0xa6f1",
        "value": "0x0",
        "data": "0xdf2a5b3b000000000000000000000000000000000000000000000000000000000000278900000000000000000000000000000000000000000000000000000000000000000000000000000000000000000000000000000000000000000000000000061a80",
        "nonce": "0xc",
        "accessList": []
      },
      "additionalContracts": [],
      "isFixedGasLimit": false
    }
  ],
  "receipts": [
    {
      "transactionHash": "0x6479b1857ee1ff53227d2132846b354e861c9f9958e191d1e6b61affbfc2173d",
      "transactionIndex": "0x27",
      "blockHash": "0x1bb2c19a5a38bd15507d14c6e337ff85a32b452db4e98816ea9fe7ee0273e05b",
      "blockNumber": "0x4ddbcc",
      "from": "0x2BF003ec9B7e2a5A8663d6B0475370738FA39825",
      "to": "0x159eA9B02bF05D87DDA0E064558897ef7392Aa13",
      "cumulativeGasUsed": "0x314ac8",
      "gasUsed": "0x78de",
      "contractAddress": null,
      "logs": [
        {
          "address": "0x159eA9B02bF05D87DDA0E064558897ef7392Aa13",
          "topics": [
            "0x9d5c7c0b934da8fefa9c7760c98383778a12dfbfc0c3b3106518f43fb9508ac0"
          ],
          "data": "0x000000000000000000000000000000000000000000000000000000000000278900000000000000000000000000000000000000000000000000000000000000000000000000000000000000000000000000000000000000000000000000061a80",
          "blockHash": "0x1bb2c19a5a38bd15507d14c6e337ff85a32b452db4e98816ea9fe7ee0273e05b",
          "blockNumber": "0x4ddbcc",
          "transactionHash": "0x6479b1857ee1ff53227d2132846b354e861c9f9958e191d1e6b61affbfc2173d",
          "transactionIndex": "0x27",
          "logIndex": "0x3d",
          "removed": false
        }
      ],
      "status": "0x1",
      "logsBloom": "0x00000000000000000000000000000000000000000000000000000000000000000000000000000000000000000000000000000000000000000000000000000000000000000000000000000000000000000000000000000000000000000000000000200000000000000000000000000000000000000000000000000000000000200000000000000000000000000000000000000000000000000000000000000000000000000000000000000000000000000000000000000000008020000000000000000000000000000000000000000000000000000000000000000000000000000000000000000000000000000000000000000000000000000000000000080020",
      "type": "0x2",
      "effectiveGasPrice": "0x69dfb5dfa6"
    }
  ],
  "libraries": [],
  "pending": [],
  "returns": {},
  "timestamp": 1705499772,
  "chain": 11155111,
  "multi": false,
  "commit": "735668bb"
}