{
  "transactions": [
    {
      "hash": "0xb437506fbf75a47ceb59db769020aa9bab6fa3449e9e5a62943939c8d4f4712a",
      "transactionType": "CALL",
      "contractName": "TestToken",
      "contractAddress": "0x159eA9B02bF05D87DDA0E064558897ef7392Aa13",
      "function": "setMinDstGas(uint16,uint16,uint256)",
      "arguments": [
        "10121",
        "0",
        "200000"
      ],
      "transaction": {
        "type": "0x02",
        "from": "0x2bf003ec9b7e2a5a8663d6b0475370738fa39825",
        "to": "0x159ea9b02bf05d87dda0e064558897ef7392aa13",
        "gas": "0x97d6",
        "value": "0x0",
        "data": "0xdf2a5b3b000000000000000000000000000000000000000000000000000000000000278900000000000000000000000000000000000000000000000000000000000000000000000000000000000000000000000000000000000000000000000000030d40",
        "nonce": "0xf",
        "accessList": []
      },
      "additionalContracts": [],
      "isFixedGasLimit": false
    }
  ],
  "receipts": [
    {
      "transactionHash": "0xb437506fbf75a47ceb59db769020aa9bab6fa3449e9e5a62943939c8d4f4712a",
      "transactionIndex": "0xc",
      "blockHash": "0xd2c7986e41d2aacb08d11121740228e7374f9ccc62ef07982a554c4aa108ee2b",
      "blockNumber": "0x4de3d5",
      "from": "0x2BF003ec9B7e2a5A8663d6B0475370738FA39825",
      "to": "0x159eA9B02bF05D87DDA0E064558897ef7392Aa13",
      "cumulativeGasUsed": "0x148a93",
      "gasUsed": "0x6dee",
      "contractAddress": null,
      "logs": [
        {
          "address": "0x159eA9B02bF05D87DDA0E064558897ef7392Aa13",
          "topics": [
            "0x9d5c7c0b934da8fefa9c7760c98383778a12dfbfc0c3b3106518f43fb9508ac0"
          ],
          "data": "0x000000000000000000000000000000000000000000000000000000000000278900000000000000000000000000000000000000000000000000000000000000000000000000000000000000000000000000000000000000000000000000030d40",
          "blockHash": "0xd2c7986e41d2aacb08d11121740228e7374f9ccc62ef07982a554c4aa108ee2b",
          "blockNumber": "0x4de3d5",
          "transactionHash": "0xb437506fbf75a47ceb59db769020aa9bab6fa3449e9e5a62943939c8d4f4712a",
          "transactionIndex": "0xc",
          "logIndex": "0x1b",
          "removed": false
        }
      ],
      "status": "0x1",
      "logsBloom": "0x00000000000000000000000000000000000000000000000000000000000000000000000000000000000000000000000000000000000000000000000000000000000000000000000000000000000000000000000000000000000000000000000000200000000000000000000000000000000000000000000000000000000000200000000000000000000000000000000000000000000000000000000000000000000000000000000000000000000000000000000000000000008020000000000000000000000000000000000000000000000000000000000000000000000000000000000000000000000000000000000000000000000000000000000000080020",
      "type": "0x2",
      "effectiveGasPrice": "0x1bd7038e5"
    }
  ],
  "libraries": [],
  "pending": [],
  "returns": {},
  "timestamp": 1705529980,
  "chain": 11155111,
  "multi": false,
  "commit": "735668bb"
}