{
  "transactions": [
    {
      "hash": "0xda99b664cab5d500661412393d5b8a70a345acec3b9c8a6f2c72202e11233ac0",
      "transactionType": "CALL",
      "contractName": "TestToken",
      "contractAddress": "0x159eA9B02bF05D87DDA0E064558897ef7392Aa13",
      "function": "setMinDstGas(uint16,uint16,uint256)",
      "arguments": [
        "10121",
        "0",
        "200000"
      ],
      "transaction": {
        "type": "0x02",
        "from": "0x2bf003ec9b7e2a5a8663d6b0475370738fa39825",
        "to": "0x159ea9b02bf05d87dda0e064558897ef7392aa13",
        "gas": "0x11275",
        "value": "0x0",
        "data": "0xdf2a5b3b000000000000000000000000000000000000000000000000000000000000278900000000000000000000000000000000000000000000000000000000000000000000000000000000000000000000000000000000000000000000000000030d40",
        "nonce": "0xb",
        "accessList": []
      },
      "additionalContracts": [],
      "isFixedGasLimit": false
    }
  ],
  "receipts": [
    {
      "transactionHash": "0xda99b664cab5d500661412393d5b8a70a345acec3b9c8a6f2c72202e11233ac0",
      "transactionIndex": "0xb",
      "blockHash": "0x6ac5e1e4b67976273f7d6de4dabfc5e260ccd5af02c1c6fab02909a3521aca28",
      "blockNumber": "0x4ddbc0",
      "from": "0x2BF003ec9B7e2a5A8663d6B0475370738FA39825",
      "to": "0x159eA9B02bF05D87DDA0E064558897ef7392Aa13",
      "cumulativeGasUsed": "0xeb71d",
      "gasUsed": "0xbbaa",
      "contractAddress": null,
      "logs": [
        {
          "address": "0x159eA9B02bF05D87DDA0E064558897ef7392Aa13",
          "topics": [
            "0x9d5c7c0b934da8fefa9c7760c98383778a12dfbfc0c3b3106518f43fb9508ac0"
          ],
          "data": "0x000000000000000000000000000000000000000000000000000000000000278900000000000000000000000000000000000000000000000000000000000000000000000000000000000000000000000000000000000000000000000000030d40",
          "blockHash": "0x6ac5e1e4b67976273f7d6de4dabfc5e260ccd5af02c1c6fab02909a3521aca28",
          "blockNumber": "0x4ddbc0",
          "transactionHash": "0xda99b664cab5d500661412393d5b8a70a345acec3b9c8a6f2c72202e11233ac0",
          "transactionIndex": "0xb",
          "logIndex": "0xd",
          "removed": false
        }
      ],
      "status": "0x1",
      "logsBloom": "0x00000000000000000000000000000000000000000000000000000000000000000000000000000000000000000000000000000000000000000000000000000000000000000000000000000000000000000000000000000000000000000000000000200000000000000000000000000000000000000000000000000000000000200000000000000000000000000000000000000000000000000000000000000000000000000000000000000000000000000000000000000000008020000000000000000000000000000000000000000000000000000000000000000000000000000000000000000000000000000000000000000000000000000000000000080020",
      "type": "0x2",
      "effectiveGasPrice": "0xce29a1c816"
    }
  ],
  "libraries": [],
  "pending": [],
  "returns": {},
  "timestamp": 1705499581,
  "chain": 11155111,
  "multi": false,
  "commit": "735668bb"
}