{
  "transactions": [
    {
      "hash": "0xda99b664cab5d500661412393d5b8a70a345acec3b9c8a6f2c72202e11233ac0",
      "transactionType": "CALL",
      "contractName": "TestToken",
      "contractAddress": "0x159eA9B02bF05D87DDA0E064558897ef7392Aa13",
      "function": "setMinDstGas(uint16,uint16,uint256)",
      "arguments": [
        "10121",
        "0",
        "200000"
      ],
      "transaction": {
        "type": "0x02",
        "from": "0x2bf003ec9b7e2a5a8663d6b0475370738fa39825",
        "to": "0x159ea9b02bf05d87dda0e064558897ef7392aa13",
        "gas": "0x11275",
        "value": "0x0",
        "data": "0xdf2a5b3b000000000000000000000000000000000000000000000000000000000000278900000000000000000000000000000000000000000000000000000000000000000000000000000000000000000000000000000000000000000000000000030d40",
        "nonce": "0xb",
        "accessList": []
      },
      "additionalContracts": [],
      "isFixedGasLimit": false
    }
  ],
  "receipts": [],
  "libraries": [],
  "pending": [
    "0xda99b664cab5d500661412393d5b8a70a345acec3b9c8a6f2c72202e11233ac0"
  ],
  "returns": {},
  "timestamp": 1705499574,
  "chain": 11155111,
  "multi": false,
  "commit": "735668bb"
}