{
  "transactions": [
    {
      "hash": "0xa833120e27b15b300e2efa211e2e1b5584ddc52aaee85adf49cfd0f9d53027bb",
      "transactionType": "CALL",
      "contractName": "TestToken",
      "contractAddress": "0x159eA9B02bF05D87DDA0E064558897ef7392Aa13",
      "function": "setTrustedRemote(uint16,bytes)",
      "arguments": [
        "10121",
        "0x0adafb8574b3a59cf3176e1bd278c951c445d94d159ea9b02bf05d87dda0e064558897ef7392aa13"
      ],
      "transaction": {
        "type": "0x02",
        "from": "0x2bf003ec9b7e2a5a8663d6b0475370738fa39825",
        "to": "0x159ea9b02bf05d87dda0e064558897ef7392aa13",
        "gas": "0x21aaa",
        "value": "0x0",
        "data": "0xeb8d72b70000000000000000000000000000000000000000000000000000000000002789000000000000000000000000000000000000000000000000000000000000004000000000000000000000000000000000000000000000000000000000000000280adafb8574b3a59cf3176e1bd278c951c445d94d159ea9b02bf05d87dda0e064558897ef7392aa13000000000000000000000000000000000000000000000000",
        "nonce": "0xa",
        "accessList": []
      },
      "additionalContracts": [],
      "isFixedGasLimit": false
    }
  ],
  "receipts": [
    {
      "transactionHash": "0xa833120e27b15b300e2efa211e2e1b5584ddc52aaee85adf49cfd0f9d53027bb",
      "transactionIndex": "0x1a",
      "blockHash": "0x40f40a6477d770abdc6178be0ce0b886a189222cb788f768ceada0b1e05682e0",
      "blockNumber": "0x4ddbba",
      "from": "0x2BF003ec9B7e2a5A8663d6B0475370738FA39825",
      "to": "0x159eA9B02bF05D87DDA0E064558897ef7392Aa13",
      "cumulativeGasUsed": "0x1fd99d",
      "gasUsed": "0x17052",
      "contractAddress": null,
      "logs": [
        {
          "address": "0x159eA9B02bF05D87DDA0E064558897ef7392Aa13",
          "topics": [
            "0xfa41487ad5d6728f0b19276fa1eddc16558578f5109fc39d2dc33c3230470dab"
          ],
          "data": "0x0000000000000000000000000000000000000000000000000000000000002789000000000000000000000000000000000000000000000000000000000000004000000000000000000000000000000000000000000000000000000000000000280adafb8574b3a59cf3176e1bd278c951c445d94d159ea9b02bf05d87dda0e064558897ef7392aa13000000000000000000000000000000000000000000000000",
          "blockHash": "0x40f40a6477d770abdc6178be0ce0b886a189222cb788f768ceada0b1e05682e0",
          "blockNumber": "0x4ddbba",
          "transactionHash": "0xa833120e27b15b300e2efa211e2e1b5584ddc52aaee85adf49cfd0f9d53027bb",
          "transactionIndex": "0x1a",
          "logIndex": "0x30",
          "removed": false
        }
      ],
      "status": "0x1",
      "logsBloom": "0x00000000000000000000000000000000000000000000000000000000000000000000000000000000000000000000000000000000000000000000000000000000000000000000000000000000000000000000000000000000000000000008000000200000000000000000000000000000000000000000000080000000000000000000000200000000000000000000000000000000000000000000000000000000000000000000000000000000000000000000000000000000000000000000000000000000000000000000000000000000000000000000000000000000000000000000000000000000000000000000000000000000000000000000000000080020",
      "type": "0x2",
      "effectiveGasPrice": "0x834984572e"
    }
  ],
  "libraries": [],
  "pending": [],
  "returns": {},
  "timestamp": 1705499497,
  "chain": 11155111,
  "multi": false,
  "commit": "735668bb"
}