{
  "transactions": [
    {
      "hash": "0x40f64166452028d5162c4788842b5e7ea8b4e9a1f8285d925d4ab9839856616b",
      "transactionType": "CALL",
      "contractName": "TestTokenElsewhere",
      "contractAddress": "0xEA90Be941518ae1f5c102b3F5282Ab31760000D4",
      "function": "setTrustedRemote(uint16,bytes)",
      "arguments": [
        "10109",
        "0xc269ff8c6d002b8aa011426f0efe98dd8a610c85ea90be941518ae1f5c102b3f5282ab31760000d4"
      ],
      "transaction": {
        "type": "0x02",
        "from": "0x2bf003ec9b7e2a5a8663d6b0475370738fa39825",
        "to": "0xea90be941518ae1f5c102b3f5282ab31760000d4",
        "gas": "0x1fc8b",
        "value": "0x0",
        "data": "0xeb8d72b7000000000000000000000000000000000000000000000000000000000000277d00000000000000000000000000000000000000000000000000000000000000400000000000000000000000000000000000000000000000000000000000000028c269ff8c6d002b8aa011426f0efe98dd8a610c85ea90be941518ae1f5c102b3f5282ab31760000d4000000000000000000000000000000000000000000000000",
        "nonce": "0x1",
        "accessList": []
      },
      "additionalContracts": [],
      "isFixedGasLimit": false
    }
  ],
  "receipts": [
    {
      "transactionHash": "0x40f64166452028d5162c4788842b5e7ea8b4e9a1f8285d925d4ab9839856616b",
      "transactionIndex": "0x1b",
      "blockHash": "0xf01c8178c397efb8c949776ab45fb3b003acd282e50e01fe7cb8237d27210318",
      "blockNumber": "0x4dd9a2",
      "from": "0x2BF003ec9B7e2a5A8663d6B0475370738FA39825",
      "to": "0xEA90Be941518ae1f5c102b3F5282Ab31760000D4",
      "cumulativeGasUsed": "0x269f6c",
      "gasUsed": "0x1702e",
      "contractAddress": null,
      "logs": [
        {
          "address": "0xEA90Be941518ae1f5c102b3F5282Ab31760000D4",
          "topics": [
            "0xfa41487ad5d6728f0b19276fa1eddc16558578f5109fc39d2dc33c3230470dab"
          ],
          "data": "0x000000000000000000000000000000000000000000000000000000000000277d00000000000000000000000000000000000000000000000000000000000000400000000000000000000000000000000000000000000000000000000000000028c269ff8c6d002b8aa011426f0efe98dd8a610c85ea90be941518ae1f5c102b3f5282ab31760000d4000000000000000000000000000000000000000000000000",
          "blockHash": "0xf01c8178c397efb8c949776ab45fb3b003acd282e50e01fe7cb8237d27210318",
          "blockNumber": "0x4dd9a2",
          "transactionHash": "0x40f64166452028d5162c4788842b5e7ea8b4e9a1f8285d925d4ab9839856616b",
          "transactionIndex": "0x1b",
          "logIndex": "0x30",
          "removed": false
        }
      ],
      "status": "0x1",
      "logsBloom": "0x00000000000000000000000000000000000000000000000000000000000000000000000000000000000000000000000000000000000000000000000040000000000000000000000000000000000000000000000000000000000000000008000000000000000000000000000000000000000000000008000080000000002000000000000200000000000000000000000000000000000000000000000000000000000000000000000000000000000000000000000000000000000000000000000000000000000000000000000000000000000000000000000000000000000000000000000000000000000000000000000000000000000000000000000000000000",
      "type": "0x2",
      "effectiveGasPrice": "0x1868c90b8c"
    }
  ],
  "libraries": [],
  "pending": [],
  "returns": {},
  "timestamp": 1705491888,
  "chain": 11155111,
  "multi": false,
  "commit": "735668bb"
}