{
  "transactions": [
    {
      "hash": "0xa6e7961a9260c48387f3a551cd8ebed2f57c693b7502287714837bc829070389",
      "transactionType": "CALL",
      "contractName": "TestToken",
      "contractAddress": "0x0959c593bB41A340Dcd9CA6c090c2F919000B28d",
      "function": "setMinDstGas(uint16,uint16,uint256)",
      "arguments": [
        "10121",
        "0",
        "200000"
      ],
      "transaction": {
        "type": "0x02",
        "from": "0x2bf003ec9b7e2a5a8663d6b0475370738fa39825",
        "to": "0x0959c593bb41a340dcd9ca6c090c2f919000b28d",
        "gas": "0x97d6",
        "value": "0x0",
        "data": "0xdf2a5b3b000000000000000000000000000000000000000000000000000000000000278900000000000000000000000000000000000000000000000000000000000000000000000000000000000000000000000000000000000000000000000000030d40",
        "nonce": "0x1d",
        "accessList": []
      },
      "additionalContracts": [],
      "isFixedGasLimit": false
    }
  ],
  "receipts": [
    {
      "transactionHash": "0xa6e7961a9260c48387f3a551cd8ebed2f57c693b7502287714837bc829070389",
      "transactionIndex": "0x17",
      "blockHash": "0x8784a731c3f069f09e43a49ecc54fb1dd7df78617e6aeab96f9cda7d569ded14",
      "blockNumber": "0x4e02ef",
      "from": "0x2BF003ec9B7e2a5A8663d6B0475370738FA39825",
      "to": "0x0959c593bB41A340Dcd9CA6c090c2F919000B28d",
      "cumulativeGasUsed": "0x11bcca",
      "gasUsed": "0x6dee",
      "contractAddress": null,
      "logs": [
        {
          "address": "0x0959c593bB41A340Dcd9CA6c090c2F919000B28d",
          "topics": [
            "0x9d5c7c0b934da8fefa9c7760c98383778a12dfbfc0c3b3106518f43fb9508ac0"
          ],
          "data": "0x000000000000000000000000000000000000000000000000000000000000278900000000000000000000000000000000000000000000000000000000000000000000000000000000000000000000000000000000000000000000000000030d40",
          "blockHash": "0x8784a731c3f069f09e43a49ecc54fb1dd7df78617e6aeab96f9cda7d569ded14",
          "blockNumber": "0x4e02ef",
          "transactionHash": "0xa6e7961a9260c48387f3a551cd8ebed2f57c693b7502287714837bc829070389",
          "transactionIndex": "0x17",
          "logIndex": "0x7",
          "removed": false
        }
      ],
      "status": "0x1",
      "logsBloom": "0x00000000000000000000000000800000000000000000000000000000000000000000000000000000000000000000000000000800000000000000000000000000000008000000000000000000000000000000000000000000000000000000000000000000000000000000000000000000000000000000000000000000000000200000000000000000000000000000000000000000000000000000000000000000000000000000000000000000000000000000000000000000008020000000000000000000000000000000000000000000000000000000000000000000000000000000000000000000000000000000000000000000000000000000000000000000",
      "type": "0x2",
      "effectiveGasPrice": "0xf4199db1"
    }
  ],
  "libraries": [],
  "pending": [],
  "returns": {},
  "timestamp": 1705643018,
  "chain": 11155111,
  "multi": false,
  "commit": "57fff76b"
}