{
  "transactions": [
    {
      "hash": "0xa76badeac4f979d91c3a1373698672d47e5ae983fd267c9d90cb9f224e7e3367",
      "transactionType": "CALL",
      "contractName": "TestToken",
      "contractAddress": "0x0ADAFB8574b3a59cF3176e1bD278C951c445D94d",
      "function": "setMinDstGas(uint16,uint16,uint256)",
      "arguments": [
        "10121",
        "0",
        "200000"
      ],
      "transaction": {
        "type": "0x02",
        "from": "0x2bf003ec9b7e2a5a8663d6b0475370738fa39825",
        "to": "0x0adafb8574b3a59cf3176e1bd278c951c445d94d",
        "gas": "0x11275",
        "value": "0x0",
        "data": "0xdf2a5b3b000000000000000000000000000000000000000000000000000000000000278900000000000000000000000000000000000000000000000000000000000000000000000000000000000000000000000000000000000000000000000000030d40",
        "nonce": "0x12",
        "accessList": []
      },
      "additionalContracts": [],
      "isFixedGasLimit": false
    }
  ],
  "receipts": [
    {
      "transactionHash": "0xa76badeac4f979d91c3a1373698672d47e5ae983fd267c9d90cb9f224e7e3367",
      "transactionIndex": "0x11",
      "blockHash": "0xc4c263ac9b3c38df51d6890dd3a88a6dc5e59557579211f6a585a73a9a5d3194",
      "blockNumber": "0x4de74e",
      "from": "0x2BF003ec9B7e2a5A8663d6B0475370738FA39825",
      "to": "0x0ADAFB8574b3a59cF3176e1bD278C951c445D94d",
      "cumulativeGasUsed": "0x1c54bb",
      "gasUsed": "0xbbaa",
      "contractAddress": null,
      "logs": [
        {
          "address": "0x0ADAFB8574b3a59cF3176e1bD278C951c445D94d",
          "topics": [
            "0x9d5c7c0b934da8fefa9c7760c98383778a12dfbfc0c3b3106518f43fb9508ac0"
          ],
          "data": "0x000000000000000000000000000000000000000000000000000000000000278900000000000000000000000000000000000000000000000000000000000000000000000000000000000000000000000000000000000000000000000000030d40",
          "blockHash": "0xc4c263ac9b3c38df51d6890dd3a88a6dc5e59557579211f6a585a73a9a5d3194",
          "blockNumber": "0x4de74e",
          "transactionHash": "0xa76badeac4f979d91c3a1373698672d47e5ae983fd267c9d90cb9f224e7e3367",
          "transactionIndex": "0x11",
          "logIndex": "0x23",
          "removed": false
        }
      ],
      "status": "0x1",
      "logsBloom": "0x00000000000000000020000000000000000000000000000000000000000000000000000000000000000000000000000000000000000000000000000000000000000000000000000000000000000000000000000000000000000000000000000000000000000000000000040000000000000000000000000000000000000000200000000000000000000000000000000000000000000000000000000000000000000000000000000000000000000000000000000000000000008020000000000000000000000000000010000000000000000000000000000000000000000000000000000000000000000000000000000000000000000000000000000000000000",
      "type": "0x2",
      "effectiveGasPrice": "0xbb187bce"
    }
  ],
  "libraries": [],
  "pending": [],
  "returns": {},
  "timestamp": 1705542856,
  "chain": 11155111,
  "multi": false,
  "commit": "735668bb"
}