{
  "transactions": [
    {
      "hash": "0x1cf1c198b24e898883ca606063941374c34bc0a52fd3ab3e854b56f8811fb43e",
      "transactionType": "CALL",
      "contractName": "TestToken",
      "contractAddress": "0x159eA9B02bF05D87DDA0E064558897ef7392Aa13",
      "function": "setTrustedRemote(uint16,bytes)",
      "arguments": [
        "10161",
        "0x0adafb8574b3a59cf3176e1bd278c951c445d94d159ea9b02bf05d87dda0e064558897ef7392aa13"
      ],
      "transaction": {
        "type": "0x02",
        "from": "0x2bf003ec9b7e2a5a8663d6b0475370738fa39825",
        "to": "0x159ea9b02bf05d87dda0e064558897ef7392aa13",
        "gas": "0x21aaa",
        "value": "0x0",
        "data": "0xeb8d72b700000000000000000000000000000000000000000000000000000000000027b1000000000000000000000000000000000000000000000000000000000000004000000000000000000000000000000000000000000000000000000000000000280adafb8574b3a59cf3176e1bd278c951c445d94d159ea9b02bf05d87dda0e064558897ef7392aa13000000000000000000000000000000000000000000000000",
        "nonce": "0x7",
        "accessList": []
      },
      "additionalContracts": [],
      "isFixedGasLimit": false
    }
  ],
  "receipts": [
    {
      "transactionHash": "0x1cf1c198b24e898883ca606063941374c34bc0a52fd3ab3e854b56f8811fb43e",
      "transactionIndex": "0x2b",
      "blockHash": "0x5a28304caa376b063ea964539e987cb473df8f36179c4c79203c1ef8d550e3b5",
      "blockNumber": "0x4ddb11",
      "from": "0x2BF003ec9B7e2a5A8663d6B0475370738FA39825",
      "to": "0x159eA9B02bF05D87DDA0E064558897ef7392Aa13",
      "cumulativeGasUsed": "0x47519c",
      "gasUsed": "0x17052",
      "contractAddress": null,
      "logs": [
        {
          "address": "0x159eA9B02bF05D87DDA0E064558897ef7392Aa13",
          "topics": [
            "0xfa41487ad5d6728f0b19276fa1eddc16558578f5109fc39d2dc33c3230470dab"
          ],
          "data": "0x00000000000000000000000000000000000000000000000000000000000027b1000000000000000000000000000000000000000000000000000000000000004000000000000000000000000000000000000000000000000000000000000000280adafb8574b3a59cf3176e1bd278c951c445d94d159ea9b02bf05d87dda0e064558897ef7392aa13000000000000000000000000000000000000000000000000",
          "blockHash": "0x5a28304caa376b063ea964539e987cb473df8f36179c4c79203c1ef8d550e3b5",
          "blockNumber": "0x4ddb11",
          "transactionHash": "0x1cf1c198b24e898883ca606063941374c34bc0a52fd3ab3e854b56f8811fb43e",
          "transactionIndex": "0x2b",
          "logIndex": "0x5c",
          "removed": false
        }
      ],
      "status": "0x1",
      "logsBloom": "0x00000000000000000000000000000000000000000000000000000000000000000000000000000000000000000000000000000000000000000000000000000000000000000000000000000000000000000000000000000000000000000008000000200000000000000000000000000000000000000000000080000000000000000000000200000000000000000000000000000000000000000000000000000000000000000000000000000000000000000000000000000000000000000000000000000000000000000000000000000000000000000000000000000000000000000000000000000000000000000000000000000000000000000000000000080020",
      "type": "0x2",
      "effectiveGasPrice": "0xe036d31cf"
    }
  ],
  "libraries": [],
  "pending": [],
  "returns": {},
  "timestamp": 1705497060,
  "chain": 11155111,
  "multi": false,
  "commit": "735668bb"
}