{
  "transactions": [
    {
      "hash": "0xee1202088f27129069fcf463e2f20ec20297ec55a8c7bb9027c15fdfc71b8867",
      "transactionType": "CALL",
      "contractName": "TestTokenElsewhere",
      "contractAddress": "0xEA90Be941518ae1f5c102b3F5282Ab31760000D4",
      "function": "setMinDstGas(uint16,uint16,uint256)",
      "arguments": [
        "10109",
        "0",
        "200000"
      ],
      "transaction": {
        "type": "0x02",
        "from": "0x2bf003ec9b7e2a5a8663d6b0475370738fa39825",
        "to": "0xea90be941518ae1f5c102b3f5282ab31760000d4",
        "gas": "0x11275",
        "value": "0x0",
        "data": "0xdf2a5b3b000000000000000000000000000000000000000000000000000000000000277d00000000000000000000000000000000000000000000000000000000000000000000000000000000000000000000000000000000000000000000000000030d40",
        "nonce": "0x2",
        "accessList": []
      },
      "additionalContracts": [],
      "isFixedGasLimit": false
    }
  ],
  "receipts": [
    {
      "transactionHash": "0xee1202088f27129069fcf463e2f20ec20297ec55a8c7bb9027c15fdfc71b8867",
      "transactionIndex": "0x21",
      "blockHash": "0xddc227cfe216bdd797ff9c519f2617ccc6205ce7d0d5ad57c0a488575c6b0b7c",
      "blockNumber": "0x4dd9b1",
      "from": "0x2BF003ec9B7e2a5A8663d6B0475370738FA39825",
      "to": "0xEA90Be941518ae1f5c102b3F5282Ab31760000D4",
      "cumulativeGasUsed": "0x450249",
      "gasUsed": "0xbbaa",
      "contractAddress": null,
      "logs": [
        {
          "address": "0xEA90Be941518ae1f5c102b3F5282Ab31760000D4",
          "topics": [
            "0x9d5c7c0b934da8fefa9c7760c98383778a12dfbfc0c3b3106518f43fb9508ac0"
          ],
          "data": "0x000000000000000000000000000000000000000000000000000000000000277d00000000000000000000000000000000000000000000000000000000000000000000000000000000000000000000000000000000000000000000000000030d40",
          "blockHash": "0xddc227cfe216bdd797ff9c519f2617ccc6205ce7d0d5ad57c0a488575c6b0b7c",
          "blockNumber": "0x4dd9b1",
          "transactionHash": "0xee1202088f27129069fcf463e2f20ec20297ec55a8c7bb9027c15fdfc71b8867",
          "transactionIndex": "0x21",
          "logIndex": "0x5b",
          "removed": false
        }
      ],
      "status": "0x1",
      "logsBloom": "0x00000000000000000000000000000000000000000000000000000000000000000000000000000000000000000000000000000000000000000000000040000000000000000000000000000000000000000000000000000000000000000000000000000000000000000000000000000000000000000008000000000000002000200000000000000000000000000000000000000000000000000000000000000000000000000000000000000000000000000000000000000000008020000000000000000000000000000000000000000000000000000000000000000000000000000000000000000000000000000000000000000000000000000000000000000000",
      "type": "0x2",
      "effectiveGasPrice": "0x1963447234"
    }
  ],
  "libraries": [],
  "pending": [],
  "returns": {},
  "timestamp": 1705492121,
  "chain": 11155111,
  "multi": false,
  "commit": "735668bb"
}