{
  "transactions": [
    {
      "hash": "0xabaa9c7e6f9a68b007a051447ad12623aac460d0e4aeee95a13fac3b3be7e0d2",
      "transactionType": "CALL",
      "contractName": "TestToken",
      "contractAddress": "0x159eA9B02bF05D87DDA0E064558897ef7392Aa13",
      "function": "setMinDstGas(uint16,uint16,uint256)",
      "arguments": [
        "10161",
        "0",
        "200000"
      ],
      "transaction": {
        "type": "0x02",
        "from": "0x2bf003ec9b7e2a5a8663d6b0475370738fa39825",
        "to": "0x159ea9b02bf05d87dda0e064558897ef7392aa13",
        "gas": "0x11275",
        "value": "0x0",
        "data": "0xdf2a5b3b00000000000000000000000000000000000000000000000000000000000027b100000000000000000000000000000000000000000000000000000000000000000000000000000000000000000000000000000000000000000000000000030d40",
        "nonce": "0x8",
        "accessList": []
      },
      "additionalContracts": [],
      "isFixedGasLimit": false
    }
  ],
  "receipts": [],
  "libraries": [],
  "pending": [
    "0xabaa9c7e6f9a68b007a051447ad12623aac460d0e4aeee95a13fac3b3be7e0d2"
  ],
  "returns": {},
  "timestamp": 1705497300,
  "chain": 11155111,
  "multi": false,
  "commit": "735668bb"
}