{
  "transactions": [
    {
      "hash": "0x1cf1c198b24e898883ca606063941374c34bc0a52fd3ab3e854b56f8811fb43e",
      "transactionType": "CALL",
      "contractName": "TestToken",
      "contractAddress": "0x159eA9B02bF05D87DDA0E064558897ef7392Aa13",
      "function": "setTrustedRemote(uint16,bytes)",
      "arguments": [
        "10161",
        "0x0adafb8574b3a59cf3176e1bd278c951c445d94d159ea9b02bf05d87dda0e064558897ef7392aa13"
      ],
      "transaction": {
        "type": "0x02",
        "from": "0x2bf003ec9b7e2a5a8663d6b0475370738fa39825",
        "to": "0x159ea9b02bf05d87dda0e064558897ef7392aa13",
        "gas": "0x21aaa",
        "value": "0x0",
        "data": "0xeb8d72b700000000000000000000000000000000000000000000000000000000000027b1000000000000000000000000000000000000000000000000000000000000004000000000000000000000000000000000000000000000000000000000000000280adafb8574b3a59cf3176e1bd278c951c445d94d159ea9b02bf05d87dda0e064558897ef7392aa13000000000000000000000000000000000000000000000000",
        "nonce": "0x7",
        "accessList": []
      },
      "additionalContracts": [],
      "isFixedGasLimit": false
    }
  ],
  "receipts": [],
  "libraries": [],
  "pending": [
    "0x1cf1c198b24e898883ca606063941374c34bc0a52fd3ab3e854b56f8811fb43e"
  ],
  "returns": {},
  "timestamp": 1705497047,
  "chain": 11155111,
  "multi": false,
  "commit": "735668bb"
}