{
  "transactions": [
    {
      "hash": "0x924417fa823a527bfdd4456f874d3dc34ff8ce6895d6460ab002788e1acce3c9",
      "transactionType": "CALL",
      "contractName": "TestToken",
      "contractAddress": "0x159eA9B02bF05D87DDA0E064558897ef7392Aa13",
      "function": "setMinDstGas(uint16,uint16,uint256)",
      "arguments": [
        "10121",
        "0",
        "2000000"
      ],
      "transaction": {
        "type": "0x02",
        "from": "0x2bf003ec9b7e2a5a8663d6b0475370738fa39825",
        "to": "0x159ea9b02bf05d87dda0e064558897ef7392aa13",
        "gas": "0xa6f1",
        "value": "0x0",
        "data": "0xdf2a5b3b0000000000000000000000000000000000000000000000000000000000002789000000000000000000000000000000000000000000000000000000000000000000000000000000000000000000000000000000000000000000000000001e8480",
        "nonce": "0xd",
        "accessList": []
      },
      "additionalContracts": [],
      "isFixedGasLimit": false
    }
  ],
  "receipts": [
    {
      "transactionHash": "0x924417fa823a527bfdd4456f874d3dc34ff8ce6895d6460ab002788e1acce3c9",
      "transactionIndex": "0x13",
      "blockHash": "0xe7d38455a36de6f110e314681355887aedbfbaa04cc21feffa2c843a1ca14c5d",
      "blockNumber": "0x4ddbd2",
      "from": "0x2BF003ec9B7e2a5A8663d6B0475370738FA39825",
      "to": "0x159eA9B02bF05D87DDA0E064558897ef7392Aa13",
      "cumulativeGasUsed": "0x128302",
      "gasUsed": "0x78de",
      "contractAddress": null,
      "logs": [
        {
          "address": "0x159eA9B02bF05D87DDA0E064558897ef7392Aa13",
          "topics": [
            "0x9d5c7c0b934da8fefa9c7760c98383778a12dfbfc0c3b3106518f43fb9508ac0"
          ],
          "data": "0x0000000000000000000000000000000000000000000000000000000000002789000000000000000000000000000000000000000000000000000000000000000000000000000000000000000000000000000000000000000000000000001e8480",
          "blockHash": "0xe7d38455a36de6f110e314681355887aedbfbaa04cc21feffa2c843a1ca14c5d",
          "blockNumber": "0x4ddbd2",
          "transactionHash": "0x924417fa823a527bfdd4456f874d3dc34ff8ce6895d6460ab002788e1acce3c9",
          "transactionIndex": "0x13",
          "logIndex": "0x15",
          "removed": false
        }
      ],
      "status": "0x1",
      "logsBloom": "0x00000000000000000000000000000000000000000000000000000000000000000000000000000000000000000000000000000000000000000000000000000000000000000000000000000000000000000000000000000000000000000000000000200000000000000000000000000000000000000000000000000000000000200000000000000000000000000000000000000000000000000000000000000000000000000000000000000000000000000000000000000000008020000000000000000000000000000000000000000000000000000000000000000000000000000000000000000000000000000000000000000000000000000000000000080020",
      "type": "0x2",
      "effectiveGasPrice": "0x594a661e8b"
    }
  ],
  "libraries": [],
  "pending": [],
  "returns": {},
  "timestamp": 1705499848,
  "chain": 11155111,
  "multi": false,
  "commit": "735668bb"
}