{
  "transactions": [
    {
      "hash": "0xa76badeac4f979d91c3a1373698672d47e5ae983fd267c9d90cb9f224e7e3367",
      "transactionType": "CALL",
      "contractName": "TestToken",
      "contractAddress": "0x0ADAFB8574b3a59cF3176e1bD278C951c445D94d",
      "function": "setMinDstGas(uint16,uint16,uint256)",
      "arguments": [
        "10121",
        "0",
        "200000"
      ],
      "transaction": {
        "type": "0x02",
        "from": "0x2bf003ec9b7e2a5a8663d6b0475370738fa39825",
        "to": "0x0adafb8574b3a59cf3176e1bd278c951c445d94d",
        "gas": "0x11275",
        "value": "0x0",
        "data": "0xdf2a5b3b000000000000000000000000000000000000000000000000000000000000278900000000000000000000000000000000000000000000000000000000000000000000000000000000000000000000000000000000000000000000000000030d40",
        "nonce": "0x12",
        "accessList": []
      },
      "additionalContracts": [],
      "isFixedGasLimit": false
    }
  ],
  "receipts": [],
  "libraries": [],
  "pending": [
    "0xa76badeac4f979d91c3a1373698672d47e5ae983fd267c9d90cb9f224e7e3367"
  ],
  "returns": {},
  "timestamp": 1705542843,
  "chain": 11155111,
  "multi": false,
  "commit": "735668bb"
}