{
  "transactions": [
    {
      "hash": "0x9684bf50de68d5eec33d72a583d2a2c85c796d3f9f5daa39daa94a4e70c2280c",
      "transactionType": "CALL",
      "contractName": "TestNFT",
      "contractAddress": "0xC9811821819581d1d7352bEfA8a60C66a4569F1a",
      "function": "setMinDstGas(uint16,uint16,uint256)",
      "arguments": [
        "10161",
        "0",
        "200000"
      ],
      "transaction": {
        "type": "0x02",
        "from": "0x2bf003ec9b7e2a5a8663d6b0475370738fa39825",
        "to": "0xc9811821819581d1d7352befa8a60c66a4569f1a",
        "gas": "0x11275",
        "value": "0x0",
        "data": "0xdf2a5b3b00000000000000000000000000000000000000000000000000000000000027b100000000000000000000000000000000000000000000000000000000000000000000000000000000000000000000000000000000000000000000000000030d40",
        "nonce": "0x1b",
        "accessList": []
      },
      "additionalContracts": [],
      "isFixedGasLimit": false
    }
  ],
  "receipts": [
    {
      "transactionHash": "0x9684bf50de68d5eec33d72a583d2a2c85c796d3f9f5daa39daa94a4e70c2280c",
      "transactionIndex": "0x5",
      "blockHash": "0xb26a125e8afad2d7290f0ad36f3081d6130716a891266af270570784d08cf349",
      "blockNumber": "0x9eaa4c",
      "from": "0x2BF003ec9B7e2a5A8663d6B0475370738FA39825",
      "to": "0xC9811821819581d1d7352bEfA8a60C66a4569F1a",
      "cumulativeGasUsed": "0x3ed1dc",
      "gasUsed": "0xbbaa",
      "contractAddress": null,
      "logs": [
        {
          "address": "0xC9811821819581d1d7352bEfA8a60C66a4569F1a",
          "topics": [
            "0x9d5c7c0b934da8fefa9c7760c98383778a12dfbfc0c3b3106518f43fb9508ac0"
          ],
          "data": "0x00000000000000000000000000000000000000000000000000000000000027b100000000000000000000000000000000000000000000000000000000000000000000000000000000000000000000000000000000000000000000000000030d40",
          "blockHash": "0xb26a125e8afad2d7290f0ad36f3081d6130716a891266af270570784d08cf349",
          "blockNumber": "0x9eaa4c",
          "transactionHash": "0x9684bf50de68d5eec33d72a583d2a2c85c796d3f9f5daa39daa94a4e70c2280c",
          "transactionIndex": "0x5",
          "logIndex": "0x54",
          "removed": false
        }
      ],
      "status": "0x1",
      "logsBloom": "0x00000000000000000000000000000000000000000000000000000000000000000000000000000000000000000000000000000000000000000000800000000000000000000000000000000010000000000000000000000000000000000000000000000000000000000000000000000000000000000000000000000000000000200000000000000000000000000000000000000000000000000000000000000000000000000000000000000000000000000000000000000000008020000000000000000000000000000000000000000000000000000000000000100000000000000000000000000000000000000000000000000000000000000000000000000000",
      "type": "0x2",
      "effectiveGasPrice": "0xb2d05e0a"
    }
  ],
  "libraries": [],
  "pending": [],
  "returns": {},
  "timestamp": 1705646117,
  "chain": 5,
  "multi": false,
  "commit": "57fff76b"
}