{
  "transactions": [
    {
      "hash": "0xe9a62d936a5c70f1dc0253c79a0cbed1bddf9f68c5b5f02247cce87d80f53d4e",
      "transactionType": "CALL",
      "contractName": "TestNFT",
      "contractAddress": "0x9ba3a554eA4ab7a72b83f5D5Ae5be7B9138De2a3",
      "function": "setTrustedRemote(uint16,bytes)",
      "arguments": [
        "10161",
        "0x21bb6bde0ba97c4a595d660df852c0579f14bac99ba3a554ea4ab7a72b83f5d5ae5be7b9138de2a3"
      ],
      "transaction": {
        "type": "0x02",
        "from": "0x2bf003ec9b7e2a5a8663d6b0475370738fa39825",
        "to": "0x9ba3a554ea4ab7a72b83f5d5ae5be7b9138de2a3",
        "gas": "0x21af2",
        "value": "0x0",
        "data": "0xeb8d72b700000000000000000000000000000000000000000000000000000000000027b10000000000000000000000000000000000000000000000000000000000000040000000000000000000000000000000000000000000000000000000000000002821bb6bde0ba97c4a595d660df852c0579f14bac99ba3a554ea4ab7a72b83f5d5ae5be7b9138de2a3000000000000000000000000000000000000000000000000",
        "nonce": "0x25",
        "accessList": []
      },
      "additionalContracts": [],
      "isFixedGasLimit": false
    }
  ],
  "receipts": [
    {
      "transactionHash": "0xe9a62d936a5c70f1dc0253c79a0cbed1bddf9f68c5b5f02247cce87d80f53d4e",
      "transactionIndex": "0x4",
      "blockHash": "0x48782b3d17062422a2ec742754b36dbcb404694297e5e0b01a96d43ff6c4dd0a",
      "blockNumber": "0x9eaf09",
      "from": "0x2BF003ec9B7e2a5A8663d6B0475370738FA39825",
      "to": "0x9ba3a554eA4ab7a72b83f5D5Ae5be7B9138De2a3",
      "cumulativeGasUsed": "0x8af40",
      "gasUsed": "0x17083",
      "contractAddress": null,
      "logs": [
        {
          "address": "0x9ba3a554eA4ab7a72b83f5D5Ae5be7B9138De2a3",
          "topics": [
            "0xfa41487ad5d6728f0b19276fa1eddc16558578f5109fc39d2dc33c3230470dab"
          ],
          "data": "0x00000000000000000000000000000000000000000000000000000000000027b10000000000000000000000000000000000000000000000000000000000000040000000000000000000000000000000000000000000000000000000000000002821bb6bde0ba97c4a595d660df852c0579f14bac99ba3a554ea4ab7a72b83f5d5ae5be7b9138de2a3000000000000000000000000000000000000000000000000",
          "blockHash": "0x48782b3d17062422a2ec742754b36dbcb404694297e5e0b01a96d43ff6c4dd0a",
          "blockNumber": "0x9eaf09",
          "transactionHash": "0xe9a62d936a5c70f1dc0253c79a0cbed1bddf9f68c5b5f02247cce87d80f53d4e",
          "transactionIndex": "0x4",
          "logIndex": "0x6",
          "removed": false
        }
      ],
      "status": "0x1",
      "logsBloom": "0x00000000000000000000000000000000000000000000000000000000000000000000000000000000000000000000000000000000000000000000000000000000000000000000000000000000000000000000000000000000000000000008000000000000000000000000000000000000000000000000000080000000000000000000000200000000000000000000000000000000000000000000000000000000000000000000000000000000000000400000000000000000000000000000000000000000000000000000000000000000000000000000000000000000000000000000000000000000000008800000000000000000000000000000000000000000",
      "type": "0x2",
      "effectiveGasPrice": "0xb2d05e09"
    }
  ],
  "libraries": [],
  "pending": [],
  "returns": {},
  "timestamp": 1705666441,
  "chain": 5,
  "multi": false,
  "commit": "38cddd9d"
}