{
  "transactions": [
    {
      "hash": "0x22aa7cb1acaea56b1bb0f563909fa369916d8ec566e4c98de3bdb44549167efe",
      "transactionType": "CALL",
      "contractName": "TestNFT",
      "contractAddress": "0xC9811821819581d1d7352bEfA8a60C66a4569F1a",
      "function": "setMinDstGas(uint16,uint16,uint256)",
      "arguments": [
        "10161",
        "0",
        "200000"
      ],
      "transaction": {
        "type": "0x02",
        "from": "0x2bf003ec9b7e2a5a8663d6b0475370738fa39825",
        "to": "0xc9811821819581d1d7352befa8a60c66a4569f1a",
        "gas": "0x97d6",
        "value": "0x0",
        "data": "0xdf2a5b3b00000000000000000000000000000000000000000000000000000000000027b100000000000000000000000000000000000000000000000000000000000000000000000000000000000000000000000000000000000000000000000000030d40",
        "nonce": "0x1c",
        "accessList": []
      },
      "additionalContracts": [],
      "isFixedGasLimit": false
    },
    {
      "hash": "0xb18c5c5dcfaa07f4ee2e8ba779b0d457ed684d58885faa696773b301558f4582",
      "transactionType": "CALL",
      "contractName": "TestNFT",
      "contractAddress": "0xC9811821819581d1d7352bEfA8a60C66a4569F1a",
      "function": "setMinDstGas(uint16,uint16,uint256)",
      "arguments": [
        "10161",
        "1",
        "200000"
      ],
      "transaction": {
        "type": "0x02",
        "from": "0x2bf003ec9b7e2a5a8663d6b0475370738fa39825",
        "to": "0xc9811821819581d1d7352befa8a60c66a4569f1a",
        "gas": "0x10346",
        "value": "0x0",
        "data": "0xdf2a5b3b00000000000000000000000000000000000000000000000000000000000027b100000000000000000000000000000000000000000000000000000000000000010000000000000000000000000000000000000000000000000000000000030d40",
        "nonce": "0x1d",
        "accessList": []
      },
      "additionalContracts": [],
      "isFixedGasLimit": false
    }
  ],
  "receipts": [
    {
      "transactionHash": "0x22aa7cb1acaea56b1bb0f563909fa369916d8ec566e4c98de3bdb44549167efe",
      "transactionIndex": "0x2",
      "blockHash": "0x332c1cb2f220bfea7d8514b29b58d4b3064f27d220ce788225bbf8d45a3bfcce",
      "blockNumber": "0x9eaa66",
      "from": "0x2BF003ec9B7e2a5A8663d6B0475370738FA39825",
      "to": "0xC9811821819581d1d7352bEfA8a60C66a4569F1a",
      "cumulativeGasUsed": "0x409ec",
      "gasUsed": "0x6dee",
      "contractAddress": null,
      "logs": [
        {
          "address": "0xC9811821819581d1d7352bEfA8a60C66a4569F1a",
          "topics": [
            "0x9d5c7c0b934da8fefa9c7760c98383778a12dfbfc0c3b3106518f43fb9508ac0"
          ],
          "data": "0x00000000000000000000000000000000000000000000000000000000000027b100000000000000000000000000000000000000000000000000000000000000000000000000000000000000000000000000000000000000000000000000030d40",
          "blockHash": "0x332c1cb2f220bfea7d8514b29b58d4b3064f27d220ce788225bbf8d45a3bfcce",
          "blockNumber": "0x9eaa66",
          "transactionHash": "0x22aa7cb1acaea56b1bb0f563909fa369916d8ec566e4c98de3bdb44549167efe",
          "transactionIndex": "0x2",
          "logIndex": "0x9",
          "removed": false
        }
      ],
      "status": "0x1",
      "logsBloom": "0x00000000000000000000000000000000000000000000000000000000000000000000000000000000000000000000000000000000000000000000800000000000000000000000000000000010000000000000000000000000000000000000000000000000000000000000000000000000000000000000000000000000000000200000000000000000000000000000000000000000000000000000000000000000000000000000000000000000000000000000000000000000008020000000000000000000000000000000000000000000000000000000000000100000000000000000000000000000000000000000000000000000000000000000000000000000",
      "type": "0x2",
      "effectiveGasPrice": "0xb2d05e09"
    },
    {
      "transactionHash": "0xb18c5c5dcfaa07f4ee2e8ba779b0d457ed684d58885faa696773b301558f4582",
      "transactionIndex": "0x3",
      "blockHash": "0x332c1cb2f220bfea7d8514b29b58d4b3064f27d220ce788225bbf8d45a3bfcce",
      "blockNumber": "0x9eaa66",
      "from": "0x2BF003ec9B7e2a5A8663d6B0475370738FA39825",
      "to": "0xC9811821819581d1d7352bEfA8a60C66a4569F1a",
      "cumulativeGasUsed": "0x4c5a2",
      "gasUsed": "0xbbb6",
      "contractAddress": null,
      "logs": [
        {
          "address": "0xC9811821819581d1d7352bEfA8a60C66a4569F1a",
          "topics": [
            "0x9d5c7c0b934da8fefa9c7760c98383778a12dfbfc0c3b3106518f43fb9508ac0"
          ],
          "data": "0x00000000000000000000000000000000000000000000000000000000000027b100000000000000000000000000000000000000000000000000000000000000010000000000000000000000000000000000000000000000000000000000030d40",
          "blockHash": "0x332c1cb2f220bfea7d8514b29b58d4b3064f27d220ce788225bbf8d45a3bfcce",
          "blockNumber": "0x9eaa66",
          "transactionHash": "0xb18c5c5dcfaa07f4ee2e8ba779b0d457ed684d58885faa696773b301558f4582",
          "transactionIndex": "0x3",
          "logIndex": "0xa",
          "removed": false
        }
      ],
      "status": "0x1",
      "logsBloom": "0x00000000000000000000000000000000000000000000000000000000000000000000000000000000000000000000000000000000000000000000800000000000000000000000000000000010000000000000000000000000000000000000000000000000000000000000000000000000000000000000000000000000000000200000000000000000000000000000000000000000000000000000000000000000000000000000000000000000000000000000000000000000008020000000000000000000000000000000000000000000000000000000000000100000000000000000000000000000000000000000000000000000000000000000000000000000",
      "type": "0x2",
      "effectiveGasPrice": "0xb2d05e09"
    }
  ],
  "libraries": [],
  "pending": [],
  "returns": {},
  "timestamp": 1705646546,
  "chain": 5,
  "multi": false,
  "commit": "57fff76b"
}