{
  "transactions": [
    {
      "hash": "0x04704588b0949986b5da983e3e8b032f7a12357f75b5e2771af10d5584db4ed9",
      "transactionType": "CALL",
      "contractName": "TestNFT",
      "contractAddress": "0x9ba3a554eA4ab7a72b83f5D5Ae5be7B9138De2a3",
      "function": "sendFrom(address,uint16,bytes,uint256,address,address,bytes)",
      "arguments": [
        "0x2BF003ec9B7e2a5A8663d6B0475370738FA39825",
        "10161",
        "0x2bf003ec9b7e2a5a8663d6b0475370738fa39825",
        "2",
        "0x2BF003ec9B7e2a5A8663d6B0475370738FA39825",
        "0x0000000000000000000000000000000000000000",
        "0x0001000000000000000000000000000000000000000000000000000000000003f7a0"
      ],
      "transaction": {
        "type": "0x02",
        "from": "0x2bf003ec9b7e2a5a8663d6b0475370738fa39825",
        "to": "0x9ba3a554ea4ab7a72b83f5d5ae5be7b9138de2a3",
        "gas": "0x64663",
        "value": "0x2cf08d7f72bec",
        "data": "0x519056360000000000000000000000002bf003ec9b7e2a5a8663d6b0475370738fa3982500000000000000000000000000000000000000000000000000000000000027b100000000000000000000000000000000000000000000000000000000000000e000000000000000000000000000000000000000000000000000000000000000020000000000000000000000002bf003ec9b7e2a5a8663d6b0475370738fa398250000000000000000000000000000000000000000000000000000000000000000000000000000000000000000000000000000000000000000000000000000012000000000000000000000000000000000000000000000000000000000000000142bf003ec9b7e2a5a8663d6b0475370738fa3982500000000000000000000000000000000000000000000000000000000000000000000000000000000000000220001000000000000000000000000000000000000000000000000000000000003f7a0000000000000000000000000000000000000000000000000000000000000",
        "nonce": "0x28",
        "accessList": []
      },
      "additionalContracts": [],
      "isFixedGasLimit": false
    }
  ],
  "receipts": [],
  "libraries": [],
  "pending": [
    "0x04704588b0949986b5da983e3e8b032f7a12357f75b5e2771af10d5584db4ed9"
  ],
  "returns": {},
  "timestamp": 1705668810,
  "chain": 5,
  "multi": false,
  "commit": "38cddd9d"
}