{
  "transactions": [
    {
      "hash": "0x04704588b0949986b5da983e3e8b032f7a12357f75b5e2771af10d5584db4ed9",
      "transactionType": "CALL",
      "contractName": "TestNFT",
      "contractAddress": "0x9ba3a554eA4ab7a72b83f5D5Ae5be7B9138De2a3",
      "function": "sendFrom(address,uint16,bytes,uint256,address,address,bytes)",
      "arguments": [
        "0x2BF003ec9B7e2a5A8663d6B0475370738FA39825",
        "10161",
        "0x2bf003ec9b7e2a5a8663d6b0475370738fa39825",
        "2",
        "0x2BF003ec9B7e2a5A8663d6B0475370738FA39825",
        "0x0000000000000000000000000000000000000000",
        "0x0001000000000000000000000000000000000000000000000000000000000003f7a0"
      ],
      "transaction": {
        "type": "0x02",
        "from": "0x2bf003ec9b7e2a5a8663d6b0475370738fa39825",
        "to": "0x9ba3a554ea4ab7a72b83f5d5ae5be7b9138de2a3",
        "gas": "0x64663",
        "value": "0x2cf08d7f72bec",
        "data": "0x519056360000000000000000000000002bf003ec9b7e2a5a8663d6b0475370738fa3982500000000000000000000000000000000000000000000000000000000000027b100000000000000000000000000000000000000000000000000000000000000e000000000000000000000000000000000000000000000000000000000000000020000000000000000000000002bf003ec9b7e2a5a8663d6b0475370738fa398250000000000000000000000000000000000000000000000000000000000000000000000000000000000000000000000000000000000000000000000000000012000000000000000000000000000000000000000000000000000000000000000142bf003ec9b7e2a5a8663d6b0475370738fa3982500000000000000000000000000000000000000000000000000000000000000000000000000000000000000220001000000000000000000000000000000000000000000000000000000000003f7a0000000000000000000000000000000000000000000000000000000000000",
        "nonce": "0x28",
        "accessList": []
      },
      "additionalContracts": [],
      "isFixedGasLimit": false
    }
  ],
  "receipts": [
    {
      "transactionHash": "0x04704588b0949986b5da983e3e8b032f7a12357f75b5e2771af10d5584db4ed9",
      "transactionIndex": "0xb",
      "blockHash": "0xc26bb66fdd9cdde42ee6499d68bbccf4987ec1c6ceeb48eb6f0399017340b838",
      "blockNumber": "0x9eaf96",
      "from": "0x2BF003ec9B7e2a5A8663d6B0475370738FA39825",
      "to": "0x9ba3a554eA4ab7a72b83f5D5Ae5be7B9138De2a3",
      "cumulativeGasUsed": "0x28a5ff",
      "gasUsed": "0x44a63",
      "contractAddress": null,
      "logs": [
        {
          "address": "0x9ba3a554eA4ab7a72b83f5D5Ae5be7B9138De2a3",
          "topics": [
            "0xddf252ad1be2c89b69c2b068fc378daa952ba7f163c4a11628f55a4df523b3ef",
            "0x0000000000000000000000002bf003ec9b7e2a5a8663d6b0475370738fa39825",
            "0x0000000000000000000000009ba3a554ea4ab7a72b83f5d5ae5be7b9138de2a3",
            "0x0000000000000000000000000000000000000000000000000000000000000002"
          ],
          "data": "0x",
          "blockHash": "0xc26bb66fdd9cdde42ee6499d68bbccf4987ec1c6ceeb48eb6f0399017340b838",
          "blockNumber": "0x9eaf96",
          "transactionHash": "0x04704588b0949986b5da983e3e8b032f7a12357f75b5e2771af10d5584db4ed9",
          "transactionIndex": "0xb",
          "logIndex": "0xf",
          "removed": false
        },
        {
          "address": "0xC9b7EDc65488bDBb428526B03935090aef40Ff03",
          "topics": [
            "0xdf21c415b78ed2552cc9971249e32a053abce6087a0ae0fbf3f78db5174a3493"
          ],
          "data": "0x000000000000000000000000000000000000000000000000000210a2d2ab04b9",
          "blockHash": "0xc26bb66fdd9cdde42ee6499d68bbccf4987ec1c6ceeb48eb6f0399017340b838",
          "blockNumber": "0x9eaf96",
          "transactionHash": "0x04704588b0949986b5da983e3e8b032f7a12357f75b5e2771af10d5584db4ed9",
          "transactionIndex": "0xb",
          "logIndex": "0x10",
          "removed": false
        },
        {
          "address": "0x6f3a314C1279148E53f51AF154817C3EF2C827B1",
          "topics": [
            "0xb0c632f55f1e1b3b2c3d82f41ee4716bb4c00f0f5d84cdafc141581bb8757a4f"
          ],
          "data": "0x0000000000000000000000000000000000000000000000000000000000000040000000000000000000000000000000000000000000000000000000000000000200000000000000000000000000000000000000000000000000000000000000220001000000000000000000000000000000000000000000000000000000000003f7a0000000000000000000000000000000000000000000000000000000000000",
          "blockHash": "0xc26bb66fdd9cdde42ee6499d68bbccf4987ec1c6ceeb48eb6f0399017340b838",
          "blockNumber": "0x9eaf96",
          "transactionHash": "0x04704588b0949986b5da983e3e8b032f7a12357f75b5e2771af10d5584db4ed9",
          "transactionIndex": "0xb",
          "logIndex": "0x11",
          "removed": false
        },
        {
          "address": "0x36Ebea3941907C438Ca8Ca2B1065dEef21CCdaeD",
          "topics": [
            "0x4e41ee13e03cd5e0446487b524fdc48af6acf26c074dacdbdfb6b574b42c8146"
          ],
          "data": "0x00000000000000000000000000000000000000000000000000000000000027b1000000000000000000000000000000000000000000000000000000000000000200000000000000000000000000000000000000000000000000000000000000030000000000000000000000009ba3a554ea4ab7a72b83f5d5ae5be7b9138de2a30000000000000000000000000000000000000000000000000000be66054c2733",
          "blockHash": "0xc26bb66fdd9cdde42ee6499d68bbccf4987ec1c6ceeb48eb6f0399017340b838",
          "blockNumber": "0x9eaf96",
          "transactionHash": "0x04704588b0949986b5da983e3e8b032f7a12357f75b5e2771af10d5584db4ed9",
          "transactionIndex": "0xb",
          "logIndex": "0x12",
          "removed": false
        },
        {
          "address": "0x6f3a314C1279148E53f51AF154817C3EF2C827B1",
          "topics": [
            "0xe9bded5f24a4168e4f3bf44e00298c993b22376aad8c58c7dda9718a54cbea82"
          ],
          "data": "0x000000000000000000000000000000000000000000000000000000000000002000000000000000000000000000000000000000000000000000000000000000f4000000000000000127899ba3a554ea4ab7a72b83f5d5ae5be7b9138de2a327b121bb6bde0ba97c4a595d660df852c0579f14bac90000000000000000000000000000000000000000000000000000000000000040000000000000000000000000000000000000000000000000000000000000008000000000000000000000000000000000000000000000000000000000000000142bf003ec9b7e2a5a8663d6b0475370738fa3982500000000000000000000000000000000000000000000000000000000000000000000000000000000000000010000000000000000000000000000000000000000000000000000000000000002000000000000000000000000",
          "blockHash": "0xc26bb66fdd9cdde42ee6499d68bbccf4987ec1c6ceeb48eb6f0399017340b838",
          "blockNumber": "0x9eaf96",
          "transactionHash": "0x04704588b0949986b5da983e3e8b032f7a12357f75b5e2771af10d5584db4ed9",
          "transactionIndex": "0xb",
          "logIndex": "0x13",
          "removed": false
        },
        {
          "address": "0x9ba3a554eA4ab7a72b83f5D5Ae5be7B9138De2a3",
          "topics": [
            "0xe1b87c47fdeb4f9cbadbca9df3af7aba453bb6e501075d0440d88125b711522a",
            "0x00000000000000000000000000000000000000000000000000000000000027b1",
            "0x0000000000000000000000002bf003ec9b7e2a5a8663d6b0475370738fa39825",
            "0xf9aa3f20445e210e44880dca14d968ce2b6f7b1a03bde5c8457081c55c5c1b38"
          ],
          "data": "0x000000000000000000000000000000000000000000000000000000000000002000000000000000000000000000000000000000000000000000000000000000010000000000000000000000000000000000000000000000000000000000000002",
          "blockHash": "0xc26bb66fdd9cdde42ee6499d68bbccf4987ec1c6ceeb48eb6f0399017340b838",
          "blockNumber": "0x9eaf96",
          "transactionHash": "0x04704588b0949986b5da983e3e8b032f7a12357f75b5e2771af10d5584db4ed9",
          "transactionIndex": "0xb",
          "logIndex": "0x14",
          "removed": false
        }
      ],
      "status": "0x1",
      "logsBloom": "0x04000000000000000000000000000000000040000000000200000000000000100000000002000004000000000000000000000000000000400000000000000000004000010000000008000018000800000004000000000000000000000000000000040000000000800000000000020000000000000000000000000010000000000000000400000000000000000000000000001000388000000000000000000440000000004000020100000100000000400000000000000000000000000000000000001002200008000000000001000000000000000000000000000000000000001080000000800000000008880000000000000000008000000040000000008000",
      "type": "0x2",
      "effectiveGasPrice": "0xb2d05e09"
    }
  ],
  "libraries": [],
  "pending": [],
  "returns": {},
  "timestamp": 1705668817,
  "chain": 5,
  "multi": false,
  "commit": "38cddd9d"
}