{
  "transactions": [
    {
      "hash": "0xb13b0e4ccf5ab42ce7815d3c52403884c15c4d100871bd05ae3f51b2a714811c",
      "transactionType": "CALL",
      "contractName": "TestNFT",
      "contractAddress": "0x9ba3a554eA4ab7a72b83f5D5Ae5be7B9138De2a3",
      "function": "setMinDstGas(uint16,uint16,uint256)",
      "arguments": [
        "10161",
        "0",
        "260000"
      ],
      "transaction": {
        "type": "0x02",
        "from": "0x2bf003ec9b7e2a5a8663d6b0475370738fa39825",
        "to": "0x9ba3a554ea4ab7a72b83f5d5ae5be7b9138de2a3",
        "gas": "0x11275",
        "value": "0x0",
        "data": "0xdf2a5b3b00000000000000000000000000000000000000000000000000000000000027b10000000000000000000000000000000000000000000000000000000000000000000000000000000000000000000000000000000000000000000000000003f7a0",
        "nonce": "0x26",
        "accessList": []
      },
      "additionalContracts": [],
      "isFixedGasLimit": false
    },
    {
      "hash": "0x35b8b1af1c98ad0ab261adc7a1bffa51223cab59fa8bf7d5650607c60a0068fe",
      "transactionType": "CALL",
      "contractName": "TestNFT",
      "contractAddress": "0x9ba3a554eA4ab7a72b83f5D5Ae5be7B9138De2a3",
      "function": "setMinDstGas(uint16,uint16,uint256)",
      "arguments": [
        "10161",
        "1",
        "260000"
      ],
      "transaction": {
        "type": "0x02",
        "from": "0x2bf003ec9b7e2a5a8663d6b0475370738fa39825",
        "to": "0x9ba3a554ea4ab7a72b83f5d5ae5be7b9138de2a3",
        "gas": "0x10346",
        "value": "0x0",
        "data": "0xdf2a5b3b00000000000000000000000000000000000000000000000000000000000027b10000000000000000000000000000000000000000000000000000000000000001000000000000000000000000000000000000000000000000000000000003f7a0",
        "nonce": "0x27",
        "accessList": []
      },
      "additionalContracts": [],
      "isFixedGasLimit": false
    }
  ],
  "receipts": [
    {
      "transactionHash": "0xb13b0e4ccf5ab42ce7815d3c52403884c15c4d100871bd05ae3f51b2a714811c",
      "transactionIndex": "0x2",
      "blockHash": "0x61002fe9da6fd3fed0807c57b549d25eb6c4945077513734e839647822bfc113",
      "blockNumber": "0x9eaf14",
      "from": "0x2BF003ec9B7e2a5A8663d6B0475370738FA39825",
      "to": "0x9ba3a554eA4ab7a72b83f5D5Ae5be7B9138De2a3",
      "cumulativeGasUsed": "0x6a46a",
      "gasUsed": "0xbbaa",
      "contractAddress": null,
      "logs": [
        {
          "address": "0x9ba3a554eA4ab7a72b83f5D5Ae5be7B9138De2a3",
          "topics": [
            "0x9d5c7c0b934da8fefa9c7760c98383778a12dfbfc0c3b3106518f43fb9508ac0"
          ],
          "data": "0x00000000000000000000000000000000000000000000000000000000000027b10000000000000000000000000000000000000000000000000000000000000000000000000000000000000000000000000000000000000000000000000003f7a0",
          "blockHash": "0x61002fe9da6fd3fed0807c57b549d25eb6c4945077513734e839647822bfc113",
          "blockNumber": "0x9eaf14",
          "transactionHash": "0xb13b0e4ccf5ab42ce7815d3c52403884c15c4d100871bd05ae3f51b2a714811c",
          "transactionIndex": "0x2",
          "logIndex": "0xc",
          "removed": false
        }
      ],
      "status": "0x1",
      "logsBloom": "0x00000000000000000000000000000000000000000000000000000000000000000000000000000000000000000000000000000000000000000000000000000000000000000000000000000000000000000000000000000000000000000000000000000000000000000000000000000000000000000000000000000000000000200000000000000000000000000000000000000000000000000000000000000000000000000000000000000000000000400000000000000000008020000000000000000000000000000000000000000000000000000000000000000000000000000000000000000000000008800000000000000000000000000000000000000000",
      "type": "0x2",
      "effectiveGasPrice": "0xb2d05e09"
    },
    {
      "transactionHash": "0x35b8b1af1c98ad0ab261adc7a1bffa51223cab59fa8bf7d5650607c60a0068fe",
      "transactionIndex": "0x3",
      "blockHash": "0x61002fe9da6fd3fed0807c57b549d25eb6c4945077513734e839647822bfc113",
      "blockNumber": "0x9eaf14",
      "from": "0x2BF003ec9B7e2a5A8663d6B0475370738FA39825",
      "to": "0x9ba3a554eA4ab7a72b83f5D5Ae5be7B9138De2a3",
      "cumulativeGasUsed": "0x76020",
      "gasUsed": "0xbbb6",
      "contractAddress": null,
      "logs": [
        {
          "address": "0x9ba3a554eA4ab7a72b83f5D5Ae5be7B9138De2a3",
          "topics": [
            "0x9d5c7c0b934da8fefa9c7760c98383778a12dfbfc0c3b3106518f43fb9508ac0"
          ],
          "data": "0x00000000000000000000000000000000000000000000000000000000000027b10000000000000000000000000000000000000000000000000000000000000001000000000000000000000000000000000000000000000000000000000003f7a0",
          "blockHash": "0x61002fe9da6fd3fed0807c57b549d25eb6c4945077513734e839647822bfc113",
          "blockNumber": "0x9eaf14",
          "transactionHash": "0x35b8b1af1c98ad0ab261adc7a1bffa51223cab59fa8bf7d5650607c60a0068fe",
          "transactionIndex": "0x3",
          "logIndex": "0xd",
          "removed": false
        }
      ],
      "status": "0x1",
      "logsBloom": "0x00000000000000000000000000000000000000000000000000000000000000000000000000000000000000000000000000000000000000000000000000000000000000000000000000000000000000000000000000000000000000000000000000000000000000000000000000000000000000000000000000000000000000200000000000000000000000000000000000000000000000000000000000000000000000000000000000000000000000400000000000000000008020000000000000000000000000000000000000000000000000000000000000000000000000000000000000000000000008800000000000000000000000000000000000000000",
      "type": "0x2",
      "effectiveGasPrice": "0xb2d05e09"
    }
  ],
  "libraries": [],
  "pending": [],
  "returns": {},
  "timestamp": 1705666612,
  "chain": 5,
  "multi": false,
  "commit": "38cddd9d"
}