{
  "transactions": [
    {
      "hash": "0xa258e234da1ec8c60fb9b7ac8b15068df1da469bb571792a8276adb659f585b1",
      "transactionType": "CALL",
      "contractName": "TestNFT",
      "contractAddress": "0xC9811821819581d1d7352bEfA8a60C66a4569F1a",
      "function": "setMinDstGas(uint16,uint16,uint256)",
      "arguments": [
        "10121",
        "0",
        "200000"
      ],
      "transaction": {
        "type": "0x02",
        "from": "0x2bf003ec9b7e2a5a8663d6b0475370738fa39825",
        "to": "0xc9811821819581d1d7352befa8a60c66a4569f1a",
        "gas": "0x11275",
        "value": "0x0",
        "data": "0xdf2a5b3b000000000000000000000000000000000000000000000000000000000000278900000000000000000000000000000000000000000000000000000000000000000000000000000000000000000000000000000000000000000000000000030d40",
        "nonce": "0x1a",
        "accessList": []
      },
      "additionalContracts": [],
      "isFixedGasLimit": false
    }
  ],
  "receipts": [],
  "libraries": [],
  "pending": [
    "0xa258e234da1ec8c60fb9b7ac8b15068df1da469bb571792a8276adb659f585b1"
  ],
  "returns": {},
  "timestamp": 1705643127,
  "chain": 5,
  "multi": false,
  "commit": "57fff76b"
}