{
  "transactions": [
    {
      "hash": "0xd10c829f51b5a82881d9da24c329f5440515538adbe6630ef4918ebd816e5d21",
      "transactionType": "CALL",
      "contractName": "TestNFT",
      "contractAddress": "0x9922E648F1Af6B6f6c9E32c896Bce8C693747901",
      "function": "setMinDstGas(uint16,uint16,uint256)",
      "arguments": [
        "10161",
        "0",
        "260000"
      ],
      "transaction": {
        "type": "0x02",
        "from": "0x2bf003ec9b7e2a5a8663d6b0475370738fa39825",
        "to": "0x9922e648f1af6b6f6c9e32c896bce8c693747901",
        "gas": "0x11275",
        "value": "0x0",
        "data": "0xdf2a5b3b00000000000000000000000000000000000000000000000000000000000027b10000000000000000000000000000000000000000000000000000000000000000000000000000000000000000000000000000000000000000000000000003f7a0",
        "nonce": "0x20",
        "accessList": []
      },
      "additionalContracts": [],
      "isFixedGasLimit": false
    },
    {
      "hash": "0xf9550c8d0466875f8d8ead12a84d925d83e611f82997272b0d88c3998d3107ed",
      "transactionType": "CALL",
      "contractName": "TestNFT",
      "contractAddress": "0x9922E648F1Af6B6f6c9E32c896Bce8C693747901",
      "function": "setMinDstGas(uint16,uint16,uint256)",
      "arguments": [
        "10161",
        "1",
        "260000"
      ],
      "transaction": {
        "type": "0x02",
        "from": "0x2bf003ec9b7e2a5a8663d6b0475370738fa39825",
        "to": "0x9922e648f1af6b6f6c9e32c896bce8c693747901",
        "gas": "0x10346",
        "value": "0x0",
        "data": "0xdf2a5b3b00000000000000000000000000000000000000000000000000000000000027b10000000000000000000000000000000000000000000000000000000000000001000000000000000000000000000000000000000000000000000000000003f7a0",
        "nonce": "0x21",
        "accessList": []
      },
      "additionalContracts": [],
      "isFixedGasLimit": false
    }
  ],
  "receipts": [
    {
      "transactionHash": "0xd10c829f51b5a82881d9da24c329f5440515538adbe6630ef4918ebd816e5d21",
      "transactionIndex": "0x1",
      "blockHash": "0x7adc203635561ae32c1a3d99af80d4078714d0983d11c36a2a6fa384488b761a",
      "blockNumber": "0x9eac2e",
      "from": "0x2BF003ec9B7e2a5A8663d6B0475370738FA39825",
      "to": "0x9922E648F1Af6B6f6c9E32c896Bce8C693747901",
      "cumulativeGasUsed": "0x2ab38",
      "gasUsed": "0xbbaa",
      "contractAddress": null,
      "logs": [
        {
          "address": "0x9922E648F1Af6B6f6c9E32c896Bce8C693747901",
          "topics": [
            "0x9d5c7c0b934da8fefa9c7760c98383778a12dfbfc0c3b3106518f43fb9508ac0"
          ],
          "data": "0x00000000000000000000000000000000000000000000000000000000000027b10000000000000000000000000000000000000000000000000000000000000000000000000000000000000000000000000000000000000000000000000003f7a0",
          "blockHash": "0x7adc203635561ae32c1a3d99af80d4078714d0983d11c36a2a6fa384488b761a",
          "blockNumber": "0x9eac2e",
          "transactionHash": "0xd10c829f51b5a82881d9da24c329f5440515538adbe6630ef4918ebd816e5d21",
          "transactionIndex": "0x1",
          "logIndex": "0x5",
          "removed": false
        }
      ],
      "status": "0x1",
      "logsBloom": "0x00000000000000000000000000000000000000000000000000000000000000000000000000000000000000000000000000000000000000000000000000000000000000000000000000000000000000000000000000000010000000000000000000000000000000000000000000000000000000000000000000000000000000200000000000000000000000000000000000000000000000000000000000000000000000000000000000000000000000000000000000000000008020000000000000000000000000000000000000000000000000000000000200000000000001000000000000000000000000000000000000000000000000000000000000000000",
      "type": "0x2",
      "effectiveGasPrice": "0xb2d05e08"
    },
    {
      "transactionHash": "0xf9550c8d0466875f8d8ead12a84d925d83e611f82997272b0d88c3998d3107ed",
      "transactionIndex": "0x2",
      "blockHash": "0x7adc203635561ae32c1a3d99af80d4078714d0983d11c36a2a6fa384488b761a",
      "blockNumber": "0x9eac2e",
      "from": "0x2BF003ec9B7e2a5A8663d6B0475370738FA39825",
      "to": "0x9922E648F1Af6B6f6c9E32c896Bce8C693747901",
      "cumulativeGasUsed": "0x366ee",
      "gasUsed": "0xbbb6",
      "contractAddress": null,
      "logs": [
        {
          "address": "0x9922E648F1Af6B6f6c9E32c896Bce8C693747901",
          "topics": [
            "0x9d5c7c0b934da8fefa9c7760c98383778a12dfbfc0c3b3106518f43fb9508ac0"
          ],
          "data": "0x00000000000000000000000000000000000000000000000000000000000027b10000000000000000000000000000000000000000000000000000000000000001000000000000000000000000000000000000000000000000000000000003f7a0",
          "blockHash": "0x7adc203635561ae32c1a3d99af80d4078714d0983d11c36a2a6fa384488b761a",
          "blockNumber": "0x9eac2e",
          "transactionHash": "0xf9550c8d0466875f8d8ead12a84d925d83e611f82997272b0d88c3998d3107ed",
          "transactionIndex": "0x2",
          "logIndex": "0x6",
          "removed": false
        }
      ],
      "status": "0x1",
      "logsBloom": "0x00000000000000000000000000000000000000000000000000000000000000000000000000000000000000000000000000000000000000000000000000000000000000000000000000000000000000000000000000000010000000000000000000000000000000000000000000000000000000000000000000000000000000200000000000000000000000000000000000000000000000000000000000000000000000000000000000000000000000000000000000000000008020000000000000000000000000000000000000000000000000000000000200000000000001000000000000000000000000000000000000000000000000000000000000000000",
      "type": "0x2",
      "effectiveGasPrice": "0xb2d05e08"
    }
  ],
  "libraries": [],
  "pending": [],
  "returns": {},
  "timestamp": 1705654404,
  "chain": 5,
  "multi": false,
  "commit": "57fff76b"
}