{
  "transactions": [
    {
      "hash": "0xa258e234da1ec8c60fb9b7ac8b15068df1da469bb571792a8276adb659f585b1",
      "transactionType": "CALL",
      "contractName": "TestNFT",
      "contractAddress": "0xC9811821819581d1d7352bEfA8a60C66a4569F1a",
      "function": "setMinDstGas(uint16,uint16,uint256)",
      "arguments": [
        "10121",
        "0",
        "200000"
      ],
      "transaction": {
        "type": "0x02",
        "from": "0x2bf003ec9b7e2a5a8663d6b0475370738fa39825",
        "to": "0xc9811821819581d1d7352befa8a60c66a4569f1a",
        "gas": "0x11275",
        "value": "0x0",
        "data": "0xdf2a5b3b000000000000000000000000000000000000000000000000000000000000278900000000000000000000000000000000000000000000000000000000000000000000000000000000000000000000000000000000000000000000000000030d40",
        "nonce": "0x1a",
        "accessList": []
      },
      "additionalContracts": [],
      "isFixedGasLimit": false
    }
  ],
  "receipts": [
    {
      "transactionHash": "0xa258e234da1ec8c60fb9b7ac8b15068df1da469bb571792a8276adb659f585b1",
      "transactionIndex": "0x5",
      "blockHash": "0x4f357949c21578eb33440c0066057c864363e39c1ab92a6efc9dc10cb42626c3",
      "blockNumber": "0x9ea99c",
      "from": "0x2BF003ec9B7e2a5A8663d6B0475370738FA39825",
      "to": "0xC9811821819581d1d7352bEfA8a60C66a4569F1a",
      "cumulativeGasUsed": "0x47e02",
      "gasUsed": "0xbbaa",
      "contractAddress": null,
      "logs": [
        {
          "address": "0xC9811821819581d1d7352bEfA8a60C66a4569F1a",
          "topics": [
            "0x9d5c7c0b934da8fefa9c7760c98383778a12dfbfc0c3b3106518f43fb9508ac0"
          ],
          "data": "0x000000000000000000000000000000000000000000000000000000000000278900000000000000000000000000000000000000000000000000000000000000000000000000000000000000000000000000000000000000000000000000030d40",
          "blockHash": "0x4f357949c21578eb33440c0066057c864363e39c1ab92a6efc9dc10cb42626c3",
          "blockNumber": "0x9ea99c",
          "transactionHash": "0xa258e234da1ec8c60fb9b7ac8b15068df1da469bb571792a8276adb659f585b1",
          "transactionIndex": "0x5",
          "logIndex": "0x5",
          "removed": false
        }
      ],
      "status": "0x1",
      "logsBloom": "0x00000000000000000000000000000000000000000000000000000000000000000000000000000000000000000000000000000000000000000000800000000000000000000000000000000010000000000000000000000000000000000000000000000000000000000000000000000000000000000000000000000000000000200000000000000000000000000000000000000000000000000000000000000000000000000000000000000000000000000000000000000000008020000000000000000000000000000000000000000000000000000000000000100000000000000000000000000000000000000000000000000000000000000000000000000000",
      "type": "0x2",
      "effectiveGasPrice": "0xb2d05e09"
    }
  ],
  "libraries": [],
  "pending": [],
  "returns": {},
  "timestamp": 1705643134,
  "chain": 5,
  "multi": false,
  "commit": "57fff76b"
}