{
  "transactions": [
    {
      "hash": "0x4621165fa8971224334ce4280502ab97da478cb9d9c9aba0bc44fd17b8620423",
      "transactionType": "CALL",
      "contractName": "TestNFT",
      "contractAddress": "0x9922E648F1Af6B6f6c9E32c896Bce8C693747901",
      "function": "setTrustedRemote(uint16,bytes)",
      "arguments": [
        "10161",
        "0x15ae41e237c524c8150134375ede3ccb725dabf89922e648f1af6b6f6c9e32c896bce8c693747901"
      ],
      "transaction": {
        "type": "0x02",
        "from": "0x2bf003ec9b7e2a5a8663d6b0475370738fa39825",
        "to": "0x9922e648f1af6b6f6c9e32c896bce8c693747901",
        "gas": "0x21af2",
        "value": "0x0",
        "data": "0xeb8d72b700000000000000000000000000000000000000000000000000000000000027b10000000000000000000000000000000000000000000000000000000000000040000000000000000000000000000000000000000000000000000000000000002815ae41e237c524c8150134375ede3ccb725dabf89922e648f1af6b6f6c9e32c896bce8c693747901000000000000000000000000000000000000000000000000",
        "nonce": "0x1f",
        "accessList": []
      },
      "additionalContracts": [],
      "isFixedGasLimit": false
    }
  ],
  "receipts": [
    {
      "transactionHash": "0x4621165fa8971224334ce4280502ab97da478cb9d9c9aba0bc44fd17b8620423",
      "transactionIndex": "0x1",
      "blockHash": "0x86d9d18c64b10c706d3bd1d28269529f5177f088816693c37c237033d09cdfd8",
      "blockNumber": "0x9eac23",
      "from": "0x2BF003ec9B7e2a5A8663d6B0475370738FA39825",
      "to": "0x9922E648F1Af6B6f6c9E32c896Bce8C693747901",
      "cumulativeGasUsed": "0x36011",
      "gasUsed": "0x17083",
      "contractAddress": null,
      "logs": [
        {
          "address": "0x9922E648F1Af6B6f6c9E32c896Bce8C693747901",
          "topics": [
            "0xfa41487ad5d6728f0b19276fa1eddc16558578f5109fc39d2dc33c3230470dab"
          ],
          "data": "0x00000000000000000000000000000000000000000000000000000000000027b10000000000000000000000000000000000000000000000000000000000000040000000000000000000000000000000000000000000000000000000000000002815ae41e237c524c8150134375ede3ccb725dabf89922e648f1af6b6f6c9e32c896bce8c693747901000000000000000000000000000000000000000000000000",
          "blockHash": "0x86d9d18c64b10c706d3bd1d28269529f5177f088816693c37c237033d09cdfd8",
          "blockNumber": "0x9eac23",
          "transactionHash": "0x4621165fa8971224334ce4280502ab97da478cb9d9c9aba0bc44fd17b8620423",
          "transactionIndex": "0x1",
          "logIndex": "0x5",
          "removed": false
        }
      ],
      "status": "0x1",
      "logsBloom": "0x00000000000000000000000000000000000000000000000000000000000000000000000000000000000000000000000000000000000000000000000000000000000000000000000000000000000000000000000000000010000000000008000000000000000000000000000000000000000000000000000080000000000000000000000200000000000000000000000000000000000000000000000000000000000000000000000000000000000000000000000000000000000000000000000000000000000000000000000000000000000000000000000200000000000001000000000000000000000000000000000000000000000000000000000000000000",
      "type": "0x2",
      "effectiveGasPrice": "0xb2d05e08"
    }
  ],
  "libraries": [],
  "pending": [],
  "returns": {},
  "timestamp": 1705654227,
  "chain": 5,
  "multi": false,
  "commit": "57fff76b"
}