{
  "transactions": [
    {
      "hash": "0xf5cece55049cb155fe5c757389ae1d2c53c479d58c3b7d451d75cf1e2a8b01dc",
      "transactionType": "CALL",
      "contractName": "TestNFT",
      "contractAddress": "0xC9811821819581d1d7352bEfA8a60C66a4569F1a",
      "function": "setTrustedRemote(uint16,bytes)",
      "arguments": [
        "10161",
        "0x4a28022ed61910b4dc3dbf0522a0847d5dcc3a58c9811821819581d1d7352befa8a60c66a4569f1a"
      ],
      "transaction": {
        "type": "0x02",
        "from": "0x2bf003ec9b7e2a5a8663d6b0475370738fa39825",
        "to": "0xc9811821819581d1d7352befa8a60c66a4569f1a",
        "gas": "0x21af2",
        "value": "0x0",
        "data": "0xeb8d72b700000000000000000000000000000000000000000000000000000000000027b1000000000000000000000000000000000000000000000000000000000000004000000000000000000000000000000000000000000000000000000000000000284a28022ed61910b4dc3dbf0522a0847d5dcc3a58c9811821819581d1d7352befa8a60c66a4569f1a000000000000000000000000000000000000000000000000",
        "nonce": "0x19",
        "accessList": []
      },
      "additionalContracts": [],
      "isFixedGasLimit": false
    }
  ],
  "receipts": [],
  "libraries": [],
  "pending": [
    "0xf5cece55049cb155fe5c757389ae1d2c53c479d58c3b7d451d75cf1e2a8b01dc"
  ],
  "returns": {},
  "timestamp": 1705642837,
  "chain": 5,
  "multi": false,
  "commit": "57fff76b"
}