{
  "transactions": [
    {
      "hash": "0xf5cece55049cb155fe5c757389ae1d2c53c479d58c3b7d451d75cf1e2a8b01dc",
      "transactionType": "CALL",
      "contractName": "TestNFT",
      "contractAddress": "0xC9811821819581d1d7352bEfA8a60C66a4569F1a",
      "function": "setTrustedRemote(uint16,bytes)",
      "arguments": [
        "10161",
        "0x4a28022ed61910b4dc3dbf0522a0847d5dcc3a58c9811821819581d1d7352befa8a60c66a4569f1a"
      ],
      "transaction": {
        "type": "0x02",
        "from": "0x2bf003ec9b7e2a5a8663d6b0475370738fa39825",
        "to": "0xc9811821819581d1d7352befa8a60c66a4569f1a",
        "gas": "0x21af2",
        "value": "0x0",
        "data": "0xeb8d72b700000000000000000000000000000000000000000000000000000000000027b1000000000000000000000000000000000000000000000000000000000000004000000000000000000000000000000000000000000000000000000000000000284a28022ed61910b4dc3dbf0522a0847d5dcc3a58c9811821819581d1d7352befa8a60c66a4569f1a000000000000000000000000000000000000000000000000",
        "nonce": "0x19",
        "accessList": []
      },
      "additionalContracts": [],
      "isFixedGasLimit": false
    }
  ],
  "receipts": [
    {
      "transactionHash": "0xf5cece55049cb155fe5c757389ae1d2c53c479d58c3b7d451d75cf1e2a8b01dc",
      "transactionIndex": "0x5",
      "blockHash": "0x2831cc4103c89d1fddc8caba6361b5aadc8b9600fa050b6fb2928cd477ecebdb",
      "blockNumber": "0x9ea989",
      "from": "0x2BF003ec9B7e2a5A8663d6B0475370738FA39825",
      "to": "0xC9811821819581d1d7352bEfA8a60C66a4569F1a",
      "cumulativeGasUsed": "0xb8612",
      "gasUsed": "0x17083",
      "contractAddress": null,
      "logs": [
        {
          "address": "0xC9811821819581d1d7352bEfA8a60C66a4569F1a",
          "topics": [
            "0xfa41487ad5d6728f0b19276fa1eddc16558578f5109fc39d2dc33c3230470dab"
          ],
          "data": "0x00000000000000000000000000000000000000000000000000000000000027b1000000000000000000000000000000000000000000000000000000000000004000000000000000000000000000000000000000000000000000000000000000284a28022ed61910b4dc3dbf0522a0847d5dcc3a58c9811821819581d1d7352befa8a60c66a4569f1a000000000000000000000000000000000000000000000000",
          "blockHash": "0x2831cc4103c89d1fddc8caba6361b5aadc8b9600fa050b6fb2928cd477ecebdb",
          "blockNumber": "0x9ea989",
          "transactionHash": "0xf5cece55049cb155fe5c757389ae1d2c53c479d58c3b7d451d75cf1e2a8b01dc",
          "transactionIndex": "0x5",
          "logIndex": "0x9",
          "removed": false
        }
      ],
      "status": "0x1",
      "logsBloom": "0x00000000000000000000000000000000000000000000000000000000000000000000000000000000000000000000000000000000000000000000800000000000000000000000000000000010000000000000000000000000000000000008000000000000000000000000000000000000000000000000000080000000000000000000000200000000000000000000000000000000000000000000000000000000000000000000000000000000000000000000000000000000000000000000000000000000000000000000000000000000000000000000000000100000000000000000000000000000000000000000000000000000000000000000000000000000",
      "type": "0x2",
      "effectiveGasPrice": "0xb2d05e08"
    }
  ],
  "libraries": [],
  "pending": [],
  "returns": {},
  "timestamp": 1705642863,
  "chain": 5,
  "multi": false,
  "commit": "57fff76b"
}