{
  "transactions": [
    {
      "hash": "0x22aa7cb1acaea56b1bb0f563909fa369916d8ec566e4c98de3bdb44549167efe",
      "transactionType": "CALL",
      "contractName": "TestNFT",
      "contractAddress": "0xC9811821819581d1d7352bEfA8a60C66a4569F1a",
      "function": "setMinDstGas(uint16,uint16,uint256)",
      "arguments": [
        "10161",
        "0",
        "200000"
      ],
      "transaction": {
        "type": "0x02",
        "from": "0x2bf003ec9b7e2a5a8663d6b0475370738fa39825",
        "to": "0xc9811821819581d1d7352befa8a60c66a4569f1a",
        "gas": "0x97d6",
        "value": "0x0",
        "data": "0xdf2a5b3b00000000000000000000000000000000000000000000000000000000000027b100000000000000000000000000000000000000000000000000000000000000000000000000000000000000000000000000000000000000000000000000030d40",
        "nonce": "0x1c",
        "accessList": []
      },
      "additionalContracts": [],
      "isFixedGasLimit": false
    },
    {
      "hash": "0xb18c5c5dcfaa07f4ee2e8ba779b0d457ed684d58885faa696773b301558f4582",
      "transactionType": "CALL",
      "contractName": "TestNFT",
      "contractAddress": "0xC9811821819581d1d7352bEfA8a60C66a4569F1a",
      "function": "setMinDstGas(uint16,uint16,uint256)",
      "arguments": [
        "10161",
        "1",
        "200000"
      ],
      "transaction": {
        "type": "0x02",
        "from": "0x2bf003ec9b7e2a5a8663d6b0475370738fa39825",
        "to": "0xc9811821819581d1d7352befa8a60c66a4569f1a",
        "gas": "0x10346",
        "value": "0x0",
        "data": "0xdf2a5b3b00000000000000000000000000000000000000000000000000000000000027b100000000000000000000000000000000000000000000000000000000000000010000000000000000000000000000000000000000000000000000000000030d40",
        "nonce": "0x1d",
        "accessList": []
      },
      "additionalContracts": [],
      "isFixedGasLimit": false
    }
  ],
  "receipts": [],
  "libraries": [],
  "pending": [
    "0x22aa7cb1acaea56b1bb0f563909fa369916d8ec566e4c98de3bdb44549167efe",
    "0xb18c5c5dcfaa07f4ee2e8ba779b0d457ed684d58885faa696773b301558f4582"
  ],
  "returns": {},
  "timestamp": 1705646520,
  "chain": 5,
  "multi": false,
  "commit": "57fff76b"
}