{
  "transactions": [
    {
      "hash": "0x899f0ad9c162ba7eb9048f3de612103efcc9358184bc8e7d87fbf55a6493167f",
      "transactionType": "CALL",
      "contractName": "TestNFT",
      "contractAddress": "0x4a28022eD61910B4Dc3dbf0522A0847d5Dcc3a58",
      "function": "setMinDstGas(uint16,uint16,uint256)",
      "arguments": [
        "10121",
        "0",
        "200000"
      ],
      "transaction": {
        "type": "0x02",
        "from": "0x2bf003ec9b7e2a5a8663d6b0475370738fa39825",
        "to": "0x4a28022ed61910b4dc3dbf0522a0847d5dcc3a58",
        "gas": "0x11275",
        "value": "0x0",
        "data": "0xdf2a5b3b000000000000000000000000000000000000000000000000000000000000278900000000000000000000000000000000000000000000000000000000000000000000000000000000000000000000000000000000000000000000000000030d40",
        "nonce": "0x1e",
        "accessList": []
      },
      "additionalContracts": [],
      "isFixedGasLimit": false
    }
  ],
  "receipts": [
    {
      "transactionHash": "0x899f0ad9c162ba7eb9048f3de612103efcc9358184bc8e7d87fbf55a6493167f",
      "transactionIndex": "0x19",
      "blockHash": "0xf6a2cc1ae26bc922e8f6a3da90c43d8b6edb52d2ed53207ad0c45eb0622b945b",
      "blockNumber": "0x4e02f5",
      "from": "0x2BF003ec9B7e2a5A8663d6B0475370738FA39825",
      "to": "0x4a28022eD61910B4Dc3dbf0522A0847d5Dcc3a58",
      "cumulativeGasUsed": "0x129906",
      "gasUsed": "0xbbaa",
      "contractAddress": null,
      "logs": [
        {
          "address": "0x4a28022eD61910B4Dc3dbf0522A0847d5Dcc3a58",
          "topics": [
            "0x9d5c7c0b934da8fefa9c7760c98383778a12dfbfc0c3b3106518f43fb9508ac0"
          ],
          "data": "0x000000000000000000000000000000000000000000000000000000000000278900000000000000000000000000000000000000000000000000000000000000000000000000000000000000000000000000000000000000000000000000030d40",
          "blockHash": "0xf6a2cc1ae26bc922e8f6a3da90c43d8b6edb52d2ed53207ad0c45eb0622b945b",
          "blockNumber": "0x4e02f5",
          "transactionHash": "0x899f0ad9c162ba7eb9048f3de612103efcc9358184bc8e7d87fbf55a6493167f",
          "transactionIndex": "0x19",
          "logIndex": "0x5",
          "removed": false
        }
      ],
      "status": "0x1",
      "logsBloom": "0x00000000000000000000000000000000000000000000000000000000000000000000000000000000000000000000000100000000000000000000000000000000000000000000000000000000000000000000000000000000000000000000000000000000000000000000000000000000000000000000000000000000000000200000000000000010000000000000000000000000000000000000000000000000000000000000000000000000000000000000000000000000008020000000000000000000000000000000010000000000000000000000000000000000000000000000000000000000000000000000000000000000000000000000000000000000",
      "type": "0x2",
      "effectiveGasPrice": "0xf677fa53"
    }
  ],
  "libraries": [],
  "pending": [],
  "returns": {},
  "timestamp": 1705643094,
  "chain": 11155111,
  "multi": false,
  "commit": "57fff76b"
}