{
  "transactions": [
    {
      "hash": "0x782ebb61f4a584bf88b9f736f1637e219453c5a1beaa4ef49b88de22d32dcd11",
      "transactionType": "CALL",
      "contractName": "TestNFT",
      "contractAddress": "0x15aE41e237c524c8150134375EdE3cCB725DAbF8",
      "function": "setTrustedRemote(uint16,bytes)",
      "arguments": [
        "10121",
        "0x9922e648f1af6b6f6c9e32c896bce8c69374790115ae41e237c524c8150134375ede3ccb725dabf8"
      ],
      "transaction": {
        "type": "0x02",
        "from": "0x2bf003ec9b7e2a5a8663d6b0475370738fa39825",
        "to": "0x15ae41e237c524c8150134375ede3ccb725dabf8",
        "gas": "0x21af2",
        "value": "0x0",
        "data": "0xeb8d72b70000000000000000000000000000000000000000000000000000000000002789000000000000000000000000000000000000000000000000000000000000004000000000000000000000000000000000000000000000000000000000000000289922e648f1af6b6f6c9e32c896bce8c69374790115ae41e237c524c8150134375ede3ccb725dabf8000000000000000000000000000000000000000000000000",
        "nonce": "0x29",
        "accessList": []
      },
      "additionalContracts": [],
      "isFixedGasLimit": false
    }
  ],
  "receipts": [
    {
      "transactionHash": "0x782ebb61f4a584bf88b9f736f1637e219453c5a1beaa4ef49b88de22d32dcd11",
      "transactionIndex": "0x60",
      "blockHash": "0x5d69205b06626f388647ab47cc5c7801ece18ac7dcb4bd7197ee15149c5bb55d",
      "blockNumber": "0x4e05fd",
      "from": "0x2BF003ec9B7e2a5A8663d6B0475370738FA39825",
      "to": "0x15aE41e237c524c8150134375EdE3cCB725DAbF8",
      "cumulativeGasUsed": "0xbbc563",
      "gasUsed": "0x17083",
      "contractAddress": null,
      "logs": [
        {
          "address": "0x15aE41e237c524c8150134375EdE3cCB725DAbF8",
          "topics": [
            "0xfa41487ad5d6728f0b19276fa1eddc16558578f5109fc39d2dc33c3230470dab"
          ],
          "data": "0x0000000000000000000000000000000000000000000000000000000000002789000000000000000000000000000000000000000000000000000000000000004000000000000000000000000000000000000000000000000000000000000000289922e648f1af6b6f6c9e32c896bce8c69374790115ae41e237c524c8150134375ede3ccb725dabf8000000000000000000000000000000000000000000000000",
          "blockHash": "0x5d69205b06626f388647ab47cc5c7801ece18ac7dcb4bd7197ee15149c5bb55d",
          "blockNumber": "0x4e05fd",
          "transactionHash": "0x782ebb61f4a584bf88b9f736f1637e219453c5a1beaa4ef49b88de22d32dcd11",
          "transactionIndex": "0x60",
          "logIndex": "0xcb",
          "removed": false
        }
      ],
      "status": "0x1",
      "logsBloom": "0x00000000000000000000000000000000000000000000000000000000000000000000000000000000000000000000000000000000000000000000000000000000000000000000000000000000000000000000000000000000000000000008000000000000000000000000000000000000000000000000000080000000000000000000000200000000000000000000000000000000000000000000000000000000000000000000000000000000000000000000000000000000000000000000000000000000040000000000000000000000000000000000000000000000000000000000000000000000000020000000000000000000010000000000000000000000",
      "type": "0x2",
      "effectiveGasPrice": "0x21c68f96e"
    }
  ],
  "libraries": [],
  "pending": [],
  "returns": {},
  "timestamp": 1705654156,
  "chain": 11155111,
  "multi": false,
  "commit": "57fff76b"
}