{
  "transactions": [
    {
      "hash": "0xe91921ead593b4c59c67898855cd8279bca495bda8d9a635d78aa7aadb679405",
      "transactionType": "CALL",
      "contractName": "TestNFT",
      "contractAddress": "0x21Bb6Bde0bA97c4a595d660DF852C0579F14bAc9",
      "function": "mint(uint256)",
      "arguments": [
        "1"
      ],
      "transaction": {
        "type": "0x02",
        "from": "0x2bf003ec9b7e2a5a8663d6b0475370738fa39825",
        "to": "0x21bb6bde0ba97c4a595d660df852c0579f14bac9",
        "gas": "0x170f0",
        "value": "0x0",
        "data": "0xa0712d680000000000000000000000000000000000000000000000000000000000000001",
        "nonce": "0x37",
        "accessList": []
      },
      "additionalContracts": [],
      "isFixedGasLimit": false
    },
    {
      "hash": "0x8571cdacaeca153aaec312771bb4bf1f1defe30df6e0556d6f9720c3be306633",
      "transactionType": "CALL",
      "contractName": "TestNFT",
      "contractAddress": "0x21Bb6Bde0bA97c4a595d660DF852C0579F14bAc9",
      "function": "approve(address,uint256)",
      "arguments": [
        "0x21Bb6Bde0bA97c4a595d660DF852C0579F14bAc9",
        "1"
      ],
      "transaction": {
        "type": "0x02",
        "from": "0x2bf003ec9b7e2a5a8663d6b0475370738fa39825",
        "to": "0x21bb6bde0ba97c4a595d660df852c0579f14bac9",
        "gas": "0x1078c",
        "value": "0x0",
        "data": "0x095ea7b300000000000000000000000021bb6bde0ba97c4a595d660df852c0579f14bac90000000000000000000000000000000000000000000000000000000000000001",
        "nonce": "0x38",
        "accessList": []
      },
      "additionalContracts": [],
      "isFixedGasLimit": false
    }
  ],
  "receipts": [
    {
      "transactionHash": "0xe91921ead593b4c59c67898855cd8279bca495bda8d9a635d78aa7aadb679405",
      "transactionIndex": "0x19",
      "blockHash": "0x8f2d53067f04d17a67c3f548dd07e1c171d28983ab97cdfd16d57d410739b9fc",
      "blockNumber": "0x4e09ba",
      "from": "0x2BF003ec9B7e2a5A8663d6B0475370738FA39825",
      "to": "0x21Bb6Bde0bA97c4a595d660DF852C0579F14bAc9",
      "cumulativeGasUsed": "0x1f601e",
      "gasUsed": "0x10b1c",
      "contractAddress": null,
      "logs": [
        {
          "address": "0x21Bb6Bde0bA97c4a595d660DF852C0579F14bAc9",
          "topics": [
            "0xddf252ad1be2c89b69c2b068fc378daa952ba7f163c4a11628f55a4df523b3ef",
            "0x0000000000000000000000000000000000000000000000000000000000000000",
            "0x0000000000000000000000002bf003ec9b7e2a5a8663d6b0475370738fa39825",
            "0x0000000000000000000000000000000000000000000000000000000000000001"
          ],
          "data": "0x",
          "blockHash": "0x8f2d53067f04d17a67c3f548dd07e1c171d28983ab97cdfd16d57d410739b9fc",
          "blockNumber": "0x4e09ba",
          "transactionHash": "0xe91921ead593b4c59c67898855cd8279bca495bda8d9a635d78aa7aadb679405",
          "transactionIndex": "0x19",
          "logIndex": "0x22",
          "removed": false
        }
      ],
      "status": "0x1",
      "logsBloom": "0x00000000000000000000000000000000000000000000000000000000000000000000000008080000000000000000000000000000000000000000000100040000000000000000000000000008000000000000000000040000000000000000000000000000020000000000000000000800000000000000000000000010000000000000000000000000000000000000000000001000008000000000000000000000000000000000000000000000000000000000000000000000000000000000000000000002000000000000000001000000000000000000000000000000000060000000000000000000000000000000000000000000000000000000000000000000",
      "type": "0x2",
      "effectiveGasPrice": "0xde3b6daf"
    },
    {
      "transactionHash": "0x8571cdacaeca153aaec312771bb4bf1f1defe30df6e0556d6f9720c3be306633",
      "transactionIndex": "0x1a",
      "blockHash": "0x8f2d53067f04d17a67c3f548dd07e1c171d28983ab97cdfd16d57d410739b9fc",
      "blockNumber": "0x4e09ba",
      "from": "0x2BF003ec9B7e2a5A8663d6B0475370738FA39825",
      "to": "0x21Bb6Bde0bA97c4a595d660DF852C0579F14bAc9",
      "cumulativeGasUsed": "0x201eed",
      "gasUsed": "0xbecf",
      "contractAddress": null,
      "logs": [
        {
          "address": "0x21Bb6Bde0bA97c4a595d660DF852C0579F14bAc9",
          "topics": [
            "0x8c5be1e5ebec7d5bd14f71427d1e84f3dd0314c0f7b2291e5b200ac8c7c3b925",
            "0x0000000000000000000000002bf003ec9b7e2a5a8663d6b0475370738fa39825",
            "0x00000000000000000000000021bb6bde0ba97c4a595d660df852c0579f14bac9",
            "0x0000000000000000000000000000000000000000000000000000000000000001"
          ],
          "data": "0x",
          "blockHash": "0x8f2d53067f04d17a67c3f548dd07e1c171d28983ab97cdfd16d57d410739b9fc",
          "blockNumber": "0x4e09ba",
          "transactionHash": "0x8571cdacaeca153aaec312771bb4bf1f1defe30df6e0556d6f9720c3be306633",
          "transactionIndex": "0x1a",
          "logIndex": "0x23",
          "removed": false
        }
      ],
      "status": "0x1",
      "logsBloom": "0x00000000000000000000000000000000000000000000000000000000000000000000000008080000000000000000000000000000000000000000000100240000000000000000000000000000000000000000000000040000000000000000000000000000000000000000000000002000000000000000000000000000000000000000000000200000000000000000000000001000008000000000000000000000020000000000000000000000000000000000000000000001000000000000000000000000000000000000000001000000000000000000000000000000000040000010000000000000000000000000000000000000000000000000000000000000",
      "type": "0x2",
      "effectiveGasPrice": "0xde3b6daf"
    }
  ],
  "libraries": [],
  "pending": [],
  "returns": {},
  "timestamp": 1705667413,
  "chain": 11155111,
  "multi": false,
  "commit": "38cddd9d"
}