{
  "transactions": [
    {
      "hash": "0x782ebb61f4a584bf88b9f736f1637e219453c5a1beaa4ef49b88de22d32dcd11",
      "transactionType": "CALL",
      "contractName": "TestNFT",
      "contractAddress": "0x15aE41e237c524c8150134375EdE3cCB725DAbF8",
      "function": "setTrustedRemote(uint16,bytes)",
      "arguments": [
        "10121",
        "0x9922e648f1af6b6f6c9e32c896bce8c69374790115ae41e237c524c8150134375ede3ccb725dabf8"
      ],
      "transaction": {
        "type": "0x02",
        "from": "0x2bf003ec9b7e2a5a8663d6b0475370738fa39825",
        "to": "0x15ae41e237c524c8150134375ede3ccb725dabf8",
        "gas": "0x21af2",
        "value": "0x0",
        "data": "0xeb8d72b70000000000000000000000000000000000000000000000000000000000002789000000000000000000000000000000000000000000000000000000000000004000000000000000000000000000000000000000000000000000000000000000289922e648f1af6b6f6c9e32c896bce8c69374790115ae41e237c524c8150134375ede3ccb725dabf8000000000000000000000000000000000000000000000000",
        "nonce": "0x29",
        "accessList": []
      },
      "additionalContracts": [],
      "isFixedGasLimit": false
    }
  ],
  "receipts": [],
  "libraries": [],
  "pending": [
    "0x782ebb61f4a584bf88b9f736f1637e219453c5a1beaa4ef49b88de22d32dcd11"
  ],
  "returns": {},
  "timestamp": 1705654136,
  "chain": 11155111,
  "multi": false,
  "commit": "57fff76b"
}