{
  "transactions": [
    {
      "hash": "0x1590ea426d6277036b2dd48ff59ee21e654b1ff6fd4f64356cac7c09198554f7",
      "transactionType": "CALL",
      "contractName": "TestNFT",
      "contractAddress": "0x4a28022eD61910B4Dc3dbf0522A0847d5Dcc3a58",
      "function": "setTrustedRemote(uint16,bytes)",
      "arguments": [
        "10121",
        "0xc9811821819581d1d7352befa8a60c66a4569f1a4a28022ed61910b4dc3dbf0522a0847d5dcc3a58"
      ],
      "transaction": {
        "type": "0x02",
        "from": "0x2bf003ec9b7e2a5a8663d6b0475370738fa39825",
        "to": "0x4a28022ed61910b4dc3dbf0522a0847d5dcc3a58",
        "gas": "0x21af2",
        "value": "0x0",
        "data": "0xeb8d72b7000000000000000000000000000000000000000000000000000000000000278900000000000000000000000000000000000000000000000000000000000000400000000000000000000000000000000000000000000000000000000000000028c9811821819581d1d7352befa8a60c66a4569f1a4a28022ed61910b4dc3dbf0522a0847d5dcc3a58000000000000000000000000000000000000000000000000",
        "nonce": "0x1c",
        "accessList": []
      },
      "additionalContracts": [],
      "isFixedGasLimit": false
    }
  ],
  "receipts": [
    {
      "transactionHash": "0x1590ea426d6277036b2dd48ff59ee21e654b1ff6fd4f64356cac7c09198554f7",
      "transactionIndex": "0x1b",
      "blockHash": "0x1353e4ce7bcfd9696a164c7c0153cdb0b763954d174881245f8c31b322f79ccf",
      "blockNumber": "0x4e02e3",
      "from": "0x2BF003ec9B7e2a5A8663d6B0475370738FA39825",
      "to": "0x4a28022eD61910B4Dc3dbf0522A0847d5Dcc3a58",
      "cumulativeGasUsed": "0xc8127",
      "gasUsed": "0x17083",
      "contractAddress": null,
      "logs": [
        {
          "address": "0x4a28022eD61910B4Dc3dbf0522A0847d5Dcc3a58",
          "topics": [
            "0xfa41487ad5d6728f0b19276fa1eddc16558578f5109fc39d2dc33c3230470dab"
          ],
          "data": "0x000000000000000000000000000000000000000000000000000000000000278900000000000000000000000000000000000000000000000000000000000000400000000000000000000000000000000000000000000000000000000000000028c9811821819581d1d7352befa8a60c66a4569f1a4a28022ed61910b4dc3dbf0522a0847d5dcc3a58000000000000000000000000000000000000000000000000",
          "blockHash": "0x1353e4ce7bcfd9696a164c7c0153cdb0b763954d174881245f8c31b322f79ccf",
          "blockNumber": "0x4e02e3",
          "transactionHash": "0x1590ea426d6277036b2dd48ff59ee21e654b1ff6fd4f64356cac7c09198554f7",
          "transactionIndex": "0x1b",
          "logIndex": "0x4",
          "removed": false
        }
      ],
      "status": "0x1",
      "logsBloom": "0x00000000000000000000000000000000000000000000000000000000000000000000000000000000000000000000000100000000000000000000000000000000000000000000000000000000000000000000000000000000000000000008000000000000000000000000000000000000000000000000000080000000000000000000000200000010000000000000000000000000000000000000000000000000000000000000000000000000000000000000000000000000000000000000000000000000000000000000010000000000000000000000000000000000000000000000000000000000000000000000000000000000000000000000000000000000",
      "type": "0x2",
      "effectiveGasPrice": "0xf3c9237a"
    }
  ],
  "libraries": [],
  "pending": [],
  "returns": {},
  "timestamp": 1705642800,
  "chain": 11155111,
  "multi": false,
  "commit": "57fff76b"
}