{
  "transactions": [
    {
      "hash": "0xb60f7353788bfd389e2ff2c3eef37927a7770db9750ba5565752fadf42cb528d",
      "transactionType": "CALL",
      "contractName": "TestNFT",
      "contractAddress": "0x4a28022eD61910B4Dc3dbf0522A0847d5Dcc3a58",
      "function": "mint(uint256)",
      "arguments": [
        "1"
      ],
      "transaction": {
        "type": "0x02",
        "from": "0x2bf003ec9b7e2a5a8663d6b0475370738fa39825",
        "to": "0x4a28022ed61910b4dc3dbf0522a0847d5dcc3a58",
        "gas": "0x170f0",
        "value": "0x0",
        "data": "0xa0712d680000000000000000000000000000000000000000000000000000000000000001",
        "nonce": "0x25",
        "accessList": []
      },
      "additionalContracts": [],
      "isFixedGasLimit": false
    },
    {
      "hash": "0xbfe3005dbad78be6936857168af29e9b5c28157ff8bc7eb0cbaf6eaf83971d0f",
      "transactionType": "CALL",
      "contractName": "TestNFT",
      "contractAddress": "0x4a28022eD61910B4Dc3dbf0522A0847d5Dcc3a58",
      "function": "approve(address,uint256)",
      "arguments": [
        "0x4a28022eD61910B4Dc3dbf0522A0847d5Dcc3a58",
        "1"
      ],
      "transaction": {
        "type": "0x02",
        "from": "0x2bf003ec9b7e2a5a8663d6b0475370738fa39825",
        "to": "0x4a28022ed61910b4dc3dbf0522a0847d5dcc3a58",
        "gas": "0x1078c",
        "value": "0x0",
        "data": "0x095ea7b30000000000000000000000004a28022ed61910b4dc3dbf0522a0847d5dcc3a580000000000000000000000000000000000000000000000000000000000000001",
        "nonce": "0x26",
        "accessList": []
      },
      "additionalContracts": [],
      "isFixedGasLimit": false
    }
  ],
  "receipts": [
    {
      "transactionHash": "0xb60f7353788bfd389e2ff2c3eef37927a7770db9750ba5565752fadf42cb528d",
      "transactionIndex": "0x16",
      "blockHash": "0x00964fb24b8c0724b9057dd4539dafeaea5cf5f29624211840a5e6ec67af71e5",
      "blockNumber": "0x4e0450",
      "from": "0x2BF003ec9B7e2a5A8663d6B0475370738FA39825",
      "to": "0x4a28022eD61910B4Dc3dbf0522A0847d5Dcc3a58",
      "cumulativeGasUsed": "0x151559",
      "gasUsed": "0x10b1c",
      "contractAddress": null,
      "logs": [
        {
          "address": "0x4a28022eD61910B4Dc3dbf0522A0847d5Dcc3a58",
          "topics": [
            "0xddf252ad1be2c89b69c2b068fc378daa952ba7f163c4a11628f55a4df523b3ef",
            "0x0000000000000000000000000000000000000000000000000000000000000000",
            "0x0000000000000000000000002bf003ec9b7e2a5a8663d6b0475370738fa39825",
            "0x0000000000000000000000000000000000000000000000000000000000000001"
          ],
          "data": "0x",
          "blockHash": "0x00964fb24b8c0724b9057dd4539dafeaea5cf5f29624211840a5e6ec67af71e5",
          "blockNumber": "0x4e0450",
          "transactionHash": "0xb60f7353788bfd389e2ff2c3eef37927a7770db9750ba5565752fadf42cb528d",
          "transactionIndex": "0x16",
          "logIndex": "0x5",
          "removed": false
        }
      ],
      "status": "0x1",
      "logsBloom": "0x00000000000000000000000000000000000000000000000000000000000000000000000000000000000000000000000100000000000000000000000000040000000000000000000000000008000000000000000000040000000000000000000000000000020000000000000000000800000000000000000000000010000000000000000000000010000000000000000000001000008000000000000000000000000000000000000000000000000000000000000000000000000000000000000000000002000000000000010001000000000000000000000000000000000060000000000000000000000000000000000000000000000000000000000000000000",
      "type": "0x2",
      "effectiveGasPrice": "0xbdac06d3"
    },
    {
      "transactionHash": "0xbfe3005dbad78be6936857168af29e9b5c28157ff8bc7eb0cbaf6eaf83971d0f",
      "transactionIndex": "0x17",
      "blockHash": "0x00964fb24b8c0724b9057dd4539dafeaea5cf5f29624211840a5e6ec67af71e5",
      "blockNumber": "0x4e0450",
      "from": "0x2BF003ec9B7e2a5A8663d6B0475370738FA39825",
      "to": "0x4a28022eD61910B4Dc3dbf0522A0847d5Dcc3a58",
      "cumulativeGasUsed": "0x15d428",
      "gasUsed": "0xbecf",
      "contractAddress": null,
      "logs": [
        {
          "address": "0x4a28022eD61910B4Dc3dbf0522A0847d5Dcc3a58",
          "topics": [
            "0x8c5be1e5ebec7d5bd14f71427d1e84f3dd0314c0f7b2291e5b200ac8c7c3b925",
            "0x0000000000000000000000002bf003ec9b7e2a5a8663d6b0475370738fa39825",
            "0x0000000000000000000000004a28022ed61910b4dc3dbf0522a0847d5dcc3a58",
            "0x0000000000000000000000000000000000000000000000000000000000000001"
          ],
          "data": "0x",
          "blockHash": "0x00964fb24b8c0724b9057dd4539dafeaea5cf5f29624211840a5e6ec67af71e5",
          "blockNumber": "0x4e0450",
          "transactionHash": "0xbfe3005dbad78be6936857168af29e9b5c28157ff8bc7eb0cbaf6eaf83971d0f",
          "transactionIndex": "0x17",
          "logIndex": "0x6",
          "removed": false
        }
      ],
      "status": "0x1",
      "logsBloom": "0x00000000000000000000000000000000000000000000000000000000000004000000000000000000000000000000000100000000000000000000000000240000000000000000000000000000001000000000000000040000000000000000000000000000000000000000000000000000000000000000000000000000000000000000000000000010000000000000000000001000008000000000000000000000020000000000000000000000000000000000000000000020000000000000000000000000000000000000010001000000000000000000000000000000000040000010000000000000000000000000000000000000000000000000000000000000",
      "type": "0x2",
      "effectiveGasPrice": "0xbdac06d3"
    }
  ],
  "libraries": [],
  "pending": [],
  "returns": {},
  "timestamp": 1705647951,
  "chain": 11155111,
  "multi": false,
  "commit": "57fff76b"
}