{
  "transactions": [
    {
      "hash": "0x5b6d9960f3ea9c6ce14a17696886dc9d7efa8f5982c6185f665c4598d44a46d1",
      "transactionType": "CALL",
      "contractName": "TestNFT",
      "contractAddress": "0x21Bb6Bde0bA97c4a595d660DF852C0579F14bAc9",
      "function": "mint(uint256)",
      "arguments": [
        "2"
      ],
      "transaction": {
        "type": "0x02",
        "from": "0x2bf003ec9b7e2a5a8663d6b0475370738fa39825",
        "to": "0x21bb6bde0ba97c4a595d660df852c0579f14bac9",
        "gas": "0x170f0",
        "value": "0x0",
        "data": "0xa0712d680000000000000000000000000000000000000000000000000000000000000002",
        "nonce": "0x3a",
        "accessList": []
      },
      "additionalContracts": [],
      "isFixedGasLimit": false
    },
    {
      "hash": "0x8d8daeb208af37c5e22036a0aa7118bdf1a24d2f27200d1e1252ac4f6db0340d",
      "transactionType": "CALL",
      "contractName": "TestNFT",
      "contractAddress": "0x21Bb6Bde0bA97c4a595d660DF852C0579F14bAc9",
      "function": "approve(address,uint256)",
      "arguments": [
        "0x21Bb6Bde0bA97c4a595d660DF852C0579F14bAc9",
        "2"
      ],
      "transaction": {
        "type": "0x02",
        "from": "0x2bf003ec9b7e2a5a8663d6b0475370738fa39825",
        "to": "0x21bb6bde0ba97c4a595d660df852c0579f14bac9",
        "gas": "0x1078c",
        "value": "0x0",
        "data": "0x095ea7b300000000000000000000000021bb6bde0ba97c4a595d660df852c0579f14bac90000000000000000000000000000000000000000000000000000000000000002",
        "nonce": "0x3b",
        "accessList": []
      },
      "additionalContracts": [],
      "isFixedGasLimit": false
    }
  ],
  "receipts": [
    {
      "transactionHash": "0x5b6d9960f3ea9c6ce14a17696886dc9d7efa8f5982c6185f665c4598d44a46d1",
      "transactionIndex": "0x77",
      "blockHash": "0x6cc90b35ef5226874b2dc7a96424dbc7a274d19ea4d3f2f3802a432b276740f5",
      "blockNumber": "0x4e09f9",
      "from": "0x2BF003ec9B7e2a5A8663d6B0475370738FA39825",
      "to": "0x21Bb6Bde0bA97c4a595d660DF852C0579F14bAc9",
      "cumulativeGasUsed": "0x6551ee",
      "gasUsed": "0x10b1c",
      "contractAddress": null,
      "logs": [
        {
          "address": "0x21Bb6Bde0bA97c4a595d660DF852C0579F14bAc9",
          "topics": [
            "0xddf252ad1be2c89b69c2b068fc378daa952ba7f163c4a11628f55a4df523b3ef",
            "0x0000000000000000000000000000000000000000000000000000000000000000",
            "0x0000000000000000000000002bf003ec9b7e2a5a8663d6b0475370738fa39825",
            "0x0000000000000000000000000000000000000000000000000000000000000002"
          ],
          "data": "0x",
          "blockHash": "0x6cc90b35ef5226874b2dc7a96424dbc7a274d19ea4d3f2f3802a432b276740f5",
          "blockNumber": "0x4e09f9",
          "transactionHash": "0x5b6d9960f3ea9c6ce14a17696886dc9d7efa8f5982c6185f665c4598d44a46d1",
          "transactionIndex": "0x77",
          "logIndex": "0x53",
          "removed": false
        }
      ],
      "status": "0x1",
      "logsBloom": "0x04000000000000000000000000000000000000000000000000000000000000000000000008080000000000000000000000000000000000000000000100000000000000000000000000000008000000000000000000000000000000000000000000000000020000000000000000000800000000000000000000000010000000000000000000000000000000000000000000001000008000000000000000000000000000000000000000000100000000000000000000000000000000000000000000000002000000000000000001000000000000000000000000000000000020000000000000000000000000000000000000000000008000000000000000000000",
      "type": "0x2",
      "effectiveGasPrice": "0xd6156fe6"
    },
    {
      "transactionHash": "0x8d8daeb208af37c5e22036a0aa7118bdf1a24d2f27200d1e1252ac4f6db0340d",
      "transactionIndex": "0x78",
      "blockHash": "0x6cc90b35ef5226874b2dc7a96424dbc7a274d19ea4d3f2f3802a432b276740f5",
      "blockNumber": "0x4e09f9",
      "from": "0x2BF003ec9B7e2a5A8663d6B0475370738FA39825",
      "to": "0x21Bb6Bde0bA97c4a595d660DF852C0579F14bAc9",
      "cumulativeGasUsed": "0x6610bd",
      "gasUsed": "0xbecf",
      "contractAddress": null,
      "logs": [
        {
          "address": "0x21Bb6Bde0bA97c4a595d660DF852C0579F14bAc9",
          "topics": [
            "0x8c5be1e5ebec7d5bd14f71427d1e84f3dd0314c0f7b2291e5b200ac8c7c3b925",
            "0x0000000000000000000000002bf003ec9b7e2a5a8663d6b0475370738fa39825",
            "0x00000000000000000000000021bb6bde0ba97c4a595d660df852c0579f14bac9",
            "0x0000000000000000000000000000000000000000000000000000000000000002"
          ],
          "data": "0x",
          "blockHash": "0x6cc90b35ef5226874b2dc7a96424dbc7a274d19ea4d3f2f3802a432b276740f5",
          "blockNumber": "0x4e09f9",
          "transactionHash": "0x8d8daeb208af37c5e22036a0aa7118bdf1a24d2f27200d1e1252ac4f6db0340d",
          "transactionIndex": "0x78",
          "logIndex": "0x54",
          "removed": false
        }
      ],
      "status": "0x1",
      "logsBloom": "0x04000000000000000000000000000000000000000000000000000000000000000000000008080000000000000000000000000000000000000000000100200000000000000000000000000000000000000000000000000000000000000000000000000000000000000000000000002000000000000000000000000000000000000000000000200000000000000000000000001000008000000000000000000000020000000000000000000100000000000000000000000001000000000000000000000000000000000000000001000000000000000000000000000000000000000010000000000000000000000000000000000000008000000000000000000000",
      "type": "0x2",
      "effectiveGasPrice": "0xd6156fe6"
    }
  ],
  "libraries": [],
  "pending": [],
  "returns": {},
  "timestamp": 1705668278,
  "chain": 11155111,
  "multi": false,
  "commit": "38cddd9d"
}