{
  "transactions": [
    {
      "hash": "0xbe9c7d2c62858ed2dbf0240848a0e4772d9f2251f4edaf2dffc4377de4319180",
      "transactionType": "CALL",
      "contractName": "TestNFT",
      "contractAddress": "0x15aE41e237c524c8150134375EdE3cCB725DAbF8",
      "function": "setMinDstGas(uint16,uint16,uint256)",
      "arguments": [
        "10121",
        "0",
        "260000"
      ],
      "transaction": {
        "type": "0x02",
        "from": "0x2bf003ec9b7e2a5a8663d6b0475370738fa39825",
        "to": "0x15ae41e237c524c8150134375ede3ccb725dabf8",
        "gas": "0x11275",
        "value": "0x0",
        "data": "0xdf2a5b3b00000000000000000000000000000000000000000000000000000000000027890000000000000000000000000000000000000000000000000000000000000000000000000000000000000000000000000000000000000000000000000003f7a0",
        "nonce": "0x2a",
        "accessList": []
      },
      "additionalContracts": [],
      "isFixedGasLimit": false
    },
    {
      "hash": "0x78e36d60f6745e02450dcda207ac32aa3ae66c5f1da85bfd1e5d58e86c6509ab",
      "transactionType": "CALL",
      "contractName": "TestNFT",
      "contractAddress": "0x15aE41e237c524c8150134375EdE3cCB725DAbF8",
      "function": "setMinDstGas(uint16,uint16,uint256)",
      "arguments": [
        "10121",
        "1",
        "260000"
      ],
      "transaction": {
        "type": "0x02",
        "from": "0x2bf003ec9b7e2a5a8663d6b0475370738fa39825",
        "to": "0x15ae41e237c524c8150134375ede3ccb725dabf8",
        "gas": "0x10346",
        "value": "0x0",
        "data": "0xdf2a5b3b00000000000000000000000000000000000000000000000000000000000027890000000000000000000000000000000000000000000000000000000000000001000000000000000000000000000000000000000000000000000000000003f7a0",
        "nonce": "0x2b",
        "accessList": []
      },
      "additionalContracts": [],
      "isFixedGasLimit": false
    }
  ],
  "receipts": [
    {
      "transactionHash": "0xbe9c7d2c62858ed2dbf0240848a0e4772d9f2251f4edaf2dffc4377de4319180",
      "transactionIndex": "0x41",
      "blockHash": "0x3654558a5a7ae17328b3d95762275004e02e41b29cc4df9aaea2b550fd85ea77",
      "blockNumber": "0x4e060d",
      "from": "0x2BF003ec9B7e2a5A8663d6B0475370738FA39825",
      "to": "0x15aE41e237c524c8150134375EdE3cCB725DAbF8",
      "cumulativeGasUsed": "0x8e745d",
      "gasUsed": "0xbbaa",
      "contractAddress": null,
      "logs": [
        {
          "address": "0x15aE41e237c524c8150134375EdE3cCB725DAbF8",
          "topics": [
            "0x9d5c7c0b934da8fefa9c7760c98383778a12dfbfc0c3b3106518f43fb9508ac0"
          ],
          "data": "0x00000000000000000000000000000000000000000000000000000000000027890000000000000000000000000000000000000000000000000000000000000000000000000000000000000000000000000000000000000000000000000003f7a0",
          "blockHash": "0x3654558a5a7ae17328b3d95762275004e02e41b29cc4df9aaea2b550fd85ea77",
          "blockNumber": "0x4e060d",
          "transactionHash": "0xbe9c7d2c62858ed2dbf0240848a0e4772d9f2251f4edaf2dffc4377de4319180",
          "transactionIndex": "0x41",
          "logIndex": "0x92",
          "removed": false
        }
      ],
      "status": "0x1",
      "logsBloom": "0x00000000000000000000000000000000000000000000000000000000000000000000000000000000000000000000000000000000000000000000000000000000000000000000000000000000000000000000000000000000000000000000000000000000000000000000000000000000000000000000000000000000000000200000000000000000000000000000000000000000000000000000000000000000000000000000000000000000000000000000000000000000008020000000000000000000040000000000000000000000000000000000000000000000000000000000000000000000000020000000000000000000010000000000000000000000",
      "type": "0x2",
      "effectiveGasPrice": "0x2f708fa8b"
    },
    {
      "transactionHash": "0x78e36d60f6745e02450dcda207ac32aa3ae66c5f1da85bfd1e5d58e86c6509ab",
      "transactionIndex": "0x42",
      "blockHash": "0x3654558a5a7ae17328b3d95762275004e02e41b29cc4df9aaea2b550fd85ea77",
      "blockNumber": "0x4e060d",
      "from": "0x2BF003ec9B7e2a5A8663d6B0475370738FA39825",
      "to": "0x15aE41e237c524c8150134375EdE3cCB725DAbF8",
      "cumulativeGasUsed": "0x8f3013",
      "gasUsed": "0xbbb6",
      "contractAddress": null,
      "logs": [
        {
          "address": "0x15aE41e237c524c8150134375EdE3cCB725DAbF8",
          "topics": [
            "0x9d5c7c0b934da8fefa9c7760c98383778a12dfbfc0c3b3106518f43fb9508ac0"
          ],
          "data": "0x00000000000000000000000000000000000000000000000000000000000027890000000000000000000000000000000000000000000000000000000000000001000000000000000000000000000000000000000000000000000000000003f7a0",
          "blockHash": "0x3654558a5a7ae17328b3d95762275004e02e41b29cc4df9aaea2b550fd85ea77",
          "blockNumber": "0x4e060d",
          "transactionHash": "0x78e36d60f6745e02450dcda207ac32aa3ae66c5f1da85bfd1e5d58e86c6509ab",
          "transactionIndex": "0x42",
          "logIndex": "0x93",
          "removed": false
        }
      ],
      "status": "0x1",
      "logsBloom": "0x00000000000000000000000000000000000000000000000000000000000000000000000000000000000000000000000000000000000000000000000000000000000000000000000000000000000000000000000000000000000000000000000000000000000000000000000000000000000000000000000000000000000000200000000000000000000000000000000000000000000000000000000000000000000000000000000000000000000000000000000000000000008020000000000000000000040000000000000000000000000000000000000000000000000000000000000000000000000020000000000000000000010000000000000000000000",
      "type": "0x2",
      "effectiveGasPrice": "0x2f708fa8b"
    }
  ],
  "libraries": [],
  "pending": [],
  "returns": {},
  "timestamp": 1705654356,
  "chain": 11155111,
  "multi": false,
  "commit": "57fff76b"
}