{
  "transactions": [
    {
      "hash": "0x5ed210c6fa864d3a3eebef9454f832926d050fcf7c54fb8d33f6de05d07c28df",
      "transactionType": "CALL",
      "contractName": "TestNFT",
      "contractAddress": "0x21Bb6Bde0bA97c4a595d660DF852C0579F14bAc9",
      "function": "setMinDstGas(uint16,uint16,uint256)",
      "arguments": [
        "10121",
        "0",
        "260000"
      ],
      "transaction": {
        "type": "0x02",
        "from": "0x2bf003ec9b7e2a5a8663d6b0475370738fa39825",
        "to": "0x21bb6bde0ba97c4a595d660df852c0579f14bac9",
        "gas": "0x11275",
        "value": "0x0",
        "data": "0xdf2a5b3b00000000000000000000000000000000000000000000000000000000000027890000000000000000000000000000000000000000000000000000000000000000000000000000000000000000000000000000000000000000000000000003f7a0",
        "nonce": "0x32",
        "accessList": []
      },
      "additionalContracts": [],
      "isFixedGasLimit": false
    },
    {
      "hash": "0x0f3639f86b5a649729627b627b7204989c0dc8b169176a7854df82276b45675c",
      "transactionType": "CALL",
      "contractName": "TestNFT",
      "contractAddress": "0x21Bb6Bde0bA97c4a595d660DF852C0579F14bAc9",
      "function": "setMinDstGas(uint16,uint16,uint256)",
      "arguments": [
        "10121",
        "1",
        "260000"
      ],
      "transaction": {
        "type": "0x02",
        "from": "0x2bf003ec9b7e2a5a8663d6b0475370738fa39825",
        "to": "0x21bb6bde0ba97c4a595d660df852c0579f14bac9",
        "gas": "0x10346",
        "value": "0x0",
        "data": "0xdf2a5b3b00000000000000000000000000000000000000000000000000000000000027890000000000000000000000000000000000000000000000000000000000000001000000000000000000000000000000000000000000000000000000000003f7a0",
        "nonce": "0x33",
        "accessList": []
      },
      "additionalContracts": [],
      "isFixedGasLimit": false
    }
  ],
  "receipts": [
    {
      "transactionHash": "0x5ed210c6fa864d3a3eebef9454f832926d050fcf7c54fb8d33f6de05d07c28df",
      "transactionIndex": "0x18",
      "blockHash": "0x0cdde08dd23dcef16640191f6cfb4038501affca311bed94888befa6556c2baf",
      "blockNumber": "0x4e097f",
      "from": "0x2BF003ec9B7e2a5A8663d6B0475370738FA39825",
      "to": "0x21Bb6Bde0bA97c4a595d660DF852C0579F14bAc9",
      "cumulativeGasUsed": "0x2dd02a",
      "gasUsed": "0xbbaa",
      "contractAddress": null,
      "logs": [
        {
          "address": "0x21Bb6Bde0bA97c4a595d660DF852C0579F14bAc9",
          "topics": [
            "0x9d5c7c0b934da8fefa9c7760c98383778a12dfbfc0c3b3106518f43fb9508ac0"
          ],
          "data": "0x00000000000000000000000000000000000000000000000000000000000027890000000000000000000000000000000000000000000000000000000000000000000000000000000000000000000000000000000000000000000000000003f7a0",
          "blockHash": "0x0cdde08dd23dcef16640191f6cfb4038501affca311bed94888befa6556c2baf",
          "blockNumber": "0x4e097f",
          "transactionHash": "0x5ed210c6fa864d3a3eebef9454f832926d050fcf7c54fb8d33f6de05d07c28df",
          "transactionIndex": "0x18",
          "logIndex": "0x3a",
          "removed": false
        }
      ],
      "status": "0x1",
      "logsBloom": "0x00000000000000000000000000000000000000000000000000000000000000000000000008080000000000000000000000000000000000000000000100000000000000000000000000000000000000000000000000000000000000000000000000000000000000000000000000000000000000000000000000000000000000200000000000000000000000000000000000000000000000000000000000000000000000000000000000000000000000000000000000000000008020000000000000000000000000000000000000000000000000000000000000000000000000000000000000000000000000000000000000000000000000000000000000000000",
      "type": "0x2",
      "effectiveGasPrice": "0xf74eeaf3"
    },
    {
      "transactionHash": "0x0f3639f86b5a649729627b627b7204989c0dc8b169176a7854df82276b45675c",
      "transactionIndex": "0x19",
      "blockHash": "0x0cdde08dd23dcef16640191f6cfb4038501affca311bed94888befa6556c2baf",
      "blockNumber": "0x4e097f",
      "from": "0x2BF003ec9B7e2a5A8663d6B0475370738FA39825",
      "to": "0x21Bb6Bde0bA97c4a595d660DF852C0579F14bAc9",
      "cumulativeGasUsed": "0x2e8be0",
      "gasUsed": "0xbbb6",
      "contractAddress": null,
      "logs": [
        {
          "address": "0x21Bb6Bde0bA97c4a595d660DF852C0579F14bAc9",
          "topics": [
            "0x9d5c7c0b934da8fefa9c7760c98383778a12dfbfc0c3b3106518f43fb9508ac0"
          ],
          "data": "0x00000000000000000000000000000000000000000000000000000000000027890000000000000000000000000000000000000000000000000000000000000001000000000000000000000000000000000000000000000000000000000003f7a0",
          "blockHash": "0x0cdde08dd23dcef16640191f6cfb4038501affca311bed94888befa6556c2baf",
          "blockNumber": "0x4e097f",
          "transactionHash": "0x0f3639f86b5a649729627b627b7204989c0dc8b169176a7854df82276b45675c",
          "transactionIndex": "0x19",
          "logIndex": "0x3b",
          "removed": false
        }
      ],
      "status": "0x1",
      "logsBloom": "0x00000000000000000000000000000000000000000000000000000000000000000000000008080000000000000000000000000000000000000000000100000000000000000000000000000000000000000000000000000000000000000000000000000000000000000000000000000000000000000000000000000000000000200000000000000000000000000000000000000000000000000000000000000000000000000000000000000000000000000000000000000000008020000000000000000000000000000000000000000000000000000000000000000000000000000000000000000000000000000000000000000000000000000000000000000000",
      "type": "0x2",
      "effectiveGasPrice": "0xf74eeaf3"
    }
  ],
  "libraries": [],
  "pending": [],
  "returns": {},
  "timestamp": 1705666573,
  "chain": 11155111,
  "multi": false,
  "commit": "38cddd9d"
}