{
  "transactions": [
    {
      "hash": "0x76fecc19e9b41b48c25ccbe0ce952b0ae4165ee4fdbfdd32195c38a73193c058",
      "transactionType": "CALL",
      "contractName": "TestNFT",
      "contractAddress": "0x21Bb6Bde0bA97c4a595d660DF852C0579F14bAc9",
      "function": "setTrustedRemote(uint16,bytes)",
      "arguments": [
        "10121",
        "0x9ba3a554ea4ab7a72b83f5d5ae5be7b9138de2a321bb6bde0ba97c4a595d660df852c0579f14bac9"
      ],
      "transaction": {
        "type": "0x02",
        "from": "0x2bf003ec9b7e2a5a8663d6b0475370738fa39825",
        "to": "0x21bb6bde0ba97c4a595d660df852c0579f14bac9",
        "gas": "0x21af2",
        "value": "0x0",
        "data": "0xeb8d72b70000000000000000000000000000000000000000000000000000000000002789000000000000000000000000000000000000000000000000000000000000004000000000000000000000000000000000000000000000000000000000000000289ba3a554ea4ab7a72b83f5d5ae5be7b9138de2a321bb6bde0ba97c4a595d660df852c0579f14bac9000000000000000000000000000000000000000000000000",
        "nonce": "0x31",
        "accessList": []
      },
      "additionalContracts": [],
      "isFixedGasLimit": false
    }
  ],
  "receipts": [
    {
      "transactionHash": "0x76fecc19e9b41b48c25ccbe0ce952b0ae4165ee4fdbfdd32195c38a73193c058",
      "transactionIndex": "0x25",
      "blockHash": "0xc6fcc3c791f3ae7642928dde263d6207afa40be897bb77bff14a689134d1ccfc",
      "blockNumber": "0x4e0972",
      "from": "0x2BF003ec9B7e2a5A8663d6B0475370738FA39825",
      "to": "0x21Bb6Bde0bA97c4a595d660DF852C0579F14bAc9",
      "cumulativeGasUsed": "0x2cde38",
      "gasUsed": "0x17083",
      "contractAddress": null,
      "logs": [
        {
          "address": "0x21Bb6Bde0bA97c4a595d660DF852C0579F14bAc9",
          "topics": [
            "0xfa41487ad5d6728f0b19276fa1eddc16558578f5109fc39d2dc33c3230470dab"
          ],
          "data": "0x0000000000000000000000000000000000000000000000000000000000002789000000000000000000000000000000000000000000000000000000000000004000000000000000000000000000000000000000000000000000000000000000289ba3a554ea4ab7a72b83f5d5ae5be7b9138de2a321bb6bde0ba97c4a595d660df852c0579f14bac9000000000000000000000000000000000000000000000000",
          "blockHash": "0xc6fcc3c791f3ae7642928dde263d6207afa40be897bb77bff14a689134d1ccfc",
          "blockNumber": "0x4e0972",
          "transactionHash": "0x76fecc19e9b41b48c25ccbe0ce952b0ae4165ee4fdbfdd32195c38a73193c058",
          "transactionIndex": "0x25",
          "logIndex": "0x32",
          "removed": false
        }
      ],
      "status": "0x1",
      "logsBloom": "0x00000000000000000000000000000000000000000000000000000000000000000000000008080000000000000000000000000000000000000000000100000000000000000000000000000000000000000000000000000000000000000008000000000000000000000000000000000000000000000000000080000000000000000000000200000000000000000000000000000000000000000000000000000000000000000000000000000000000000000000000000000000000000000000000000000000000000000000000000000000000000000000000000000000000000000000000000000000000000000000000000000000000000000000000000000000",
      "type": "0x2",
      "effectiveGasPrice": "0xc0a52072"
    }
  ],
  "libraries": [],
  "pending": [],
  "returns": {},
  "timestamp": 1705666396,
  "chain": 11155111,
  "multi": false,
  "commit": "38cddd9d"
}