{
  "transactions": [
    {
      "hash": "0xc6c0e183be18ef4c74e44bfbb808620281f8c2068433111a1f31ca3b18bbf9c0",
      "transactionType": "CALL",
      "contractName": "TestNFT",
      "contractAddress": "0x4a28022eD61910B4Dc3dbf0522A0847d5Dcc3a58",
      "function": "sendFrom(address,uint16,bytes,uint256,address,address,bytes)",
      "arguments": [
        "0x2BF003ec9B7e2a5A8663d6B0475370738FA39825",
        "10121",
        "0x0000000000000000000000002bf003ec9b7e2a5a8663d6b0475370738fa39825",
        "1",
        "0x2BF003ec9B7e2a5A8663d6B0475370738FA39825",
        "0x0000000000000000000000000000000000000000",
        "0x00010000000000000000000000000000000000000000000000000000000000030d40"
      ],
      "transaction": {
        "type": "0x02",
        "from": "0x2bf003ec9b7e2a5a8663d6b0475370738fa39825",
        "to": "0x4a28022ed61910b4dc3dbf0522a0847d5dcc3a58",
        "gas": "0x4b68e",
        "value": "0x3403cf6f10bd",
        "data": "0x519056360000000000000000000000002bf003ec9b7e2a5a8663d6b0475370738fa39825000000000000000000000000000000000000000000000000000000000000278900000000000000000000000000000000000000000000000000000000000000e000000000000000000000000000000000000000000000000000000000000000010000000000000000000000002bf003ec9b7e2a5a8663d6b0475370738fa398250000000000000000000000000000000000000000000000000000000000000000000000000000000000000000000000000000000000000000000000000000012000000000000000000000000000000000000000000000000000000000000000200000000000000000000000002bf003ec9b7e2a5a8663d6b0475370738fa39825000000000000000000000000000000000000000000000000000000000000002200010000000000000000000000000000000000000000000000000000000000030d40000000000000000000000000000000000000000000000000000000000000",
        "nonce": "0x27",
        "accessList": []
      },
      "additionalContracts": [],
      "isFixedGasLimit": false
    }
  ],
  "receipts": [
    {
      "transactionHash": "0xc6c0e183be18ef4c74e44bfbb808620281f8c2068433111a1f31ca3b18bbf9c0",
      "transactionIndex": "0x8",
      "blockHash": "0x3d756c1e8f82c255c54764a49cd892aa1514073b56b1bb3f5ccc36621234bf2b",
      "blockNumber": "0x4e045b",
      "from": "0x2BF003ec9B7e2a5A8663d6B0475370738FA39825",
      "to": "0x4a28022eD61910B4Dc3dbf0522A0847d5Dcc3a58",
      "cumulativeGasUsed": "0x5f9c7",
      "gasUsed": "0x36987",
      "contractAddress": null,
      "logs": [
        {
          "address": "0x4a28022eD61910B4Dc3dbf0522A0847d5Dcc3a58",
          "topics": [
            "0xddf252ad1be2c89b69c2b068fc378daa952ba7f163c4a11628f55a4df523b3ef",
            "0x0000000000000000000000002bf003ec9b7e2a5a8663d6b0475370738fa39825",
            "0x0000000000000000000000004a28022ed61910b4dc3dbf0522a0847d5dcc3a58",
            "0x0000000000000000000000000000000000000000000000000000000000000001"
          ],
          "data": "0x",
          "blockHash": "0x3d756c1e8f82c255c54764a49cd892aa1514073b56b1bb3f5ccc36621234bf2b",
          "blockNumber": "0x4e045b",
          "transactionHash": "0xc6c0e183be18ef4c74e44bfbb808620281f8c2068433111a1f31ca3b18bbf9c0",
          "transactionIndex": "0x8",
          "logIndex": "0x0",
          "removed": false
        },
        {
          "address": "0x6Ac7bdc07A0583A362F1497252872AE6c0A5F5B8",
          "topics": [
            "0xdf21c415b78ed2552cc9971249e32a053abce6087a0ae0fbf3f78db5174a3493"
          ],
          "data": "0x00000000000000000000000000000000000000000000000000003403c6be15e4",
          "blockHash": "0x3d756c1e8f82c255c54764a49cd892aa1514073b56b1bb3f5ccc36621234bf2b",
          "blockNumber": "0x4e045b",
          "transactionHash": "0xc6c0e183be18ef4c74e44bfbb808620281f8c2068433111a1f31ca3b18bbf9c0",
          "transactionIndex": "0x8",
          "logIndex": "0x1",
          "removed": false
        },
        {
          "address": "0x3aCAAf60502791D199a5a5F0B173D78229eBFe32",
          "topics": [
            "0xb0c632f55f1e1b3b2c3d82f41ee4716bb4c00f0f5d84cdafc141581bb8757a4f"
          ],
          "data": "0x00000000000000000000000000000000000000000000000000000000000000400000000000000000000000000000000000000000000000000000000000000002000000000000000000000000000000000000000000000000000000000000002200010000000000000000000000000000000000000000000000000000000000030d40000000000000000000000000000000000000000000000000000000000000",
          "blockHash": "0x3d756c1e8f82c255c54764a49cd892aa1514073b56b1bb3f5ccc36621234bf2b",
          "blockNumber": "0x4e045b",
          "transactionHash": "0xc6c0e183be18ef4c74e44bfbb808620281f8c2068433111a1f31ca3b18bbf9c0",
          "transactionIndex": "0x8",
          "logIndex": "0x2",
          "removed": false
        },
        {
          "address": "0x00C5C0B8e0f75aB862CbAaeCfff499dB555FBDD2",
          "topics": [
            "0x4e41ee13e03cd5e0446487b524fdc48af6acf26c074dacdbdfb6b574b42c8146"
          ],
          "data": "0x0000000000000000000000000000000000000000000000000000000000002789000000000000000000000000000000000000000000000000000000000000000200000000000000000000000000000000000000000000000000000000000000020000000000000000000000004a28022ed61910b4dc3dbf0522a0847d5dcc3a580000000000000000000000000000000000000000000000000000000008b0fad9",
          "blockHash": "0x3d756c1e8f82c255c54764a49cd892aa1514073b56b1bb3f5ccc36621234bf2b",
          "blockNumber": "0x4e045b",
          "transactionHash": "0xc6c0e183be18ef4c74e44bfbb808620281f8c2068433111a1f31ca3b18bbf9c0",
          "transactionIndex": "0x8",
          "logIndex": "0x3",
          "removed": false
        },
        {
          "address": "0x3aCAAf60502791D199a5a5F0B173D78229eBFe32",
          "topics": [
            "0xe9bded5f24a4168e4f3bf44e00298c993b22376aad8c58c7dda9718a54cbea82"
          ],
          "data": "0x000000000000000000000000000000000000000000000000000000000000002000000000000000000000000000000000000000000000000000000000000000f4000000000000000227b14a28022ed61910b4dc3dbf0522a0847d5dcc3a582789c9811821819581d1d7352befa8a60c66a4569f1a0000000000000000000000000000000000000000000000000000000000000040000000000000000000000000000000000000000000000000000000000000008000000000000000000000000000000000000000000000000000000000000000200000000000000000000000002bf003ec9b7e2a5a8663d6b0475370738fa3982500000000000000000000000000000000000000000000000000000000000000010000000000000000000000000000000000000000000000000000000000000001000000000000000000000000",
          "blockHash": "0x3d756c1e8f82c255c54764a49cd892aa1514073b56b1bb3f5ccc36621234bf2b",
          "blockNumber": "0x4e045b",
          "transactionHash": "0xc6c0e183be18ef4c74e44bfbb808620281f8c2068433111a1f31ca3b18bbf9c0",
          "transactionIndex": "0x8",
          "logIndex": "0x4",
          "removed": false
        },
        {
          "address": "0x4a28022eD61910B4Dc3dbf0522A0847d5Dcc3a58",
          "topics": [
            "0xe1b87c47fdeb4f9cbadbca9df3af7aba453bb6e501075d0440d88125b711522a",
            "0x0000000000000000000000000000000000000000000000000000000000002789",
            "0x0000000000000000000000002bf003ec9b7e2a5a8663d6b0475370738fa39825",
            "0x2b57eb6c99988d6f9508a7e3bd0fe9feac6394368f21dc2ad7adc04c597f752d"
          ],
          "data": "0x000000000000000000000000000000000000000000000000000000000000002000000000000000000000000000000000000000000000000000000000000000010000000000000000000000000000000000000000000000000000000000000001",
          "blockHash": "0x3d756c1e8f82c255c54764a49cd892aa1514073b56b1bb3f5ccc36621234bf2b",
          "blockNumber": "0x4e045b",
          "transactionHash": "0xc6c0e183be18ef4c74e44bfbb808620281f8c2068433111a1f31ca3b18bbf9c0",
          "transactionIndex": "0x8",
          "logIndex": "0x5",
          "removed": false
        }
      ],
      "status": "0x1",
      "logsBloom": "0x00000000000000000000000000000000000050000000000000000000000004100000000020000000400000000000000100000000000000000000000000040000004000000000000000000008001000001000000000040000000000000000000000040000000000000000000000020200000000000000000000000010000000000040000400000010000000000000000000001200388000000000000000000000000000004000020000000008000000000000000000000020000000000000000000041002000008000000810001000000800000000000000000000000004140001080000000000000000000000000000000000000000000000000000000080100",
      "type": "0x2",
      "effectiveGasPrice": "0xbd7afad1"
    }
  ],
  "libraries": [],
  "pending": [],
  "returns": {},
  "timestamp": 1705648081,
  "chain": 11155111,
  "multi": false,
  "commit": "57fff76b"
}