{
  "transactions": [
    {
      "hash": "0x96b0e3944ba8f9426c715bcc2203d9d9dd081a4da8cb9f375a22298f949b3333",
      "transactionType": "CALL",
      "contractName": "TestNFT",
      "contractAddress": "0x15aE41e237c524c8150134375EdE3cCB725DAbF8",
      "function": "setTrustedRemote(uint16,bytes)",
      "arguments": [
        "10121",
        "0x9922e648f1af6b6f6c9e32c896bce8c69374790115ae41e237c524c8150134375ede3ccb725dabf8"
      ],
      "transaction": {
        "type": "0x02",
        "from": "0x2bf003ec9b7e2a5a8663d6b0475370738fa39825",
        "to": "0x15ae41e237c524c8150134375ede3ccb725dabf8",
        "gas": "0xbbad",
        "value": "0x0",
        "data": "0xeb8d72b70000000000000000000000000000000000000000000000000000000000002789000000000000000000000000000000000000000000000000000000000000004000000000000000000000000000000000000000000000000000000000000000289922e648f1af6b6f6c9e32c896bce8c69374790115ae41e237c524c8150134375ede3ccb725dabf8000000000000000000000000000000000000000000000000",
        "nonce": "0x30",
        "accessList": []
      },
      "additionalContracts": [],
      "isFixedGasLimit": false
    }
  ],
  "receipts": [
    {
      "transactionHash": "0x96b0e3944ba8f9426c715bcc2203d9d9dd081a4da8cb9f375a22298f949b3333",
      "transactionIndex": "0x22",
      "blockHash": "0x2d3b30986bf1bf09349b92047fd841e67a2d3c484a9bbae23ea779135f85d2a3",
      "blockNumber": "0x4e096a",
      "from": "0x2BF003ec9B7e2a5A8663d6B0475370738FA39825",
      "to": "0x15aE41e237c524c8150134375EdE3cCB725DAbF8",
      "cumulativeGasUsed": "0x381034",
      "gasUsed": "0x87e0",
      "contractAddress": null,
      "logs": [
        {
          "address": "0x15aE41e237c524c8150134375EdE3cCB725DAbF8",
          "topics": [
            "0xfa41487ad5d6728f0b19276fa1eddc16558578f5109fc39d2dc33c3230470dab"
          ],
          "data": "0x0000000000000000000000000000000000000000000000000000000000002789000000000000000000000000000000000000000000000000000000000000004000000000000000000000000000000000000000000000000000000000000000289922e648f1af6b6f6c9e32c896bce8c69374790115ae41e237c524c8150134375ede3ccb725dabf8000000000000000000000000000000000000000000000000",
          "blockHash": "0x2d3b30986bf1bf09349b92047fd841e67a2d3c484a9bbae23ea779135f85d2a3",
          "blockNumber": "0x4e096a",
          "transactionHash": "0x96b0e3944ba8f9426c715bcc2203d9d9dd081a4da8cb9f375a22298f949b3333",
          "transactionIndex": "0x22",
          "logIndex": "0x48",
          "removed": false
        }
      ],
      "status": "0x1",
      "logsBloom": "0x00000000000000000000000000000000000000000000000000000000000000000000000000000000000000000000000000000000000000000000000000000000000000000000000000000000000000000000000000000000000000000008000000000000000000000000000000000000000000000000000080000000000000000000000200000000000000000000000000000000000000000000000000000000000000000000000000000000000000000000000000000000000000000000000000000000040000000000000000000000000000000000000000000000000000000000000000000000000020000000000000000000010000000000000000000000",
      "type": "0x2",
      "effectiveGasPrice": "0x10a098ce0"
    }
  ],
  "libraries": [],
  "pending": [],
  "returns": {},
  "timestamp": 1705666277,
  "chain": 11155111,
  "multi": false,
  "commit": "38cddd9d"
}