{
  "transactions": [
    {
      "hash": "0xe8f7d55bafd472c2624f02917d7f099a51e68ab41da9f81a2d3aa2ce47589222",
      "transactionType": "CALL",
      "contractName": "TestNFT",
      "contractAddress": "0x4a28022eD61910B4Dc3dbf0522A0847d5Dcc3a58",
      "function": "setMinDstGas(uint16,uint16,uint256)",
      "arguments": [
        "10121",
        "0",
        "200000"
      ],
      "transaction": {
        "type": "0x02",
        "from": "0x2bf003ec9b7e2a5a8663d6b0475370738fa39825",
        "to": "0x4a28022ed61910b4dc3dbf0522a0847d5dcc3a58",
        "gas": "0x97d6",
        "value": "0x0",
        "data": "0xdf2a5b3b000000000000000000000000000000000000000000000000000000000000278900000000000000000000000000000000000000000000000000000000000000000000000000000000000000000000000000000000000000000000000000030d40",
        "nonce": "0x21",
        "accessList": []
      },
      "additionalContracts": [],
      "isFixedGasLimit": false
    }
  ],
  "receipts": [
    {
      "transactionHash": "0xe8f7d55bafd472c2624f02917d7f099a51e68ab41da9f81a2d3aa2ce47589222",
      "transactionIndex": "0x27",
      "blockHash": "0x0fa4343bfe97815e4b4be8712a0f46b69ffb71b897aaba1897e5c49e788ddf60",
      "blockNumber": "0x4e03da",
      "from": "0x2BF003ec9B7e2a5A8663d6B0475370738FA39825",
      "to": "0x4a28022eD61910B4Dc3dbf0522A0847d5Dcc3a58",
      "cumulativeGasUsed": "0x1afa9a",
      "gasUsed": "0x6dee",
      "contractAddress": null,
      "logs": [
        {
          "address": "0x4a28022eD61910B4Dc3dbf0522A0847d5Dcc3a58",
          "topics": [
            "0x9d5c7c0b934da8fefa9c7760c98383778a12dfbfc0c3b3106518f43fb9508ac0"
          ],
          "data": "0x000000000000000000000000000000000000000000000000000000000000278900000000000000000000000000000000000000000000000000000000000000000000000000000000000000000000000000000000000000000000000000030d40",
          "blockHash": "0x0fa4343bfe97815e4b4be8712a0f46b69ffb71b897aaba1897e5c49e788ddf60",
          "blockNumber": "0x4e03da",
          "transactionHash": "0xe8f7d55bafd472c2624f02917d7f099a51e68ab41da9f81a2d3aa2ce47589222",
          "transactionIndex": "0x27",
          "logIndex": "0xd",
          "removed": false
        }
      ],
      "status": "0x1",
      "logsBloom": "0x00000000000000000000000000000000000000000000000000000000000000000000000000000000000000000000000100000000000000000000000000000000000000000000000000000000000000000000000000000000000000000000000000000000000000000000000000000000000000000000000000000000000000200000000000000010000000000000000000000000000000000000000000000000000000000000000000000000000000000000000000000000008020000000000000000000000000000000010000000000000000000000000000000000000000000000000000000000000000000000000000000000000000000000000000000000",
      "type": "0x2",
      "effectiveGasPrice": "0xbd75aa08"
    }
  ],
  "libraries": [],
  "pending": [],
  "returns": {},
  "timestamp": 1705646245,
  "chain": 11155111,
  "multi": false,
  "commit": "57fff76b"
}