{
  "transactions": [
    {
      "hash": "0xbf52c4986514738bbf6d1ce4f98e5691dbbddc94dfa58f131b1d6b6aae189474",
      "transactionType": "CALL",
      "contractName": "TestNFT",
      "contractAddress": "0x15aE41e237c524c8150134375EdE3cCB725DAbF8",
      "function": "mint(uint256)",
      "arguments": [
        "0"
      ],
      "transaction": {
        "type": "0x02",
        "from": "0x2bf003ec9b7e2a5a8663d6b0475370738fa39825",
        "to": "0x15ae41e237c524c8150134375ede3ccb725dabf8",
        "gas": "0x170e1",
        "value": "0x0",
        "data": "0xa0712d680000000000000000000000000000000000000000000000000000000000000000",
        "nonce": "0x2c",
        "accessList": []
      },
      "additionalContracts": [],
      "isFixedGasLimit": false
    },
    {
      "hash": "0x11459725e2aa1fd6ae5a951eba95fd802f51672ef742001523cb63efd2c91a32",
      "transactionType": "CALL",
      "contractName": "TestNFT",
      "contractAddress": "0x15aE41e237c524c8150134375EdE3cCB725DAbF8",
      "function": "approve(address,uint256)",
      "arguments": [
        "0x15aE41e237c524c8150134375EdE3cCB725DAbF8",
        "0"
      ],
      "transaction": {
        "type": "0x02",
        "from": "0x2bf003ec9b7e2a5a8663d6b0475370738fa39825",
        "to": "0x15ae41e237c524c8150134375ede3ccb725dabf8",
        "gas": "0x116fc",
        "value": "0x0",
        "data": "0x095ea7b300000000000000000000000015ae41e237c524c8150134375ede3ccb725dabf80000000000000000000000000000000000000000000000000000000000000000",
        "nonce": "0x2d",
        "accessList": []
      },
      "additionalContracts": [],
      "isFixedGasLimit": false
    }
  ],
  "receipts": [
    {
      "transactionHash": "0xbf52c4986514738bbf6d1ce4f98e5691dbbddc94dfa58f131b1d6b6aae189474",
      "transactionIndex": "0x3a",
      "blockHash": "0xcc41987c759e2d970da58515a63911131ce0eeca928608183be37a7bcb54bc0d",
      "blockNumber": "0x4e061a",
      "from": "0x2BF003ec9B7e2a5A8663d6B0475370738FA39825",
      "to": "0x15aE41e237c524c8150134375EdE3cCB725DAbF8",
      "cumulativeGasUsed": "0x875f81",
      "gasUsed": "0x10b10",
      "contractAddress": null,
      "logs": [
        {
          "address": "0x15aE41e237c524c8150134375EdE3cCB725DAbF8",
          "topics": [
            "0xddf252ad1be2c89b69c2b068fc378daa952ba7f163c4a11628f55a4df523b3ef",
            "0x0000000000000000000000000000000000000000000000000000000000000000",
            "0x0000000000000000000000002bf003ec9b7e2a5a8663d6b0475370738fa39825",
            "0x0000000000000000000000000000000000000000000000000000000000000000"
          ],
          "data": "0x",
          "blockHash": "0xcc41987c759e2d970da58515a63911131ce0eeca928608183be37a7bcb54bc0d",
          "blockNumber": "0x4e061a",
          "transactionHash": "0xbf52c4986514738bbf6d1ce4f98e5691dbbddc94dfa58f131b1d6b6aae189474",
          "transactionIndex": "0x3a",
          "logIndex": "0x72",
          "removed": false
        }
      ],
      "status": "0x1",
      "logsBloom": "0x00000000000000000000000000000000000000000000000000000000000000000000000000000000000000000000000000000000000000000000000000000000000000000000000000000008000000000000000000000000000000000000000000000000020000000000000000000800000000000000000000000010000000000000000000000000000000000000000000001000008000000000000000000000000000000000000000000000000000000000000000000000000000000000000000000002040000000000000001000000000000000000000000000000000020000000000000000000000020000000000000000000010000000000000000000000",
      "type": "0x2",
      "effectiveGasPrice": "0x33aa91ce8"
    },
    {
      "transactionHash": "0x11459725e2aa1fd6ae5a951eba95fd802f51672ef742001523cb63efd2c91a32",
      "transactionIndex": "0x3b",
      "blockHash": "0xcc41987c759e2d970da58515a63911131ce0eeca928608183be37a7bcb54bc0d",
      "blockNumber": "0x4e061a",
      "from": "0x2BF003ec9B7e2a5A8663d6B0475370738FA39825",
      "to": "0x15aE41e237c524c8150134375EdE3cCB725DAbF8",
      "cumulativeGasUsed": "0x881e44",
      "gasUsed": "0xbec3",
      "contractAddress": null,
      "logs": [
        {
          "address": "0x15aE41e237c524c8150134375EdE3cCB725DAbF8",
          "topics": [
            "0x8c5be1e5ebec7d5bd14f71427d1e84f3dd0314c0f7b2291e5b200ac8c7c3b925",
            "0x0000000000000000000000002bf003ec9b7e2a5a8663d6b0475370738fa39825",
            "0x00000000000000000000000015ae41e237c524c8150134375ede3ccb725dabf8",
            "0x0000000000000000000000000000000000000000000000000000000000000000"
          ],
          "data": "0x",
          "blockHash": "0xcc41987c759e2d970da58515a63911131ce0eeca928608183be37a7bcb54bc0d",
          "blockNumber": "0x4e061a",
          "transactionHash": "0x11459725e2aa1fd6ae5a951eba95fd802f51672ef742001523cb63efd2c91a32",
          "transactionIndex": "0x3b",
          "logIndex": "0x73",
          "removed": false
        }
      ],
      "status": "0x1",
      "logsBloom": "0x00000000000000000001000000000000000000000000000000000000000000000000000000000000000000000000000000000000008000000000000000200000000000000000000000004000000000000000000000000000000000000000000000000000020000000000000000000800000000000000000000000000000000000000000000000000000000000000000000001000008000000000000000000000020000000000000000000000000000000000000000000000000000000000000000000000040000000000000001000000000000000000000000000000000020000010000000000000000020000000000000000000010000000000000000000000",
      "type": "0x2",
      "effectiveGasPrice": "0x33aa91ce8"
    }
  ],
  "libraries": [],
  "pending": [],
  "returns": {},
  "timestamp": 1705654525,
  "chain": 11155111,
  "multi": false,
  "commit": "57fff76b"
}