{
  "transactions": [
    {
      "hash": "0x5e58452830316489dec7e9716e58bdaa835237be5e8ae2e72c9280047b619dd0",
      "transactionType": "CALL",
      "contractName": "TestNFT",
      "contractAddress": "0x21Bb6Bde0bA97c4a595d660DF852C0579F14bAc9",
      "function": "sendFrom(address,uint16,bytes,uint256,address,address,bytes)",
      "arguments": [
        "0x2BF003ec9B7e2a5A8663d6B0475370738FA39825",
        "10121",
        "0x307832424630303365633942376532613541383636336436423034373533373037333846413339383235",
        "1",
        "0x2BF003ec9B7e2a5A8663d6B0475370738FA39825",
        "0x0000000000000000000000000000000000000000",
        "0x0001000000000000000000000000000000000000000000000000000000000003f7a0"
      ],
      "transaction": {
        "type": "0x02",
        "from": "0x2bf003ec9b7e2a5a8663d6b0475370738fa39825",
        "to": "0x21bb6bde0ba97c4a595d660df852c0579f14bac9",
        "gas": "0x5035b",
        "value": "0x3403d4187d7d",
        "data": "0x519056360000000000000000000000002bf003ec9b7e2a5a8663d6b0475370738fa39825000000000000000000000000000000000000000000000000000000000000278900000000000000000000000000000000000000000000000000000000000000e000000000000000000000000000000000000000000000000000000000000000010000000000000000000000002bf003ec9b7e2a5a8663d6b0475370738fa3982500000000000000000000000000000000000000000000000000000000000000000000000000000000000000000000000000000000000000000000000000000140000000000000000000000000000000000000000000000000000000000000002a3078324246303033656339423765326135413836363364364230343735333730373338464133393832350000000000000000000000000000000000000000000000000000000000000000000000000000000000000000000000000000000000220001000000000000000000000000000000000000000000000000000000000003f7a0000000000000000000000000000000000000000000000000000000000000",
        "nonce": "0x39",
        "accessList": []
      },
      "additionalContracts": [],
      "isFixedGasLimit": false
    }
  ],
  "receipts": [],
  "libraries": [],
  "pending": [
    "0x5e58452830316489dec7e9716e58bdaa835237be5e8ae2e72c9280047b619dd0"
  ],
  "returns": {},
  "timestamp": 1705667521,
  "chain": 11155111,
  "multi": false,
  "commit": "38cddd9d"
}