{
  "transactions": [
    {
      "hash": "0xfff4c56a2e3f56b376322dd4b7fc4964507208d6138a9b72dd453476129dd855",
      "transactionType": "CALL",
      "contractName": "TestNFT",
      "contractAddress": "0x4a28022eD61910B4Dc3dbf0522A0847d5Dcc3a58",
      "function": "setMinDstGas(uint16,uint16,uint256)",
      "arguments": [
        "10121",
        "0",
        "200000"
      ],
      "transaction": {
        "type": "0x02",
        "from": "0x2bf003ec9b7e2a5a8663d6b0475370738fa39825",
        "to": "0x4a28022ed61910b4dc3dbf0522a0847d5dcc3a58",
        "gas": "0x97d6",
        "value": "0x0",
        "data": "0xdf2a5b3b000000000000000000000000000000000000000000000000000000000000278900000000000000000000000000000000000000000000000000000000000000000000000000000000000000000000000000000000000000000000000000030d40",
        "nonce": "0x22",
        "accessList": []
      },
      "additionalContracts": [],
      "isFixedGasLimit": false
    },
    {
      "hash": "0xbd25de5dd6b1720361d80e43f1800f28f3604fc7b39bf002043530812dc0ea54",
      "transactionType": "CALL",
      "contractName": "TestNFT",
      "contractAddress": "0x4a28022eD61910B4Dc3dbf0522A0847d5Dcc3a58",
      "function": "setMinDstGas(uint16,uint16,uint256)",
      "arguments": [
        "10121",
        "1",
        "200000"
      ],
      "transaction": {
        "type": "0x02",
        "from": "0x2bf003ec9b7e2a5a8663d6b0475370738fa39825",
        "to": "0x4a28022ed61910b4dc3dbf0522a0847d5dcc3a58",
        "gas": "0x10346",
        "value": "0x0",
        "data": "0xdf2a5b3b000000000000000000000000000000000000000000000000000000000000278900000000000000000000000000000000000000000000000000000000000000010000000000000000000000000000000000000000000000000000000000030d40",
        "nonce": "0x23",
        "accessList": []
      },
      "additionalContracts": [],
      "isFixedGasLimit": false
    }
  ],
  "receipts": [],
  "libraries": [],
  "pending": [
    "0xfff4c56a2e3f56b376322dd4b7fc4964507208d6138a9b72dd453476129dd855",
    "0xbd25de5dd6b1720361d80e43f1800f28f3604fc7b39bf002043530812dc0ea54"
  ],
  "returns": {},
  "timestamp": 1705646483,
  "chain": 11155111,
  "multi": false,
  "commit": "57fff76b"
}