{
  "transactions": [
    {
      "hash": "0xc6c0e183be18ef4c74e44bfbb808620281f8c2068433111a1f31ca3b18bbf9c0",
      "transactionType": "CALL",
      "contractName": "TestNFT",
      "contractAddress": "0x4a28022eD61910B4Dc3dbf0522A0847d5Dcc3a58",
      "function": "sendFrom(address,uint16,bytes,uint256,address,address,bytes)",
      "arguments": [
        "0x2BF003ec9B7e2a5A8663d6B0475370738FA39825",
        "10121",
        "0x0000000000000000000000002bf003ec9b7e2a5a8663d6b0475370738fa39825",
        "1",
        "0x2BF003ec9B7e2a5A8663d6B0475370738FA39825",
        "0x0000000000000000000000000000000000000000",
        "0x00010000000000000000000000000000000000000000000000000000000000030d40"
      ],
      "transaction": {
        "type": "0x02",
        "from": "0x2bf003ec9b7e2a5a8663d6b0475370738fa39825",
        "to": "0x4a28022ed61910b4dc3dbf0522a0847d5dcc3a58",
        "gas": "0x4b68e",
        "value": "0x3403cf6f10bd",
        "data": "0x519056360000000000000000000000002bf003ec9b7e2a5a8663d6b0475370738fa39825000000000000000000000000000000000000000000000000000000000000278900000000000000000000000000000000000000000000000000000000000000e000000000000000000000000000000000000000000000000000000000000000010000000000000000000000002bf003ec9b7e2a5a8663d6b0475370738fa398250000000000000000000000000000000000000000000000000000000000000000000000000000000000000000000000000000000000000000000000000000012000000000000000000000000000000000000000000000000000000000000000200000000000000000000000002bf003ec9b7e2a5a8663d6b0475370738fa39825000000000000000000000000000000000000000000000000000000000000002200010000000000000000000000000000000000000000000000000000000000030d40000000000000000000000000000000000000000000000000000000000000",
        "nonce": "0x27",
        "accessList": []
      },
      "additionalContracts": [],
      "isFixedGasLimit": false
    }
  ],
  "receipts": [],
  "libraries": [],
  "pending": [
    "0xc6c0e183be18ef4c74e44bfbb808620281f8c2068433111a1f31ca3b18bbf9c0"
  ],
  "returns": {},
  "timestamp": 1705648068,
  "chain": 11155111,
  "multi": false,
  "commit": "57fff76b"
}