{
  "transactions": [
    {
      "hash": "0x06ab9c8ab8d0d57b2f7dd1fd7845cb30853dcca150229fbba4bd1a899956dd48",
      "transactionType": "CALL",
      "contractName": "TestNFT",
      "contractAddress": "0x4a28022eD61910B4Dc3dbf0522A0847d5Dcc3a58",
      "function": "approve(address,uint256)",
      "arguments": [
        "0x4a28022eD61910B4Dc3dbf0522A0847d5Dcc3a58",
        "0"
      ],
      "transaction": {
        "type": "0x02",
        "from": "0x2bf003ec9b7e2a5a8663d6b0475370738fa39825",
        "to": "0x4a28022ed61910b4dc3dbf0522a0847d5dcc3a58",
        "gas": "0x116fc",
        "value": "0x0",
        "data": "0x095ea7b30000000000000000000000004a28022ed61910b4dc3dbf0522a0847d5dcc3a580000000000000000000000000000000000000000000000000000000000000000",
        "nonce": "0x20",
        "accessList": []
      },
      "additionalContracts": [],
      "isFixedGasLimit": false
    }
  ],
  "receipts": [
    {
      "transactionHash": "0x06ab9c8ab8d0d57b2f7dd1fd7845cb30853dcca150229fbba4bd1a899956dd48",
      "transactionIndex": "0x19",
      "blockHash": "0xc0e780120e698a8e27393be9b1c360a50556236c250ba09c3b31665df6abe88e",
      "blockNumber": "0x4e03c6",
      "from": "0x2BF003ec9B7e2a5A8663d6B0475370738FA39825",
      "to": "0x4a28022eD61910B4Dc3dbf0522A0847d5Dcc3a58",
      "cumulativeGasUsed": "0x15a96d",
      "gasUsed": "0xbec3",
      "contractAddress": null,
      "logs": [
        {
          "address": "0x4a28022eD61910B4Dc3dbf0522A0847d5Dcc3a58",
          "topics": [
            "0x8c5be1e5ebec7d5bd14f71427d1e84f3dd0314c0f7b2291e5b200ac8c7c3b925",
            "0x0000000000000000000000002bf003ec9b7e2a5a8663d6b0475370738fa39825",
            "0x0000000000000000000000004a28022ed61910b4dc3dbf0522a0847d5dcc3a58",
            "0x0000000000000000000000000000000000000000000000000000000000000000"
          ],
          "data": "0x",
          "blockHash": "0xc0e780120e698a8e27393be9b1c360a50556236c250ba09c3b31665df6abe88e",
          "blockNumber": "0x4e03c6",
          "transactionHash": "0x06ab9c8ab8d0d57b2f7dd1fd7845cb30853dcca150229fbba4bd1a899956dd48",
          "transactionIndex": "0x19",
          "logIndex": "0x5",
          "removed": false
        }
      ],
      "status": "0x1",
      "logsBloom": "0x00000000000000000000000000000000000000000000000000000000000004000000000000000000000000000000000100000000000000000000000000200000000000000000000000000000001000000000000000000000000000000000000000000000020000000000000000000800000000000000000000000000000000000000000000000010000000000000000000001000008000000000000000000000020000000000000000000000000000000000000000000020000000000000000000000000000000000000010001000000000000000000000000000000000020000010000000000000000000000000000000000000000000000000000000000000",
      "type": "0x2",
      "effectiveGasPrice": "0xc4af72d1"
    }
  ],
  "libraries": [],
  "pending": [],
  "returns": {},
  "timestamp": 1705645920,
  "chain": 11155111,
  "multi": false,
  "commit": "57fff76b"
}