{
  "transactions": [
    {
      "hash": "0x5ed210c6fa864d3a3eebef9454f832926d050fcf7c54fb8d33f6de05d07c28df",
      "transactionType": "CALL",
      "contractName": "TestNFT",
      "contractAddress": "0x21Bb6Bde0bA97c4a595d660DF852C0579F14bAc9",
      "function": "setMinDstGas(uint16,uint16,uint256)",
      "arguments": [
        "10121",
        "0",
        "260000"
      ],
      "transaction": {
        "type": "0x02",
        "from": "0x2bf003ec9b7e2a5a8663d6b0475370738fa39825",
        "to": "0x21bb6bde0ba97c4a595d660df852c0579f14bac9",
        "gas": "0x11275",
        "value": "0x0",
        "data": "0xdf2a5b3b00000000000000000000000000000000000000000000000000000000000027890000000000000000000000000000000000000000000000000000000000000000000000000000000000000000000000000000000000000000000000000003f7a0",
        "nonce": "0x32",
        "accessList": []
      },
      "additionalContracts": [],
      "isFixedGasLimit": false
    },
    {
      "hash": "0x0f3639f86b5a649729627b627b7204989c0dc8b169176a7854df82276b45675c",
      "transactionType": "CALL",
      "contractName": "TestNFT",
      "contractAddress": "0x21Bb6Bde0bA97c4a595d660DF852C0579F14bAc9",
      "function": "setMinDstGas(uint16,uint16,uint256)",
      "arguments": [
        "10121",
        "1",
        "260000"
      ],
      "transaction": {
        "type": "0x02",
        "from": "0x2bf003ec9b7e2a5a8663d6b0475370738fa39825",
        "to": "0x21bb6bde0ba97c4a595d660df852c0579f14bac9",
        "gas": "0x10346",
        "value": "0x0",
        "data": "0xdf2a5b3b00000000000000000000000000000000000000000000000000000000000027890000000000000000000000000000000000000000000000000000000000000001000000000000000000000000000000000000000000000000000000000003f7a0",
        "nonce": "0x33",
        "accessList": []
      },
      "additionalContracts": [],
      "isFixedGasLimit": false
    }
  ],
  "receipts": [],
  "libraries": [],
  "pending": [
    "0x5ed210c6fa864d3a3eebef9454f832926d050fcf7c54fb8d33f6de05d07c28df",
    "0x0f3639f86b5a649729627b627b7204989c0dc8b169176a7854df82276b45675c"
  ],
  "returns": {},
  "timestamp": 1705666559,
  "chain": 11155111,
  "multi": false,
  "commit": "38cddd9d"
}