{
  "transactions": [
    {
      "hash": "0xfff4c56a2e3f56b376322dd4b7fc4964507208d6138a9b72dd453476129dd855",
      "transactionType": "CALL",
      "contractName": "TestNFT",
      "contractAddress": "0x4a28022eD61910B4Dc3dbf0522A0847d5Dcc3a58",
      "function": "setMinDstGas(uint16,uint16,uint256)",
      "arguments": [
        "10121",
        "0",
        "200000"
      ],
      "transaction": {
        "type": "0x02",
        "from": "0x2bf003ec9b7e2a5a8663d6b0475370738fa39825",
        "to": "0x4a28022ed61910b4dc3dbf0522a0847d5dcc3a58",
        "gas": "0x97d6",
        "value": "0x0",
        "data": "0xdf2a5b3b000000000000000000000000000000000000000000000000000000000000278900000000000000000000000000000000000000000000000000000000000000000000000000000000000000000000000000000000000000000000000000030d40",
        "nonce": "0x22",
        "accessList": []
      },
      "additionalContracts": [],
      "isFixedGasLimit": false
    },
    {
      "hash": "0xbd25de5dd6b1720361d80e43f1800f28f3604fc7b39bf002043530812dc0ea54",
      "transactionType": "CALL",
      "contractName": "TestNFT",
      "contractAddress": "0x4a28022eD61910B4Dc3dbf0522A0847d5Dcc3a58",
      "function": "setMinDstGas(uint16,uint16,uint256)",
      "arguments": [
        "10121",
        "1",
        "200000"
      ],
      "transaction": {
        "type": "0x02",
        "from": "0x2bf003ec9b7e2a5a8663d6b0475370738fa39825",
        "to": "0x4a28022ed61910b4dc3dbf0522a0847d5dcc3a58",
        "gas": "0x10346",
        "value": "0x0",
        "data": "0xdf2a5b3b000000000000000000000000000000000000000000000000000000000000278900000000000000000000000000000000000000000000000000000000000000010000000000000000000000000000000000000000000000000000000000030d40",
        "nonce": "0x23",
        "accessList": []
      },
      "additionalContracts": [],
      "isFixedGasLimit": false
    }
  ],
  "receipts": [
    {
      "transactionHash": "0xfff4c56a2e3f56b376322dd4b7fc4964507208d6138a9b72dd453476129dd855",
      "transactionIndex": "0xe",
      "blockHash": "0xfd84cecf377d82c9822e7929c9940e2cb16c8a946e1187602a44b8ac20cf714b",
      "blockNumber": "0x4e03eb",
      "from": "0x2BF003ec9B7e2a5A8663d6B0475370738FA39825",
      "to": "0x4a28022eD61910B4Dc3dbf0522A0847d5Dcc3a58",
      "cumulativeGasUsed": "0x73ef1",
      "gasUsed": "0x6dee",
      "contractAddress": null,
      "logs": [
        {
          "address": "0x4a28022eD61910B4Dc3dbf0522A0847d5Dcc3a58",
          "topics": [
            "0x9d5c7c0b934da8fefa9c7760c98383778a12dfbfc0c3b3106518f43fb9508ac0"
          ],
          "data": "0x000000000000000000000000000000000000000000000000000000000000278900000000000000000000000000000000000000000000000000000000000000000000000000000000000000000000000000000000000000000000000000030d40",
          "blockHash": "0xfd84cecf377d82c9822e7929c9940e2cb16c8a946e1187602a44b8ac20cf714b",
          "blockNumber": "0x4e03eb",
          "transactionHash": "0xfff4c56a2e3f56b376322dd4b7fc4964507208d6138a9b72dd453476129dd855",
          "transactionIndex": "0xe",
          "logIndex": "0x4",
          "removed": false
        }
      ],
      "status": "0x1",
      "logsBloom": "0x00000000000000000000000000000000000000000000000000000000000000000000000000000000000000000000000100000000000000000000000000000000000000000000000000000000000000000000000000000000000000000000000000000000000000000000000000000000000000000000000000000000000000200000000000000010000000000000000000000000000000000000000000000000000000000000000000000000000000000000000000000000008020000000000000000000000000000000010000000000000000000000000000000000000000000000000000000000000000000000000000000000000000000000000000000000",
      "type": "0x2",
      "effectiveGasPrice": "0xbc1da593"
    },
    {
      "transactionHash": "0xbd25de5dd6b1720361d80e43f1800f28f3604fc7b39bf002043530812dc0ea54",
      "transactionIndex": "0xf",
      "blockHash": "0xfd84cecf377d82c9822e7929c9940e2cb16c8a946e1187602a44b8ac20cf714b",
      "blockNumber": "0x4e03eb",
      "from": "0x2BF003ec9B7e2a5A8663d6B0475370738FA39825",
      "to": "0x4a28022eD61910B4Dc3dbf0522A0847d5Dcc3a58",
      "cumulativeGasUsed": "0x7faa7",
      "gasUsed": "0xbbb6",
      "contractAddress": null,
      "logs": [
        {
          "address": "0x4a28022eD61910B4Dc3dbf0522A0847d5Dcc3a58",
          "topics": [
            "0x9d5c7c0b934da8fefa9c7760c98383778a12dfbfc0c3b3106518f43fb9508ac0"
          ],
          "data": "0x000000000000000000000000000000000000000000000000000000000000278900000000000000000000000000000000000000000000000000000000000000010000000000000000000000000000000000000000000000000000000000030d40",
          "blockHash": "0xfd84cecf377d82c9822e7929c9940e2cb16c8a946e1187602a44b8ac20cf714b",
          "blockNumber": "0x4e03eb",
          "transactionHash": "0xbd25de5dd6b1720361d80e43f1800f28f3604fc7b39bf002043530812dc0ea54",
          "transactionIndex": "0xf",
          "logIndex": "0x5",
          "removed": false
        }
      ],
      "status": "0x1",
      "logsBloom": "0x00000000000000000000000000000000000000000000000000000000000000000000000000000000000000000000000100000000000000000000000000000000000000000000000000000000000000000000000000000000000000000000000000000000000000000000000000000000000000000000000000000000000000200000000000000010000000000000000000000000000000000000000000000000000000000000000000000000000000000000000000000000008020000000000000000000000000000000010000000000000000000000000000000000000000000000000000000000000000000000000000000000000000000000000000000000",
      "type": "0x2",
      "effectiveGasPrice": "0xbc1da593"
    }
  ],
  "libraries": [],
  "pending": [],
  "returns": {},
  "timestamp": 1705646497,
  "chain": 11155111,
  "multi": false,
  "commit": "57fff76b"
}