{
  "transactions": [
    {
      "hash": "0x8bf2d488d477e3b94703f0111dff7f639e944d637f8c1d17cf7cb1fc79210b94",
      "transactionType": "CALL",
      "contractName": "TestNFT",
      "contractAddress": "0x21Bb6Bde0bA97c4a595d660DF852C0579F14bAc9",
      "function": "sendFrom(address,uint16,bytes,uint256,address,address,bytes)",
      "arguments": [
        "0x2BF003ec9B7e2a5A8663d6B0475370738FA39825",
        "10121",
        "0x2bf003ec9b7e2a5a8663d6b0475370738fa39825",
        "2",
        "0x2BF003ec9B7e2a5A8663d6B0475370738FA39825",
        "0x0000000000000000000000000000000000000000",
        "0x0001000000000000000000000000000000000000000000000000000000000003f7a0"
      ],
      "transaction": {
        "type": "0x02",
        "from": "0x2bf003ec9b7e2a5a8663d6b0475370738fa39825",
        "to": "0x21bb6bde0ba97c4a595d660df852c0579f14bac9",
        "gas": "0x4b68e",
        "value": "0x3403d4136b7d",
        "data": "0x519056360000000000000000000000002bf003ec9b7e2a5a8663d6b0475370738fa39825000000000000000000000000000000000000000000000000000000000000278900000000000000000000000000000000000000000000000000000000000000e000000000000000000000000000000000000000000000000000000000000000020000000000000000000000002bf003ec9b7e2a5a8663d6b0475370738fa398250000000000000000000000000000000000000000000000000000000000000000000000000000000000000000000000000000000000000000000000000000012000000000000000000000000000000000000000000000000000000000000000142bf003ec9b7e2a5a8663d6b0475370738fa3982500000000000000000000000000000000000000000000000000000000000000000000000000000000000000220001000000000000000000000000000000000000000000000000000000000003f7a0000000000000000000000000000000000000000000000000000000000000",
        "nonce": "0x3c",
        "accessList": []
      },
      "additionalContracts": [],
      "isFixedGasLimit": false
    }
  ],
  "receipts": [
    {
      "transactionHash": "0x8bf2d488d477e3b94703f0111dff7f639e944d637f8c1d17cf7cb1fc79210b94",
      "transactionIndex": "0x34",
      "blockHash": "0xeb2a4e8979da865b484f1aa011dfa720323cd15473361fd81786fd7408724915",
      "blockNumber": "0x4e09fe",
      "from": "0x2BF003ec9B7e2a5A8663d6B0475370738FA39825",
      "to": "0x21Bb6Bde0bA97c4a595d660DF852C0579F14bAc9",
      "cumulativeGasUsed": "0x5c5fe1",
      "gasUsed": "0x36987",
      "contractAddress": null,
      "logs": [
        {
          "address": "0x21Bb6Bde0bA97c4a595d660DF852C0579F14bAc9",
          "topics": [
            "0xddf252ad1be2c89b69c2b068fc378daa952ba7f163c4a11628f55a4df523b3ef",
            "0x0000000000000000000000002bf003ec9b7e2a5a8663d6b0475370738fa39825",
            "0x00000000000000000000000021bb6bde0ba97c4a595d660df852c0579f14bac9",
            "0x0000000000000000000000000000000000000000000000000000000000000002"
          ],
          "data": "0x",
          "blockHash": "0xeb2a4e8979da865b484f1aa011dfa720323cd15473361fd81786fd7408724915",
          "blockNumber": "0x4e09fe",
          "transactionHash": "0x8bf2d488d477e3b94703f0111dff7f639e944d637f8c1d17cf7cb1fc79210b94",
          "transactionIndex": "0x34",
          "logIndex": "0x7f",
          "removed": false
        },
        {
          "address": "0x6Ac7bdc07A0583A362F1497252872AE6c0A5F5B8",
          "topics": [
            "0xdf21c415b78ed2552cc9971249e32a053abce6087a0ae0fbf3f78db5174a3493"
          ],
          "data": "0x00000000000000000000000000000000000000000000000000003403cb6270a4",
          "blockHash": "0xeb2a4e8979da865b484f1aa011dfa720323cd15473361fd81786fd7408724915",
          "blockNumber": "0x4e09fe",
          "transactionHash": "0x8bf2d488d477e3b94703f0111dff7f639e944d637f8c1d17cf7cb1fc79210b94",
          "transactionIndex": "0x34",
          "logIndex": "0x80",
          "removed": false
        },
        {
          "address": "0x3aCAAf60502791D199a5a5F0B173D78229eBFe32",
          "topics": [
            "0xb0c632f55f1e1b3b2c3d82f41ee4716bb4c00f0f5d84cdafc141581bb8757a4f"
          ],
          "data": "0x0000000000000000000000000000000000000000000000000000000000000040000000000000000000000000000000000000000000000000000000000000000200000000000000000000000000000000000000000000000000000000000000220001000000000000000000000000000000000000000000000000000000000003f7a0000000000000000000000000000000000000000000000000000000000000",
          "blockHash": "0xeb2a4e8979da865b484f1aa011dfa720323cd15473361fd81786fd7408724915",
          "blockNumber": "0x4e09fe",
          "transactionHash": "0x8bf2d488d477e3b94703f0111dff7f639e944d637f8c1d17cf7cb1fc79210b94",
          "transactionIndex": "0x34",
          "logIndex": "0x81",
          "removed": false
        },
        {
          "address": "0x00C5C0B8e0f75aB862CbAaeCfff499dB555FBDD2",
          "topics": [
            "0x4e41ee13e03cd5e0446487b524fdc48af6acf26c074dacdbdfb6b574b42c8146"
          ],
          "data": "0x00000000000000000000000000000000000000000000000000000000000027890000000000000000000000000000000000000000000000000000000000000002000000000000000000000000000000000000000000000000000000000000000200000000000000000000000021bb6bde0ba97c4a595d660df852c0579f14bac90000000000000000000000000000000000000000000000000000000008b0fad9",
          "blockHash": "0xeb2a4e8979da865b484f1aa011dfa720323cd15473361fd81786fd7408724915",
          "blockNumber": "0x4e09fe",
          "transactionHash": "0x8bf2d488d477e3b94703f0111dff7f639e944d637f8c1d17cf7cb1fc79210b94",
          "transactionIndex": "0x34",
          "logIndex": "0x82",
          "removed": false
        },
        {
          "address": "0x3aCAAf60502791D199a5a5F0B173D78229eBFe32",
          "topics": [
            "0xe9bded5f24a4168e4f3bf44e00298c993b22376aad8c58c7dda9718a54cbea82"
          ],
          "data": "0x000000000000000000000000000000000000000000000000000000000000002000000000000000000000000000000000000000000000000000000000000000f4000000000000000327b121bb6bde0ba97c4a595d660df852c0579f14bac927899ba3a554ea4ab7a72b83f5d5ae5be7b9138de2a30000000000000000000000000000000000000000000000000000000000000040000000000000000000000000000000000000000000000000000000000000008000000000000000000000000000000000000000000000000000000000000000142bf003ec9b7e2a5a8663d6b0475370738fa3982500000000000000000000000000000000000000000000000000000000000000000000000000000000000000010000000000000000000000000000000000000000000000000000000000000002000000000000000000000000",
          "blockHash": "0xeb2a4e8979da865b484f1aa011dfa720323cd15473361fd81786fd7408724915",
          "blockNumber": "0x4e09fe",
          "transactionHash": "0x8bf2d488d477e3b94703f0111dff7f639e944d637f8c1d17cf7cb1fc79210b94",
          "transactionIndex": "0x34",
          "logIndex": "0x83",
          "removed": false
        },
        {
          "address": "0x21Bb6Bde0bA97c4a595d660DF852C0579F14bAc9",
          "topics": [
            "0xe1b87c47fdeb4f9cbadbca9df3af7aba453bb6e501075d0440d88125b711522a",
            "0x0000000000000000000000000000000000000000000000000000000000002789",
            "0x0000000000000000000000002bf003ec9b7e2a5a8663d6b0475370738fa39825",
            "0xf9aa3f20445e210e44880dca14d968ce2b6f7b1a03bde5c8457081c55c5c1b38"
          ],
          "data": "0x000000000000000000000000000000000000000000000000000000000000002000000000000000000000000000000000000000000000000000000000000000010000000000000000000000000000000000000000000000000000000000000002",
          "blockHash": "0xeb2a4e8979da865b484f1aa011dfa720323cd15473361fd81786fd7408724915",
          "blockNumber": "0x4e09fe",
          "transactionHash": "0x8bf2d488d477e3b94703f0111dff7f639e944d637f8c1d17cf7cb1fc79210b94",
          "transactionIndex": "0x34",
          "logIndex": "0x84",
          "removed": false
        }
      ],
      "status": "0x1",
      "logsBloom": "0x04000000000000000000000000000000000050000000000000000000000000100000000028080000400000000000000000000000000000000000000100000000004000010000000000000008000000001004000000000000000000000000000000040000000000000000000000022200000000000000000000000010000000000040000400200000000000000000000000001200388000000000000000000000000000004000020000000100000000000000000000000001000000000000000000041002000008000000800001000000000000000000000000000000004100001080000000800000000000000000000000000000008000000000000000080000",
      "type": "0x2",
      "effectiveGasPrice": "0xe850d718"
    }
  ],
  "libraries": [],
  "pending": [],
  "returns": {},
  "timestamp": 1705668338,
  "chain": 11155111,
  "multi": false,
  "commit": "38cddd9d"
}