{
  "transactions": [
    {
      "hash": "0x7c7533d9e70b72c24cffc1e0061b78ea929b7ffa53a79bc7ab73fc3f9c76befe",
      "transactionType": "CALL",
      "contractName": "TestNFT",
      "contractAddress": "0x21Bb6Bde0bA97c4a595d660DF852C0579F14bAc9",
      "function": "mint(uint256)",
      "arguments": [
        "0"
      ],
      "transaction": {
        "type": "0x02",
        "from": "0x2bf003ec9b7e2a5a8663d6b0475370738fa39825",
        "to": "0x21bb6bde0ba97c4a595d660df852c0579f14bac9",
        "gas": "0x170e1",
        "value": "0x0",
        "data": "0xa0712d680000000000000000000000000000000000000000000000000000000000000000",
        "nonce": "0x34",
        "accessList": []
      },
      "additionalContracts": [],
      "isFixedGasLimit": false
    },
    {
      "hash": "0xf99d92d3092cd7d9857829daed607f5cea45e32d764e139a2b63c0f90d7d286e",
      "transactionType": "CALL",
      "contractName": "TestNFT",
      "contractAddress": "0x21Bb6Bde0bA97c4a595d660DF852C0579F14bAc9",
      "function": "approve(address,uint256)",
      "arguments": [
        "0x21Bb6Bde0bA97c4a595d660DF852C0579F14bAc9",
        "0"
      ],
      "transaction": {
        "type": "0x02",
        "from": "0x2bf003ec9b7e2a5a8663d6b0475370738fa39825",
        "to": "0x21bb6bde0ba97c4a595d660df852c0579f14bac9",
        "gas": "0x116fc",
        "value": "0x0",
        "data": "0x095ea7b300000000000000000000000021bb6bde0ba97c4a595d660df852c0579f14bac90000000000000000000000000000000000000000000000000000000000000000",
        "nonce": "0x35",
        "accessList": []
      },
      "additionalContracts": [],
      "isFixedGasLimit": false
    }
  ],
  "receipts": [
    {
      "transactionHash": "0x7c7533d9e70b72c24cffc1e0061b78ea929b7ffa53a79bc7ab73fc3f9c76befe",
      "transactionIndex": "0x1d",
      "blockHash": "0x51fc38f3b94e80c15874f083240782c507c014fd6937d372b60c5d47617499ba",
      "blockNumber": "0x4e0986",
      "from": "0x2BF003ec9B7e2a5A8663d6B0475370738FA39825",
      "to": "0x21Bb6Bde0bA97c4a595d660DF852C0579F14bAc9",
      "cumulativeGasUsed": "0x28b191",
      "gasUsed": "0x10b10",
      "contractAddress": null,
      "logs": [
        {
          "address": "0x21Bb6Bde0bA97c4a595d660DF852C0579F14bAc9",
          "topics": [
            "0xddf252ad1be2c89b69c2b068fc378daa952ba7f163c4a11628f55a4df523b3ef",
            "0x0000000000000000000000000000000000000000000000000000000000000000",
            "0x0000000000000000000000002bf003ec9b7e2a5a8663d6b0475370738fa39825",
            "0x0000000000000000000000000000000000000000000000000000000000000000"
          ],
          "data": "0x",
          "blockHash": "0x51fc38f3b94e80c15874f083240782c507c014fd6937d372b60c5d47617499ba",
          "blockNumber": "0x4e0986",
          "transactionHash": "0x7c7533d9e70b72c24cffc1e0061b78ea929b7ffa53a79bc7ab73fc3f9c76befe",
          "transactionIndex": "0x1d",
          "logIndex": "0x30",
          "removed": false
        }
      ],
      "status": "0x1",
      "logsBloom": "0x00000000000000000000000000000000000000000000000000000000000000000000000008080000000000000000000000000000000000000000000100000000000000000000000000000008000000000000000000000000000000000000000000000000020000000000000000000800000000000000000000000010000000000000000000000000000000000000000000001000008000000000000000000000000000000000000000000000000000000000000000000000000000000000000000000002000000000000000001000000000000000000000000000000000020000000000000000000000000000000000000000000000000000000000000000000",
      "type": "0x2",
      "effectiveGasPrice": "0xf66eb07d"
    },
    {
      "transactionHash": "0xf99d92d3092cd7d9857829daed607f5cea45e32d764e139a2b63c0f90d7d286e",
      "transactionIndex": "0x1f",
      "blockHash": "0x51fc38f3b94e80c15874f083240782c507c014fd6937d372b60c5d47617499ba",
      "blockNumber": "0x4e0986",
      "from": "0x2BF003ec9B7e2a5A8663d6B0475370738FA39825",
      "to": "0x21Bb6Bde0bA97c4a595d660DF852C0579F14bAc9",
      "cumulativeGasUsed": "0x2ddf6e",
      "gasUsed": "0xbec3",
      "contractAddress": null,
      "logs": [
        {
          "address": "0x21Bb6Bde0bA97c4a595d660DF852C0579F14bAc9",
          "topics": [
            "0x8c5be1e5ebec7d5bd14f71427d1e84f3dd0314c0f7b2291e5b200ac8c7c3b925",
            "0x0000000000000000000000002bf003ec9b7e2a5a8663d6b0475370738fa39825",
            "0x00000000000000000000000021bb6bde0ba97c4a595d660df852c0579f14bac9",
            "0x0000000000000000000000000000000000000000000000000000000000000000"
          ],
          "data": "0x",
          "blockHash": "0x51fc38f3b94e80c15874f083240782c507c014fd6937d372b60c5d47617499ba",
          "blockNumber": "0x4e0986",
          "transactionHash": "0xf99d92d3092cd7d9857829daed607f5cea45e32d764e139a2b63c0f90d7d286e",
          "transactionIndex": "0x1f",
          "logIndex": "0x32",
          "removed": false
        }
      ],
      "status": "0x1",
      "logsBloom": "0x00000000000000000000000000000000000000000000000000000000000000000000000008080000000000000000000000000000000000000000000100200000000000000000000000000000000000000000000000000000000000000000000000000000020000000000000000002800000000000000000000000000000000000000000000200000000000000000000000001000008000000000000000000000020000000000000000000000000000000000000000000001000000000000000000000000000000000000000001000000000000000000000000000000000020000010000000000000000000000000000000000000000000000000000000000000",
      "type": "0x2",
      "effectiveGasPrice": "0xf66eb07d"
    }
  ],
  "libraries": [],
  "pending": [],
  "returns": {},
  "timestamp": 1705666691,
  "chain": 11155111,
  "multi": false,
  "commit": "38cddd9d"
}