{
  "transactions": [
    {
      "hash": "0x7b0c345c8f52dcfaa5fa3a6a8aa47b91667db90e71aa48d7c2b21118054d4b0c",
      "transactionType": "CALL",
      "contractName": "TestNFT",
      "contractAddress": "0x15aE41e237c524c8150134375EdE3cCB725DAbF8",
      "function": "sendFrom(address,uint16,bytes,uint256,address,address,bytes)",
      "arguments": [
        "0x2BF003ec9B7e2a5A8663d6B0475370738FA39825",
        "10121",
        "0x0000000000000000000000002bf003ec9b7e2a5a8663d6b0475370738fa39825",
        "0",
        "0x2BF003ec9B7e2a5A8663d6B0475370738FA39825",
        "0x0000000000000000000000000000000000000000",
        "0x0001000000000000000000000000000000000000000000000000000000000003f7a0"
      ],
      "transaction": {
        "type": "0x02",
        "from": "0x2bf003ec9b7e2a5a8663d6b0475370738fa39825",
        "to": "0x15ae41e237c524c8150134375ede3ccb725dabf8",
        "gas": "0x5cb47",
        "value": "0x3403d4136b7d",
        "data": "0x519056360000000000000000000000002bf003ec9b7e2a5a8663d6b0475370738fa39825000000000000000000000000000000000000000000000000000000000000278900000000000000000000000000000000000000000000000000000000000000e000000000000000000000000000000000000000000000000000000000000000000000000000000000000000002bf003ec9b7e2a5a8663d6b0475370738fa398250000000000000000000000000000000000000000000000000000000000000000000000000000000000000000000000000000000000000000000000000000012000000000000000000000000000000000000000000000000000000000000000200000000000000000000000002bf003ec9b7e2a5a8663d6b0475370738fa3982500000000000000000000000000000000000000000000000000000000000000220001000000000000000000000000000000000000000000000000000000000003f7a0000000000000000000000000000000000000000000000000000000000000",
        "nonce": "0x2e",
        "accessList": []
      },
      "additionalContracts": [],
      "isFixedGasLimit": false
    }
  ],
  "receipts": [],
  "libraries": [],
  "pending": [
    "0x7b0c345c8f52dcfaa5fa3a6a8aa47b91667db90e71aa48d7c2b21118054d4b0c"
  ],
  "returns": {},
  "timestamp": 1705654770,
  "chain": 11155111,
  "multi": false,
  "commit": "57fff76b"
}