{
  "transactions": [
    {
      "hash": "0x2257032cc7844aedb13b5750230653a3b2d9fe2aec4dcfecd2be0dcbf60d334f",
      "transactionType": "CALL",
      "contractName": "TestTokenElsewhere",
      "contractAddress": "0x0ADAFB8574b3a59cF3176e1bD278C951c445D94d",
      "function": "setMinDstGas(uint16,uint16,uint256)",
      "arguments": [
        "10109",
        "0",
        "200000"
      ],
      "transaction": {
        "type": "0x02",
        "from": "0x2bf003ec9b7e2a5a8663d6b0475370738fa39825",
        "to": "0x0adafb8574b3a59cf3176e1bd278c951c445d94d",
        "gas": "0x11275",
        "value": "0x0",
        "data": "0xdf2a5b3b000000000000000000000000000000000000000000000000000000000000277d00000000000000000000000000000000000000000000000000000000000000000000000000000000000000000000000000000000000000000000000000030d40",
        "nonce": "0x12",
        "accessList": []
      },
      "additionalContracts": [],
      "isFixedGasLimit": false
    }
  ],
  "receipts": [],
  "libraries": [],
  "pending": [
    "0x2257032cc7844aedb13b5750230653a3b2d9fe2aec4dcfecd2be0dcbf60d334f"
  ],
  "returns": {},
  "timestamp": 1705497364,
  "chain": 5,
  "multi": false,
  "commit": "735668bb"
}