{
  "transactions": [
    {
      "hash": "0xe1e98e1c7e2cbcd8402dff1179b1fa058a155067d631170415f820e4c880cf1f",
      "transactionType": "CALL",
      "contractName": "TestTokenElsewhere",
      "contractAddress": "0x0ADAFB8574b3a59cF3176e1bD278C951c445D94d",
      "function": "setTrustedRemote(uint16,bytes)",
      "arguments": [
        "10109",
        "0x159ea9b02bf05d87dda0e064558897ef7392aa130adafb8574b3a59cf3176e1bd278c951c445d94d"
      ],
      "transaction": {
        "type": "0x02",
        "from": "0x2bf003ec9b7e2a5a8663d6b0475370738fa39825",
        "to": "0x0adafb8574b3a59cf3176e1bd278c951c445d94d",
        "gas": "0x21aaa",
        "value": "0x0",
        "data": "0xeb8d72b7000000000000000000000000000000000000000000000000000000000000277d00000000000000000000000000000000000000000000000000000000000000400000000000000000000000000000000000000000000000000000000000000028159ea9b02bf05d87dda0e064558897ef7392aa130adafb8574b3a59cf3176e1bd278c951c445d94d000000000000000000000000000000000000000000000000",
        "nonce": "0x11",
        "accessList": []
      },
      "additionalContracts": [],
      "isFixedGasLimit": false
    }
  ],
  "receipts": [
    {
      "transactionHash": "0xe1e98e1c7e2cbcd8402dff1179b1fa058a155067d631170415f820e4c880cf1f",
      "transactionIndex": "0x8",
      "blockHash": "0xf79e9499e9ad821cf89deba1502a130d870be7c4ecbe592d2d111d761c2fce1e",
      "blockNumber": "0x9e87b2",
      "from": "0x2BF003ec9B7e2a5A8663d6B0475370738FA39825",
      "to": "0x0ADAFB8574b3a59cF3176e1bD278C951c445D94d",
      "cumulativeGasUsed": "0x20ba47",
      "gasUsed": "0x17052",
      "contractAddress": null,
      "logs": [
        {
          "address": "0x0ADAFB8574b3a59cF3176e1bD278C951c445D94d",
          "topics": [
            "0xfa41487ad5d6728f0b19276fa1eddc16558578f5109fc39d2dc33c3230470dab"
          ],
          "data": "0x000000000000000000000000000000000000000000000000000000000000277d00000000000000000000000000000000000000000000000000000000000000400000000000000000000000000000000000000000000000000000000000000028159ea9b02bf05d87dda0e064558897ef7392aa130adafb8574b3a59cf3176e1bd278c951c445d94d000000000000000000000000000000000000000000000000",
          "blockHash": "0xf79e9499e9ad821cf89deba1502a130d870be7c4ecbe592d2d111d761c2fce1e",
          "blockNumber": "0x9e87b2",
          "transactionHash": "0xe1e98e1c7e2cbcd8402dff1179b1fa058a155067d631170415f820e4c880cf1f",
          "transactionIndex": "0x8",
          "logIndex": "0x21",
          "removed": false
        }
      ],
      "status": "0x1",
      "logsBloom": "0x00000000000000000020000000000000000000000000000000000000000000000000000000000000000000000000000000000000000000000000000000000000000000000000000000000000000000000000000000000000000000000008000000000000000000000000040000000000000000000000000080000000000000000000000200000000000000000000000000000000000000000000000000000000000000000000000000000000000000000000000000000000000000000000000000000000000000000010000000000000000000000000000000000000000000000000000000000000000000000000000000000000000000000000000000000000",
      "type": "0x2",
      "effectiveGasPrice": "0xb2d05e0f"
    }
  ],
  "libraries": [],
  "pending": [],
  "returns": {},
  "timestamp": 1705497173,
  "chain": 5,
  "multi": false,
  "commit": "735668bb"
}