{
  "transactions": [
    {
      "hash": "0x9e4050c01c227d2c241b18f1151f6667539cf16ab1e473d880773de19cf28681",
      "transactionType": "CALL",
      "contractName": "TestTokenElsewhere",
      "contractAddress": "0x0ADAFB8574b3a59cF3176e1bD278C951c445D94d",
      "function": "setTrustedRemote(uint16,bytes)",
      "arguments": [
        "10161",
        "0x0adafb8574b3a59cf3176e1bd278c951c445d94d0adafb8574b3a59cf3176e1bd278c951c445d94d"
      ],
      "transaction": {
        "type": "0x02",
        "from": "0x2bf003ec9b7e2a5a8663d6b0475370738fa39825",
        "to": "0x0adafb8574b3a59cf3176e1bd278c951c445d94d",
        "gas": "0xca84",
        "value": "0x0",
        "data": "0xeb8d72b700000000000000000000000000000000000000000000000000000000000027b1000000000000000000000000000000000000000000000000000000000000004000000000000000000000000000000000000000000000000000000000000000280adafb8574b3a59cf3176e1bd278c951c445d94d0adafb8574b3a59cf3176e1bd278c951c445d94d000000000000000000000000000000000000000000000000",
        "nonce": "0x15",
        "accessList": []
      },
      "additionalContracts": [],
      "isFixedGasLimit": false
    }
  ],
  "receipts": [
    {
      "transactionHash": "0x9e4050c01c227d2c241b18f1151f6667539cf16ab1e473d880773de19cf28681",
      "transactionIndex": "0x0",
      "blockHash": "0x9ede1f71f29826159d29ebe261b7aebd891574b1fd451c6ce94b8dc43285d21a",
      "blockNumber": "0x9e9254",
      "from": "0x2BF003ec9B7e2a5A8663d6B0475370738FA39825",
      "to": "0x0ADAFB8574b3a59cF3176e1bD278C951c445D94d",
      "cumulativeGasUsed": "0x929f",
      "gasUsed": "0x929f",
      "contractAddress": null,
      "logs": [
        {
          "address": "0x0ADAFB8574b3a59cF3176e1bD278C951c445D94d",
          "topics": [
            "0xfa41487ad5d6728f0b19276fa1eddc16558578f5109fc39d2dc33c3230470dab"
          ],
          "data": "0x00000000000000000000000000000000000000000000000000000000000027b1000000000000000000000000000000000000000000000000000000000000004000000000000000000000000000000000000000000000000000000000000000280adafb8574b3a59cf3176e1bd278c951c445d94d0adafb8574b3a59cf3176e1bd278c951c445d94d000000000000000000000000000000000000000000000000",
          "blockHash": "0x9ede1f71f29826159d29ebe261b7aebd891574b1fd451c6ce94b8dc43285d21a",
          "blockNumber": "0x9e9254",
          "transactionHash": "0x9e4050c01c227d2c241b18f1151f6667539cf16ab1e473d880773de19cf28681",
          "transactionIndex": "0x0",
          "logIndex": "0x0",
          "removed": false
        }
      ],
      "status": "0x1",
      "logsBloom": "0x00000000000000000020000000000000000000000000000000000000000000000000000000000000000000000000000000000000000000000000000000000000000000000000000000000000000000000000000000000000000000000008000000000000000000000000040000000000000000000000000080000000000000000000000200000000000000000000000000000000000000000000000000000000000000000000000000000000000000000000000000000000000000000000000000000000000000000010000000000000000000000000000000000000000000000000000000000000000000000000000000000000000000000000000000000000",
      "type": "0x2",
      "effectiveGasPrice": "0xb2d05e09"
    }
  ],
  "libraries": [],
  "pending": [],
  "returns": {},
  "timestamp": 1705542788,
  "chain": 5,
  "multi": false,
  "commit": "735668bb"
}