{
  "transactions": [
    {
      "hash": "0x2257032cc7844aedb13b5750230653a3b2d9fe2aec4dcfecd2be0dcbf60d334f",
      "transactionType": "CALL",
      "contractName": "TestTokenElsewhere",
      "contractAddress": "0x0ADAFB8574b3a59cF3176e1bD278C951c445D94d",
      "function": "setMinDstGas(uint16,uint16,uint256)",
      "arguments": [
        "10109",
        "0",
        "200000"
      ],
      "transaction": {
        "type": "0x02",
        "from": "0x2bf003ec9b7e2a5a8663d6b0475370738fa39825",
        "to": "0x0adafb8574b3a59cf3176e1bd278c951c445d94d",
        "gas": "0x11275",
        "value": "0x0",
        "data": "0xdf2a5b3b000000000000000000000000000000000000000000000000000000000000277d00000000000000000000000000000000000000000000000000000000000000000000000000000000000000000000000000000000000000000000000000030d40",
        "nonce": "0x12",
        "accessList": []
      },
      "additionalContracts": [],
      "isFixedGasLimit": false
    }
  ],
  "receipts": [
    {
      "transactionHash": "0x2257032cc7844aedb13b5750230653a3b2d9fe2aec4dcfecd2be0dcbf60d334f",
      "transactionIndex": "0x8",
      "blockHash": "0x69672afdcf34d5f54bf372a7b41b3f4c0ded50ae835d6fa0706eebcc311e5cbc",
      "blockNumber": "0x9e87bf",
      "from": "0x2BF003ec9B7e2a5A8663d6B0475370738FA39825",
      "to": "0x0ADAFB8574b3a59cF3176e1bD278C951c445D94d",
      "cumulativeGasUsed": "0x1fdd86",
      "gasUsed": "0xbbaa",
      "contractAddress": null,
      "logs": [
        {
          "address": "0x0ADAFB8574b3a59cF3176e1bD278C951c445D94d",
          "topics": [
            "0x9d5c7c0b934da8fefa9c7760c98383778a12dfbfc0c3b3106518f43fb9508ac0"
          ],
          "data": "0x000000000000000000000000000000000000000000000000000000000000277d00000000000000000000000000000000000000000000000000000000000000000000000000000000000000000000000000000000000000000000000000030d40",
          "blockHash": "0x69672afdcf34d5f54bf372a7b41b3f4c0ded50ae835d6fa0706eebcc311e5cbc",
          "blockNumber": "0x9e87bf",
          "transactionHash": "0x2257032cc7844aedb13b5750230653a3b2d9fe2aec4dcfecd2be0dcbf60d334f",
          "transactionIndex": "0x8",
          "logIndex": "0x24",
          "removed": false
        }
      ],
      "status": "0x1",
      "logsBloom": "0x00000000000000000020000000000000000000000000000000000000000000000000000000000000000000000000000000000000000000000000000000000000000000000000000000000000000000000000000000000000000000000000000000000000000000000000040000000000000000000000000000000000000000200000000000000000000000000000000000000000000000000000000000000000000000000000000000000000000000000000000000000000008020000000000000000000000000000010000000000000000000000000000000000000000000000000000000000000000000000000000000000000000000000000000000000000",
      "type": "0x2",
      "effectiveGasPrice": "0xb2d05e0e"
    }
  ],
  "libraries": [],
  "pending": [],
  "returns": {},
  "timestamp": 1705497396,
  "chain": 5,
  "multi": false,
  "commit": "735668bb"
}