{
  "transactions": [
    {
      "hash": "0x39ce6fae432a019891510c81543eb10d0a31f0a2547c0b5cc4cc763e77f9ee25",
      "transactionType": "CALL",
      "contractName": "TestTokenElsewhere",
      "contractAddress": "0x0ADAFB8574b3a59cF3176e1bD278C951c445D94d",
      "function": "setTrustedRemote(uint16,bytes)",
      "arguments": [
        "10161",
        "0x159ea9b02bf05d87dda0e064558897ef7392aa130adafb8574b3a59cf3176e1bd278c951c445d94d"
      ],
      "transaction": {
        "type": "0x02",
        "from": "0x2bf003ec9b7e2a5a8663d6b0475370738fa39825",
        "to": "0x0adafb8574b3a59cf3176e1bd278c951c445d94d",
        "gas": "0x21aaa",
        "value": "0x0",
        "data": "0xeb8d72b700000000000000000000000000000000000000000000000000000000000027b100000000000000000000000000000000000000000000000000000000000000400000000000000000000000000000000000000000000000000000000000000028159ea9b02bf05d87dda0e064558897ef7392aa130adafb8574b3a59cf3176e1bd278c951c445d94d000000000000000000000000000000000000000000000000",
        "nonce": "0x13",
        "accessList": []
      },
      "additionalContracts": [],
      "isFixedGasLimit": false
    }
  ],
  "receipts": [
    {
      "transactionHash": "0x39ce6fae432a019891510c81543eb10d0a31f0a2547c0b5cc4cc763e77f9ee25",
      "transactionIndex": "0x0",
      "blockHash": "0xd4ab822897929f4eba16b8718b7075d809c9103172aba18a7097521a7ac474ea",
      "blockNumber": "0x9e883a",
      "from": "0x2BF003ec9B7e2a5A8663d6B0475370738FA39825",
      "to": "0x0ADAFB8574b3a59cF3176e1bD278C951c445D94d",
      "cumulativeGasUsed": "0x17052",
      "gasUsed": "0x17052",
      "contractAddress": null,
      "logs": [
        {
          "address": "0x0ADAFB8574b3a59cF3176e1bD278C951c445D94d",
          "topics": [
            "0xfa41487ad5d6728f0b19276fa1eddc16558578f5109fc39d2dc33c3230470dab"
          ],
          "data": "0x00000000000000000000000000000000000000000000000000000000000027b100000000000000000000000000000000000000000000000000000000000000400000000000000000000000000000000000000000000000000000000000000028159ea9b02bf05d87dda0e064558897ef7392aa130adafb8574b3a59cf3176e1bd278c951c445d94d000000000000000000000000000000000000000000000000",
          "blockHash": "0xd4ab822897929f4eba16b8718b7075d809c9103172aba18a7097521a7ac474ea",
          "blockNumber": "0x9e883a",
          "transactionHash": "0x39ce6fae432a019891510c81543eb10d0a31f0a2547c0b5cc4cc763e77f9ee25",
          "transactionIndex": "0x0",
          "logIndex": "0x0",
          "removed": false
        }
      ],
      "status": "0x1",
      "logsBloom": "0x00000000000000000020000000000000000000000000000000000000000000000000000000000000000000000000000000000000000000000000000000000000000000000000000000000000000000000000000000000000000000000008000000000000000000000000040000000000000000000000000080000000000000000000000200000000000000000000000000000000000000000000000000000000000000000000000000000000000000000000000000000000000000000000000000000000000000000010000000000000000000000000000000000000000000000000000000000000000000000000000000000000000000000000000000000000",
      "type": "0x2",
      "effectiveGasPrice": "0xb2d05e10"
    }
  ],
  "libraries": [],
  "pending": [],
  "returns": {},
  "timestamp": 1705499546,
  "chain": 5,
  "multi": false,
  "commit": "735668bb"
}