{
  "transactions": [
    {
      "hash": "0x62b796cbf0c3b77e388ee5f1860c4a1cb1beeb3a09699deac4e05600955e9b4f",
      "transactionType": "CALL",
      "contractName": "TestTokenElsewhere",
      "contractAddress": "0x0ADAFB8574b3a59cF3176e1bD278C951c445D94d",
      "function": "setMinDstGas(uint16,uint16,uint256)",
      "arguments": [
        "10161",
        "0",
        "200000"
      ],
      "transaction": {
        "type": "0x02",
        "from": "0x2bf003ec9b7e2a5a8663d6b0475370738fa39825",
        "to": "0x0adafb8574b3a59cf3176e1bd278c951c445d94d",
        "gas": "0x11275",
        "value": "0x0",
        "data": "0xdf2a5b3b00000000000000000000000000000000000000000000000000000000000027b100000000000000000000000000000000000000000000000000000000000000000000000000000000000000000000000000000000000000000000000000030d40",
        "nonce": "0x14",
        "accessList": []
      },
      "additionalContracts": [],
      "isFixedGasLimit": false
    }
  ],
  "receipts": [
    {
      "transactionHash": "0x62b796cbf0c3b77e388ee5f1860c4a1cb1beeb3a09699deac4e05600955e9b4f",
      "transactionIndex": "0x5",
      "blockHash": "0x3fb117273609973042ff519e18eacd8465af708dea0861df9123fc8bd980f5c5",
      "blockNumber": "0x9e8840",
      "from": "0x2BF003ec9B7e2a5A8663d6B0475370738FA39825",
      "to": "0x0ADAFB8574b3a59cF3176e1bD278C951c445D94d",
      "cumulativeGasUsed": "0xbc3cb",
      "gasUsed": "0xbbaa",
      "contractAddress": null,
      "logs": [
        {
          "address": "0x0ADAFB8574b3a59cF3176e1bD278C951c445D94d",
          "topics": [
            "0x9d5c7c0b934da8fefa9c7760c98383778a12dfbfc0c3b3106518f43fb9508ac0"
          ],
          "data": "0x00000000000000000000000000000000000000000000000000000000000027b100000000000000000000000000000000000000000000000000000000000000000000000000000000000000000000000000000000000000000000000000030d40",
          "blockHash": "0x3fb117273609973042ff519e18eacd8465af708dea0861df9123fc8bd980f5c5",
          "blockNumber": "0x9e8840",
          "transactionHash": "0x62b796cbf0c3b77e388ee5f1860c4a1cb1beeb3a09699deac4e05600955e9b4f",
          "transactionIndex": "0x5",
          "logIndex": "0xb",
          "removed": false
        }
      ],
      "status": "0x1",
      "logsBloom": "0x00000000000000000020000000000000000000000000000000000000000000000000000000000000000000000000000000000000000000000000000000000000000000000000000000000000000000000000000000000000000000000000000000000000000000000000040000000000000000000000000000000000000000200000000000000000000000000000000000000000000000000000000000000000000000000000000000000000000000000000000000000000008020000000000000000000000000000010000000000000000000000000000000000000000000000000000000000000000000000000000000000000000000000000000000000000",
      "type": "0x2",
      "effectiveGasPrice": "0xb2d05e0c"
    }
  ],
  "libraries": [],
  "pending": [],
  "returns": {},
  "timestamp": 1705499641,
  "chain": 5,
  "multi": false,
  "commit": "735668bb"
}